{"contracts/WWANProtocol.sol":{"WWANProtocol":{"abi":[{"inputs":[],"stateMutability":"nonpayable","type":"constructor"},{"anonymous":false,"inputs":[{"indexed":false,"internalType":"address","name":"previousAdmin","type":"address"},{"indexed":false,"internalType":"address","name":"newAdmin","type":"address"}],"name":"AdminChanged","type":"event"},{"anonymous":false,"inputs":[{"indexed":true,"internalType":"address","name":"agentAddress","type":"address"},{"indexed":false,"internalType":"string","name":"metadata","type":"string"}],"name":"AgentRegistered","type":"event"},{"anonymous":false,"inputs":[{"indexed":true,"internalType":"address","name":"user","type":"address"},{"indexed":true,"internalType":"address","name":"agent","type":"address"},{"indexed":false,"internalType":"uint256","name":"allowance","type":"uint256"}],"name":"AgentRegisteredForUser","type":"event"},{"anonymous":false,"inputs":[{"indexed":true,"internalType":"address","name":"beacon","type":"address"}],"name":"BeaconUpgraded","type":"event"},{"anonymous":false,"inputs":[{"indexed":true,"internalType":"uint256","name":"taskId","type":"uint256"},{"indexed":true,"internalType":"address","name":"requestingAgent","type":"address"},{"indexed":true,"internalType":"address","name":"targetAgent","type":"address"}],"name":"CollaborationRequested","type":"event"},{"anonymous":false,"inputs":[{"indexed":false,"internalType":"uint8","name":"version","type":"uint8"}],"name":"Initialized","type":"event"},{"anonymous":false,"inputs":[{"indexed":true,"internalType":"uint256","name":"taskId","type":"uint256"},{"indexed":true,"internalType":"address","name":"agent","type":"address"}],"name":"TaskAssigned","type":"event"},{"anonymous":false,"inputs":[{"indexed":true,"internalType":"uint256","name":"taskId","type":"uint256"},{"indexed":false,"internalType":"bytes","name":"signature","type":"bytes"}],"name":"TaskCompleted","type":"event"},{"anonymous":false,"inputs":[{"indexed":true,"internalType":"uint256","name":"taskId","type":"uint256"},{"indexed":true,"internalType":"address","name":"creator","type":"address"},{"indexed":false,"internalType":"bytes32","name":"taskType","type":"bytes32"}],"name":"TaskCreated","type":"event"},{"anonymous":false,"inputs":[{"indexed":true,"internalType":"address","name":"implementation","type":"address"}],"name":"Upgraded","type":"event"},{"inputs":[{"internalType":"address","name":"","type":"address"}],"name":"agents","outputs":[{"internalType":"address","name":"agentAddress","type":"address"},{"internalType":"string","name":"metadata","type":"string"},{"internalType":"bool","name":"isActive","type":"bool"},{"internalType":"uint256","name":"reputation","type":"uint256"}],"stateMutability":"view","type":"function"},{"inputs":[{"internalType":"uint256","name":"_taskId","type":"uint256"}],"name":"assignTask","outputs":[],"stateMutability":"nonpayable","type":"function"},{"inputs":[{"internalType":"uint256","name":"_taskId","type":"uint256"},{"internalType":"bytes","name":"_signature","type":"bytes"}],"name":"completeTask","outputs":[],"stateMutability":"nonpayable","type":"function"},{"inputs":[{"internalType":"bytes32","name":"_taskType","type":"bytes32"},{"internalType":"string","name":"_taskData","type":"string"},{"internalType":"uint256","name":"_payment","type":"uint256"},{"internalType":"address[]","name":"_collaboratingAgents","type":"address[]"}],"name":"createTask","outputs":[],"stateMutability":"nonpayable","type":"function"},{"inputs":[{"internalType":"address","name":"_agentAddress","type":"address"},{"internalType":"bytes32","name":"_taskType","type":"bytes32"},{"internalType":"string","name":"_taskData","type":"string"},{"internalType":"uint256","name":"_payment","type":"uint256"}],"name":"executeAgentTask","outputs":[],"stateMutability":"nonpayable","type":"function"},{"inputs":[{"internalType":"address","name":"_paymentToken","type":"address"}],"name":"initialize","outputs":[],"stateMutability":"nonpayable","type":"function"},{"inputs":[],"name":"owner","outputs":[{"internalType":"address","name":"","type":"address"}],"stateMutability":"view","type":"function"},{"inputs":[],"name":"paymentToken","outputs":[{"internalType":"contract IERC20Upgradeable","name":"","type":"address"}],"stateMutability":"view","type":"function"},{"inputs":[],"name":"proxiableUUID","outputs":[{"internalType":"bytes32","name":"","type":"bytes32"}],"stateMutability":"view","type":"function"},{"inputs":[{"internalType":"address","name":"_agentAddress","type":"address"},{"internalType":"string","name":"_metadata","type":"string"}],"name":"registerAgent","outputs":[],"stateMutability":"nonpayable","type":"function"},{"inputs":[{"internalType":"address","name":"_user","type":"address"},{"internalType":"address","name":"_agentAddress","type":"address"},{"internalType":"uint256","name":"_paymentAllowance","type":"uint256"}],"name":"registerAgentForOtherUser","outputs":[],"stateMutability":"nonpayable","type":"function"},{"inputs":[{"internalType":"address","name":"_agentAddress","type":"address"},{"internalType":"uint256","name":"_paymentAllowance","type":"uint256"}],"name":"registerAgentForUser","outputs":[],"stateMutability":"nonpayable","type":"function"},{"inputs":[{"internalType":"uint256","name":"_taskId","type":"uint256"},{"internalType":"address","name":"_collaboratorAgent","type":"address"}],"name":"requestCollaboration","outputs":[],"stateMutability":"nonpayable","type":"function"},{"inputs":[],"name":"taskCounter","outputs":[{"internalType":"uint256","name":"","type":"uint256"}],"stateMutability":"view","type":"function"},{"inputs":[{"internalType":"uint256","name":"","type":"uint256"}],"name":"tasks","outputs":[{"internalType":"address","name":"creator","type":"address"},{"internalType":"address","name":"assignedAgent","type":"address"},{"internalType":"bytes32","name":"taskType","type":"bytes32"},{"internalType":"string","name":"taskData","type":"string"},{"internalType":"uint256","name":"payment","type":"uint256"},{"internalType":"enum WWANProtocol.TaskStatus","name":"status","type":"uint8"},{"internalType":"bytes","name":"signature","type":"bytes"}],"stateMutability":"view","type":"function"},{"inputs":[{"internalType":"address","name":"newImplementation","type":"address"}],"name":"upgradeTo","outputs":[],"stateMutability":"nonpayable","type":"function"},{"inputs":[{"internalType":"address","name":"newImplementation","type":"address"},{"internalType":"bytes","name":"data","type":"bytes"}],"name":"upgradeToAndCall","outputs":[],"stateMutability":"payable","type":"function"}],"devdoc":{"kind":"dev","methods":{"constructor":{"custom:oz-upgrades-unsafe-allow":"constructor"},"proxiableUUID()":{"details":"Implementation of the ERC1822 {proxiableUUID} function. This returns the storage slot used by the implementation. It is used to validate the implementation's compatibility when performing an upgrade. IMPORTANT: A proxy pointing at a proxiable contract should not be considered proxiable itself, because this risks bricking a proxy that upgrades to it, by delegating to itself until out of gas. Thus it is critical that this function revert if invoked through a proxy. This is guaranteed by the `notDelegated` modifier."},"upgradeTo(address)":{"custom:oz-upgrades-unsafe-allow-reachable":"delegatecall","details":"Upgrade the implementation of the proxy to `newImplementation`. Calls {_authorizeUpgrade}. Emits an {Upgraded} event."},"upgradeToAndCall(address,bytes)":{"custom:oz-upgrades-unsafe-allow-reachable":"delegatecall","details":"Upgrade the implementation of the proxy to `newImplementation`, and subsequently execute the function call encoded in `data`. Calls {_authorizeUpgrade}. Emits an {Upgraded} event."}},"version":1},"evm":{"bytecode":{"linkReferences":{},"object":"60a080604052346100dc57306080526000549060ff8260081c1661008a575060ff8082160361004f575b60405161243590816100e28239608051818181610f980152818161108501526113730152f35b60ff90811916176000557f7f26b83ff96e1f2b6a682f133852f6798a09c465da95921460cefb3847402498602060405160ff8152a138610029565b62461bcd60e51b815260206004820152602760248201527f496e697469616c697a61626c653a20636f6e747261637420697320696e697469604482015266616c697a696e6760c81b6064820152608490fd5b600080fdfe60406080815260048036101561001457600080fd5b600090813560e01c9081630cfb932f1461185c57816322b833d81461166f5781633013ce29146116465781633659cfe61461134b5781634f1ef2861461104557816352d1902d14610f825781635867173014610f635781637a2ccd3514610cff5781638d97767214610bac5781638da5cb5b14610b7f578163b053cef314610a46578163b857318514610925578163c30c4476146107cd578163c4d66de814610660578163d174c3e2146104f0578163de2ddc5914610159575063fd66091e146100dd57600080fd5b34610156576020366003190112610156576001600160a01b0390829082610102611c86565b168152609960205220908154169061011c60018201611da8565b92600360ff6002840154169201549061014681519586958652608060208701526080860190611e4e565b9215159084015260608301520390f35b80fd5b839150346104ec5760803660031901126104ec5780359167ffffffffffffffff906024358281116104e8576101919036908501611d27565b606435928084116104e457366023850112156104e45783850135938185116104d1578460051b8451916020966101c988840185611ce9565b835286830160248193830101913683116104cd57602401905b8282106104aa575050506101f4612328565b6044359687156104675760018060a01b03928a8861024a86609854168c8b519485809481936323b872dd60e01b835230338c850160409194939294606082019560018060a01b0380921683521660208201520152565b03925af190811561045d5790610267918d91610430575b506122b7565b609c54986102748a612303565b609c55898c52609a8952878c2096336001600160601b0360a01b8954161788558b6002890155805187811161041d57808e60038b01936102be836102b88754611d6e565b876120f4565b8d91601f84116001146103b957926103ae575b50508160011b916000199060031b1c19161790555b8683015560058601805460ff19169055519485610333575b8a8a8a7fe04e65a2f2de9844f70a34d2eba1e53ddadaad516fa4d8f5e02ee00df908ebef8b8b519384523393a3600160655580f35b60070193851161039b57600160401b851161039b57508254848455808510610381575b5091885284882090885b84811061036d57806102fe565b835182168382015592860192600101610360565b838a52868a206103959181019086016120dd565b89610356565b634e487b7160e01b8a5260419052602489fd5b015190508f806102d1565b8581528e81209350601f198516908f5b8282106104065750509084600195949392106103ed575b505050811b0190556102e6565b015160001960f88460031b161c191690558f80806103e0565b60018596829396860151815501950193018f6103c9565b634e487b7160e01b8e526041855260248efd5b61045091508a3d8c11610456575b6104488183611ce9565b8101906121db565b8d610261565b503d61043e565b88513d8e823e3d90fd5b855162461bcd60e51b8152908101879052601860248201527f5061796d656e74206d75737420626520706f73697469766500000000000000006044820152606490fd5b81356001600160a01b03811681036104c95781529088019088016101e2565b8c80fd5b8b80fd5b634e487b7160e01b885260418652602488fd5b8680fd5b8580fd5b8280fd5b839150346104ec5760603660031901126104ec5761050c611c86565b90610515611ca1565b9060443560018060a01b0392838116948588526020936099855261054160ff60028a8c20015416612139565b8886831696878252609b875260018a832001898352875261056860ff8b8420541615612185565b856105c1575b5087876000805160206123c083398151915288888d60028a868952609b855261059a838a209182612277565b878952600181018552828920600160ff19825416179055018352818188205551908152a380f35b6098548a516323b872dd60e01b81526001600160a01b0395909516938501938452306020850152604084018790528793859390849003606001928492165af1908115610656579161062e6002926000805160206123c0833981519152979899948b91610639575b506121f3565b91969594888a61056e565b6106509150873d8911610456576104488183611ce9565b8b610628565b87513d8a823e3d90fd5b839150346104ec5760203660031901126104ec5761067c611c86565b90835460ff8160081c1615918280936107c0575b80156107a9575b1561074f575060ff19811660011785558161073e575b508354916106d260ff8460081c166106c48161207d565b6106cd8161207d565b61207d565b60016065556001600160601b0360a01b903382609754161760975560018060a01b0316906098541617609855610706578280f35b61ff001916825551600181527f7f26b83ff96e1f2b6a682f133852f6798a09c465da95921460cefb384740249890602090a181808280f35b61ffff1916610101178455846106ad565b608490602086519162461bcd60e51b8352820152602e60248201527f496e697469616c697a61626c653a20636f6e747261637420697320616c72656160448201526d191e481a5b9a5d1a585b1a5e995960921b6064820152fd5b50303b1580156106975750600160ff831614610697565b50600160ff831610610690565b905082346104ec57806003193601126104ec576107e8611c86565b6024359160018060a01b039183838216958688526020946099865261081560ff6002878c20015416612139565b338952609b86526001858a2001888a52865261083760ff868b20541615612185565b82610891575b5050509060026000805160206123c08339815191529392338852609b84526108688389209182612277565b868852600181018452828820600160ff198254161790550182528381872055519283523392a380f35b60985485516323b872dd60e01b815233938101938452306020850152604084019490945286928492908390036060019183918c91165af190811561091b57916108f46002926000805160206123c08339815191529695948a916108fe57506121f3565b919293859161083d565b6109159150863d8811610456576104488183611ce9565b8a610628565b83513d89823e3d90fd5b839150346104ec5760203660031901126104ec57803591338452609960205260ff600282862001541615610a0c57828452609a602052808420600581019283549260ff841660058110156109f9576109c1575050906001809201336001600160601b0360a01b82541617905560ff191617905533907f52476d55ecef5cf13caa64038f297fe6bbf865d9584a98b8722a15a6d5db128f8380a380f35b906020606492519162461bcd60e51b835282015260126024820152715461736b206e6f7420617661696c61626c6560701b6044820152fd5b634e487b7160e01b885260218352602488fd5b906020606492519162461bcd60e51b835282015260146024820152731059d95b9d081b9bdd081c9959da5cdd195c995960621b6044820152fd5b905082346104ec57806003193601126104ec578135610a63611ca1565b818552609a6020528285209060018060a01b0391600195610a8a848884015416331461237e565b83831695868952609960205260ff6002828b2001541615610b3c57505086956007889201938454925b838110610b04575b505050509091929315610af4575b505033907fe3864154f13bb56610560553d549cb6947e9fd199379eefefbeb0f082c6c7ca88480a480f35b610afd91612277565b8380610ac9565b8782610b108389612249565b90549060031b1c1614610b2b57610b2690612303565b610ab3565b509096508891508190508080610abb565b906020606492519162461bcd60e51b8352820152601b60248201527f436f6c6c61626f7261746f72206e6f74207265676973746572656400000000006044820152fd5b828434610ba85781600319360112610ba85760975490516001600160a01b039091168152602090f35b5080fd5b83833461015657602090816003193601126101565783358152609a825282812060018060a01b03918282541694600193848401541690600284015490610bf460038601611da8565b928986015497600660ff600589015416970183519889918891815491610c1983611d6e565b80865292828116908115610cdd5750600114610ca2575b505050610c63969594939291610c4791038a611ce9565b82519a8b528a015288015260e0606088015260e0870190611e4e565b9360808601526005821015610c8f575060a084015282820360c08401528291610c8b91611e4e565b0390f35b634e487b7160e01b815260218652602490fd5b8a52848a208a93505b828410610cc5575050508101820181610c47610c63610c30565b80549484018601949094528b93928501928101610cab565b60ff191686880152505050151560051b82018301905081610c47610c63610c30565b839150346104ec57816003193601126104ec5780359067ffffffffffffffff906024358281116104e857610d369036908301611d27565b91838652602091609a83528587209160018060a01b03906001610d5f838287015416331461237e565b600585019160ff8354166005811015610f5057828114908115610f45575b5015610f0c5760068601918851918211610ef957908291610dac82610da68b9998979654611d6e565b856120f4565b868d601f8411600114610e92579280604497959381938a989693610e87575b501b916000199060031b1c19161790555b600360ff198254161790556098541694015491898951958694859363a9059cbb60e01b8552339085015260248401525af1908115610e7d5794610e4b610e5a927f04576aed55ed132dfaa5e03bbc10500227270d0b188aec79a7bee1202b29396e96978991610e6057506122b7565b51928284938452830190611e4e565b0390a280f35b610e779150853d8711610456576104488183611ce9565b89610261565b85513d88823e3d90fd5b8e0151925038610dcb565b90601f939293198316858352898320925b8d828210610ee457505091839160449896948a98969410610ecb575b5050811b019055610ddc565b8d015160001960f88460031b161c191690558f80610ebf565b83015184558c9a938601939283019201610ea3565b634e487b7160e01b8c526041865260248cfd5b895162461bcd60e51b81528086018890526013602482015272496e76616c6964207461736b2073746174757360681b6044820152606490fd5b60029150148c610d7d565b634e487b7160e01b8c526021865260248cfd5b828434610ba85781600319360112610ba857602090609c549051908152f35b91905034610156578060031936011261015657507f00000000000000000000000000000000000000000000000000000000000000006001600160a01b03163003610fdd57602082516000805160206123e08339815191528152f35b6020608492519162461bcd60e51b8352820152603860248201527f555550535570677261646561626c653a206d757374206e6f742062652063616c60448201527f6c6564207468726f7567682064656c656761746563616c6c00000000000000006064820152fd5b905082806003193601126104ec5761105b611c86565b9060243567ffffffffffffffff81116113475761107b9036908501611d27565b6001600160a01b037f000000000000000000000000000000000000000000000000000000000000000081169291906110b530851415611e8e565b6110d26000805160206123e0833981519152948286541614611eef565b8060975416330361130e577f4910fdfa16fed3260ed0e7147f7cc6da11a60208b5b9406d12a635614ffd91435460ff161561111857505050506111159150611f50565b80f35b82516352d1902d60e01b81526020959394918416919086818981865afa8991816112db575b5061119c57855162461bcd60e51b8152808901889052602e60248201527f45524331393637557067726164653a206e657720696d706c656d656e7461746960448201526d6f6e206973206e6f74205555505360901b6064820152608490fd5b969192959493960361128657506111b285611f50565b7fbc7cd75a20ee27fd9adebab32041f755214dbc6bffa90cc0225b39da2e5c2d3b8680a282511580159061127e575b6111ed575b5050505080f35b61126a9385808351956111ff87611cb7565b602787527f416464726573733a206c6f772d6c6576656c2064656c65676174652063616c6c86880152660819985a5b195960ca1b858801528581519101845af4913d15611274573d61125c61125382611d0b565b92519283611ce9565b81528681943d92013e611fe0565b50818080806111e6565b5060609250611fe0565b5060016111e1565b825162461bcd60e51b8152908101849052602960248201527f45524331393637557067726164653a20756e737570706f727465642070726f786044820152681a58589b195555525160ba1b6064820152608490fd5b9091508781813d8311611307575b6112f38183611ce9565b810103126113035751908a61113d565b8980fd5b503d6112e9565b825162461bcd60e51b81526020818801526013602482015272556e617574686f72697a65642041636365737360681b6044820152606490fd5b8480fd5b905082346104ec5760208060031936011261164257611368611c86565b916001600160a01b037f000000000000000000000000000000000000000000000000000000000000000081166113a030821415611e8e565b6113bd6000805160206123e0833981519152918383541614611eef565b81609754163303611609578251908482019282841067ffffffffffffffff8511176115f6578385528883527f4910fdfa16fed3260ed0e7147f7cc6da11a60208b5b9406d12a635614ffd91435460ff1615611422575050505050506111159150611f50565b869293949596169085516352d1902d60e01b815287818a81865afa8a91816115c3575b506114a457865162461bcd60e51b8152808a01899052602e60248201527f45524331393637557067726164653a206e657720696d706c656d656e7461746960448201526d6f6e206973206e6f74205555505360901b6064820152608490fd5b97919293969594970361156e57506114bb82611f50565b7fbc7cd75a20ee27fd9adebab32041f755214dbc6bffa90cc0225b39da2e5c2d3b8780a285845115801590611567575b6114f9575b50505050505080f35b8061155b9684519661150a88611cb7565b602788527f416464726573733a206c6f772d6c6576656c2064656c65676174652063616c6c87890152660819985a5b195960ca1b868901525190845af4913d15611274573d61125c61125382611d0b565b508180808080856114f0565b50806114eb565b835162461bcd60e51b8152908101859052602960248201527f45524331393637557067726164653a20756e737570706f727465642070726f786044820152681a58589b195555525160ba1b6064820152608490fd5b9091508881813d83116115ef575b6115db8183611ce9565b810103126115eb5751908b611445565b8a80fd5b503d6115d1565b634e487b7160e01b895260418852602489fd5b825162461bcd60e51b81528087018590526013602482015272556e617574686f72697a65642041636365737360681b6044820152606490fd5b8380fd5b828434610ba85781600319360112610ba85760985490516001600160a01b039091168152602090f35b905082346104ec57806003193601126104ec5761168a611c86565b9067ffffffffffffffff906024358281116104e8576116ac9036908601611d27565b9260018060a01b0316938486526020926099845260ff600284892001541661181a578587526099845282872091866001600160601b0360a01b84541617835560019182840191875191821161039b57506117108161170a8454611d6e565b846120f4565b8589601f8311600114611790579360649383600394610e5a98947fda816ca2fc37b9eecec62ae8263008ec6be1afb38dc28bc9c7c51d7e348da9c29c9b9a9891611785575b5060001982871b1c191690831b1790555b600282019060ff19825416179055015551928284938452830190611e4e565b90508a01518e611755565b50828a52868a2090601f1983168b5b8181106118055750938584610e5a98947fda816ca2fc37b9eecec62ae8263008ec6be1afb38dc28bc9c7c51d7e348da9c29c9b9a9894600397606499106117ed575b5050811b019055611766565b8c015160001983891b60f8161c191690558e806117e1565b8a83015184559286019291890191890161179f565b5082606492519162461bcd60e51b8352820152601860248201527f4167656e7420616c7265616479207265676973746572656400000000000000006044820152fd5b828434610ba8576080366003190112610ba857611877611c86565b9067ffffffffffffffff604435818111611347576118989036908701611d27565b906064958635936118a7612328565b8492338852602092609b845260019788848b20019760018060a01b0380921698898c52865260ff858c20541615611c44579a8a9b898c999a9b9c526099875260ff8685818c20019a6024359b8c82528a5220541615611c0357338d52609b8752858d209015611b4857505060985484516323b872dd60e01b8152338482019081523060208201526040810189905290928792849291169082908f90829060600103925af1908115611b3e5790611963918c91611b2157506122b7565b609c549661197088612303565b609c55878b52609a8552838b20926001600160601b0360a01b33818654161785558a8c86019182541617905587600285015560038401918051918211611b0e57908b8d84936119c8846102b88f9c9b9a999854611d6e565b8891601f8511600114611a6657937fe04e65a2f2de9844f70a34d2eba1e53ddadaad516fa4d8f5e02ee00df908ebef9a9b95938193829360059a999794611a5b575b50501b916000199060031b1c19161790555b82015501805460ff191689179055519384523393a37f52476d55ecef5cf13caa64038f297fe6bbf865d9584a98b8722a15a6d5db128f8480a360655580f35b015192503880611a0a565b9190601f9b979b9493941984168684528a8420935b818110611ade5750917fe04e65a2f2de9844f70a34d2eba1e53ddadaad516fa4d8f5e02ee00df908ebef9b9c979593918560059a98969410611ac5575b505050811b019055611a1c565b015160001960f88460031b161c19169055388080611ab8565b94969798999b50919499809c9a8294878394015181550195019301918f9492918e9b9998979694929c9a9c611a7b565b634e487b7160e01b8d526041845260248dfd5b611b389150863d8811610456576104488183611ce9565b8c610261565b84513d8d823e3d90fd5b8a8d52600201808752858d2054939750909290915015611baa57888b52845280838b205411600014611b9f57935b84838b208054918203918211611b8c5755611963565b634e487b7160e01b8c526011835260248cfd5b508189205493611b76565b835162461bcd60e51b8152808701869052602e60248201527f4e6f207061796d656e742070726f766964656420616e64206e6f20616c6c6f7760448201526d616e636520617661696c61626c6560901b81840152608490fd5b50845162461bcd60e51b8152808401879052602481018790527f5461736b2074797065206e6f7420737570706f72746564206279206167656e746044820152fd5b845162461bcd60e51b8152808401879052601d60248201527f4167656e74206e6f74207265676973746572656420666f72207573657200000060448201528c90fd5b600435906001600160a01b0382168203611c9c57565b600080fd5b602435906001600160a01b0382168203611c9c57565b6060810190811067ffffffffffffffff821117611cd357604052565b634e487b7160e01b600052604160045260246000fd5b90601f8019910116810190811067ffffffffffffffff821117611cd357604052565b67ffffffffffffffff8111611cd357601f01601f191660200190565b81601f82011215611c9c57803590611d3e82611d0b565b92611d4c6040519485611ce9565b82845260208383010111611c9c57816000926020809301838601378301015290565b90600182811c92168015611d9e575b6020831014611d8857565b634e487b7160e01b600052602260045260246000fd5b91607f1691611d7d565b9060405191826000825492611dbc84611d6e565b908184526001948581169081600014611e2b5750600114611de8575b5050611de692500383611ce9565b565b9093915060005260209081600020936000915b818310611e13575050611de693508201013880611dd8565b85548884018501529485019487945091830191611dfb565b915050611de694506020925060ff191682840152151560051b8201013880611dd8565b919082519283825260005b848110611e7a575050826000602080949584010152601f8019910116010190565b602081830181015184830182015201611e59565b15611e9557565b60405162461bcd60e51b815260206004820152602c60248201527f46756e6374696f6e206d7573742062652063616c6c6564207468726f7567682060448201526b19195b1959d85d1958d85b1b60a21b6064820152608490fd5b15611ef657565b60405162461bcd60e51b815260206004820152602c60248201527f46756e6374696f6e206d7573742062652063616c6c6564207468726f7567682060448201526b6163746976652070726f787960a01b6064820152608490fd5b803b15611f85576000805160206123e083398151915280546001600160a01b0319166001600160a01b03909216919091179055565b60405162461bcd60e51b815260206004820152602d60248201527f455243313936373a206e657720696d706c656d656e746174696f6e206973206e60448201526c1bdd08184818dbdb9d1c9858dd609a1b6064820152608490fd5b919290156120425750815115611ff4575090565b3b15611ffd5790565b60405162461bcd60e51b815260206004820152601d60248201527f416464726573733a2063616c6c20746f206e6f6e2d636f6e74726163740000006044820152606490fd5b8251909150156120555750805190602001fd5b60405162461bcd60e51b815260206004820152908190612079906024830190611e4e565b0390fd5b1561208457565b60405162461bcd60e51b815260206004820152602b60248201527f496e697469616c697a61626c653a20636f6e7472616374206973206e6f74206960448201526a6e697469616c697a696e6760a81b6064820152608490fd5b8181106120e8575050565b600081556001016120dd565b9190601f811161210357505050565b611de6926000526020600020906020601f840160051c8301931061212f575b601f0160051c01906120dd565b9091508190612122565b1561214057565b60405162461bcd60e51b815260206004820152601e60248201527f4167656e74206e6f74207265676973746572656420696e2073797374656d00006044820152606490fd5b1561218c57565b60405162461bcd60e51b815260206004820152602160248201527f4167656e7420616c7265616479207265676973746572656420666f72207573656044820152603960f91b6064820152608490fd5b90816020910312611c9c57518015158103611c9c5790565b156121fa57565b60405162461bcd60e51b815260206004820152602160248201527f5061796d656e7420616c6c6f77616e6365207472616e73666572206661696c656044820152601960fa1b6064820152608490fd5b80548210156122615760005260206000200190600090565b634e487b7160e01b600052603260045260246000fd5b8054600160401b811015611cd35761229491600182018155612249565b819291549060031b9160018060a01b039283811b93849216901b16911916179055565b156122be57565b60405162461bcd60e51b815260206004820152601760248201527f5061796d656e74207472616e73666572206661696c65640000000000000000006044820152606490fd5b60001981146123125760010190565b634e487b7160e01b600052601160045260246000fd5b600260655414612339576002606555565b60405162461bcd60e51b815260206004820152601f60248201527f5265656e7472616e637947756172643a207265656e7472616e742063616c6c006044820152606490fd5b1561238557565b60405162461bcd60e51b8152602060048201526012602482015271139bdd08185cdcda59db9959081859d95b9d60721b6044820152606490fdfeb14eafe918ed2ebe411ca6d11c3ef5c8330bf0979fa0384ef0f26b8ed7b50fbf360894a13ba1a3210667c828492db98dca3e2076cc3735a920a3ca505d382bbca2646970667358221220db7dd659b07e0826fa00f417ae5d75236e6b6f4ea991c0841285e3aa9953090664736f6c63430008110033","opcodes":"PUSH1 0xA0 DUP1 PUSH1 0x40 MSTORE CALLVALUE PUSH2 0xDC JUMPI ADDRESS PUSH1 0x80 MSTORE PUSH1 0x0 SLOAD SWAP1 PUSH1 0xFF DUP3 PUSH1 0x8 SHR AND PUSH2 0x8A JUMPI POP PUSH1 0xFF DUP1 DUP3 AND SUB PUSH2 0x4F JUMPI JUMPDEST PUSH1 0x40 MLOAD PUSH2 0x2435 SWAP1 DUP2 PUSH2 0xE2 DUP3 CODECOPY PUSH1 0x80 MLOAD DUP2 DUP2 DUP2 PUSH2 0xF98 ADD MSTORE DUP2 DUP2 PUSH2 0x1085 ADD MSTORE PUSH2 0x1373 ADD MSTORE RETURN JUMPDEST PUSH1 0xFF SWAP1 DUP2 NOT AND OR PUSH1 0x0 SSTORE PUSH32 0x7F26B83FF96E1F2B6A682F133852F6798A09C465DA95921460CEFB3847402498 PUSH1 0x20 PUSH1 0x40 MLOAD PUSH1 0xFF DUP2 MSTORE LOG1 CODESIZE PUSH2 0x29 JUMP JUMPDEST PUSH3 0x461BCD PUSH1 0xE5 SHL DUP2 MSTORE PUSH1 0x20 PUSH1 0x4 DUP3 ADD MSTORE PUSH1 0x27 PUSH1 0x24 DUP3 ADD MSTORE PUSH32 0x496E697469616C697A61626C653A20636F6E747261637420697320696E697469 PUSH1 0x44 DUP3 ADD MSTORE PUSH7 0x616C697A696E67 PUSH1 0xC8 SHL PUSH1 0x64 DUP3 ADD MSTORE PUSH1 0x84 SWAP1 REVERT JUMPDEST PUSH1 0x0 DUP1 REVERT INVALID PUSH1 0x40 PUSH1 0x80 DUP2 MSTORE PUSH1 0x4 DUP1 CALLDATASIZE LT ISZERO PUSH2 0x14 JUMPI PUSH1 0x0 DUP1 REVERT JUMPDEST PUSH1 0x0 SWAP1 DUP2 CALLDATALOAD PUSH1 0xE0 SHR SWAP1 DUP2 PUSH4 0xCFB932F EQ PUSH2 0x185C JUMPI DUP2 PUSH4 0x22B833D8 EQ PUSH2 0x166F JUMPI DUP2 PUSH4 0x3013CE29 EQ PUSH2 0x1646 JUMPI DUP2 PUSH4 0x3659CFE6 EQ PUSH2 0x134B JUMPI DUP2 PUSH4 0x4F1EF286 EQ PUSH2 0x1045 JUMPI DUP2 PUSH4 0x52D1902D EQ PUSH2 0xF82 JUMPI DUP2 PUSH4 0x58671730 EQ PUSH2 0xF63 JUMPI DUP2 PUSH4 0x7A2CCD35 EQ PUSH2 0xCFF JUMPI DUP2 PUSH4 0x8D977672 EQ PUSH2 0xBAC JUMPI DUP2 PUSH4 0x8DA5CB5B EQ PUSH2 0xB7F JUMPI DUP2 PUSH4 0xB053CEF3 EQ PUSH2 0xA46 JUMPI DUP2 PUSH4 0xB8573185 EQ PUSH2 0x925 JUMPI DUP2 PUSH4 0xC30C4476 EQ PUSH2 0x7CD JUMPI DUP2 PUSH4 0xC4D66DE8 EQ PUSH2 0x660 JUMPI DUP2 PUSH4 0xD174C3E2 EQ PUSH2 0x4F0 JUMPI DUP2 PUSH4 0xDE2DDC59 EQ PUSH2 0x159 JUMPI POP PUSH4 0xFD66091E EQ PUSH2 0xDD JUMPI PUSH1 0x0 DUP1 REVERT JUMPDEST CALLVALUE PUSH2 0x156 JUMPI PUSH1 0x20 CALLDATASIZE PUSH1 0x3 NOT ADD SLT PUSH2 0x156 JUMPI PUSH1 0x1 PUSH1 0x1 PUSH1 0xA0 SHL SUB SWAP1 DUP3 SWAP1 DUP3 PUSH2 0x102 PUSH2 0x1C86 JUMP JUMPDEST AND DUP2 MSTORE PUSH1 0x99 PUSH1 0x20 MSTORE KECCAK256 SWAP1 DUP2 SLOAD AND SWAP1 PUSH2 0x11C PUSH1 0x1 DUP3 ADD PUSH2 0x1DA8 JUMP JUMPDEST SWAP3 PUSH1 0x3 PUSH1 0xFF PUSH1 0x2 DUP5 ADD SLOAD AND SWAP3 ADD SLOAD SWAP1 PUSH2 0x146 DUP2 MLOAD SWAP6 DUP7 SWAP6 DUP7 MSTORE PUSH1 0x80 PUSH1 0x20 DUP8 ADD MSTORE PUSH1 0x80 DUP7 ADD SWAP1 PUSH2 0x1E4E JUMP JUMPDEST SWAP3 ISZERO ISZERO SWAP1 DUP5 ADD MSTORE PUSH1 0x60 DUP4 ADD MSTORE SUB SWAP1 RETURN JUMPDEST DUP1 REVERT JUMPDEST DUP4 SWAP2 POP CALLVALUE PUSH2 0x4EC JUMPI PUSH1 0x80 CALLDATASIZE PUSH1 0x3 NOT ADD SLT PUSH2 0x4EC JUMPI DUP1 CALLDATALOAD SWAP2 PUSH8 0xFFFFFFFFFFFFFFFF SWAP1 PUSH1 0x24 CALLDATALOAD DUP3 DUP2 GT PUSH2 0x4E8 JUMPI PUSH2 0x191 SWAP1 CALLDATASIZE SWAP1 DUP6 ADD PUSH2 0x1D27 JUMP JUMPDEST PUSH1 0x64 CALLDATALOAD SWAP3 DUP1 DUP5 GT PUSH2 0x4E4 JUMPI CALLDATASIZE PUSH1 0x23 DUP6 ADD SLT ISZERO PUSH2 0x4E4 JUMPI DUP4 DUP6 ADD CALLDATALOAD SWAP4 DUP2 DUP6 GT PUSH2 0x4D1 JUMPI DUP5 PUSH1 0x5 SHL DUP5 MLOAD SWAP2 PUSH1 0x20 SWAP7 PUSH2 0x1C9 DUP9 DUP5 ADD DUP6 PUSH2 0x1CE9 JUMP JUMPDEST DUP4 MSTORE DUP7 DUP4 ADD PUSH1 0x24 DUP2 SWAP4 DUP4 ADD ADD SWAP2 CALLDATASIZE DUP4 GT PUSH2 0x4CD JUMPI PUSH1 0x24 ADD SWAP1 JUMPDEST DUP3 DUP3 LT PUSH2 0x4AA JUMPI POP POP POP PUSH2 0x1F4 PUSH2 0x2328 JUMP JUMPDEST PUSH1 0x44 CALLDATALOAD SWAP7 DUP8 ISZERO PUSH2 0x467 JUMPI PUSH1 0x1 DUP1 PUSH1 0xA0 SHL SUB SWAP3 DUP11 DUP9 PUSH2 0x24A DUP7 PUSH1 0x98 SLOAD AND DUP13 DUP12 MLOAD SWAP5 DUP6 DUP1 SWAP5 DUP2 SWAP4 PUSH4 0x23B872DD PUSH1 0xE0 SHL DUP4 MSTORE ADDRESS CALLER DUP13 DUP6 ADD PUSH1 0x40 SWAP2 SWAP5 SWAP4 SWAP3 SWAP5 PUSH1 0x60 DUP3 ADD SWAP6 PUSH1 0x1 DUP1 PUSH1 0xA0 SHL SUB DUP1 SWAP3 AND DUP4 MSTORE AND PUSH1 0x20 DUP3 ADD MSTORE ADD MSTORE JUMP JUMPDEST SUB SWAP3 GAS CALL SWAP1 DUP2 ISZERO PUSH2 0x45D JUMPI SWAP1 PUSH2 0x267 SWAP2 DUP14 SWAP2 PUSH2 0x430 JUMPI JUMPDEST POP PUSH2 0x22B7 JUMP JUMPDEST PUSH1 0x9C SLOAD SWAP9 PUSH2 0x274 DUP11 PUSH2 0x2303 JUMP JUMPDEST PUSH1 0x9C SSTORE DUP10 DUP13 MSTORE PUSH1 0x9A DUP10 MSTORE DUP8 DUP13 KECCAK256 SWAP7 CALLER PUSH1 0x1 PUSH1 0x1 PUSH1 0x60 SHL SUB PUSH1 0xA0 SHL DUP10 SLOAD AND OR DUP9 SSTORE DUP12 PUSH1 0x2 DUP10 ADD SSTORE DUP1 MLOAD DUP8 DUP2 GT PUSH2 0x41D JUMPI DUP1 DUP15 PUSH1 0x3 DUP12 ADD SWAP4 PUSH2 0x2BE DUP4 PUSH2 0x2B8 DUP8 SLOAD PUSH2 0x1D6E JUMP JUMPDEST DUP8 PUSH2 0x20F4 JUMP JUMPDEST DUP14 SWAP2 PUSH1 0x1F DUP5 GT PUSH1 0x1 EQ PUSH2 0x3B9 JUMPI SWAP3 PUSH2 0x3AE JUMPI JUMPDEST POP POP DUP2 PUSH1 0x1 SHL SWAP2 PUSH1 0x0 NOT SWAP1 PUSH1 0x3 SHL SHR NOT AND OR SWAP1 SSTORE JUMPDEST DUP7 DUP4 ADD SSTORE PUSH1 0x5 DUP7 ADD DUP1 SLOAD PUSH1 0xFF NOT AND SWAP1 SSTORE MLOAD SWAP5 DUP6 PUSH2 0x333 JUMPI JUMPDEST DUP11 DUP11 DUP11 PUSH32 0xE04E65A2F2DE9844F70A34D2EBA1E53DDADAAD516FA4D8F5E02EE00DF908EBEF DUP12 DUP12 MLOAD SWAP4 DUP5 MSTORE CALLER SWAP4 LOG3 PUSH1 0x1 PUSH1 0x65 SSTORE DUP1 RETURN JUMPDEST PUSH1 0x7 ADD SWAP4 DUP6 GT PUSH2 0x39B JUMPI PUSH1 0x1 PUSH1 0x40 SHL DUP6 GT PUSH2 0x39B JUMPI POP DUP3 SLOAD DUP5 DUP5 SSTORE DUP1 DUP6 LT PUSH2 0x381 JUMPI JUMPDEST POP SWAP2 DUP9 MSTORE DUP5 DUP9 KECCAK256 SWAP1 DUP9 JUMPDEST DUP5 DUP2 LT PUSH2 0x36D JUMPI DUP1 PUSH2 0x2FE JUMP JUMPDEST DUP4 MLOAD DUP3 AND DUP4 DUP3 ADD SSTORE SWAP3 DUP7 ADD SWAP3 PUSH1 0x1 ADD PUSH2 0x360 JUMP JUMPDEST DUP4 DUP11 MSTORE DUP7 DUP11 KECCAK256 PUSH2 0x395 SWAP2 DUP2 ADD SWAP1 DUP7 ADD PUSH2 0x20DD JUMP JUMPDEST DUP10 PUSH2 0x356 JUMP JUMPDEST PUSH4 0x4E487B71 PUSH1 0xE0 SHL DUP11 MSTORE PUSH1 0x41 SWAP1 MSTORE PUSH1 0x24 DUP10 REVERT JUMPDEST ADD MLOAD SWAP1 POP DUP16 DUP1 PUSH2 0x2D1 JUMP JUMPDEST DUP6 DUP2 MSTORE DUP15 DUP2 KECCAK256 SWAP4 POP PUSH1 0x1F NOT DUP6 AND SWAP1 DUP16 JUMPDEST DUP3 DUP3 LT PUSH2 0x406 JUMPI POP POP SWAP1 DUP5 PUSH1 0x1 SWAP6 SWAP5 SWAP4 SWAP3 LT PUSH2 0x3ED JUMPI JUMPDEST POP POP POP DUP2 SHL ADD SWAP1 SSTORE PUSH2 0x2E6 JUMP JUMPDEST ADD MLOAD PUSH1 0x0 NOT PUSH1 0xF8 DUP5 PUSH1 0x3 SHL AND SHR NOT AND SWAP1 SSTORE DUP16 DUP1 DUP1 PUSH2 0x3E0 JUMP JUMPDEST PUSH1 0x1 DUP6 SWAP7 DUP3 SWAP4 SWAP7 DUP7 ADD MLOAD DUP2 SSTORE ADD SWAP6 ADD SWAP4 ADD DUP16 PUSH2 0x3C9 JUMP JUMPDEST PUSH4 0x4E487B71 PUSH1 0xE0 SHL DUP15 MSTORE PUSH1 0x41 DUP6 MSTORE PUSH1 0x24 DUP15 REVERT JUMPDEST PUSH2 0x450 SWAP2 POP DUP11 RETURNDATASIZE DUP13 GT PUSH2 0x456 JUMPI JUMPDEST PUSH2 0x448 DUP2 DUP4 PUSH2 0x1CE9 JUMP JUMPDEST DUP2 ADD SWAP1 PUSH2 0x21DB JUMP JUMPDEST DUP14 PUSH2 0x261 JUMP JUMPDEST POP RETURNDATASIZE PUSH2 0x43E JUMP JUMPDEST DUP9 MLOAD RETURNDATASIZE DUP15 DUP3 RETURNDATACOPY RETURNDATASIZE SWAP1 REVERT JUMPDEST DUP6 MLOAD PUSH3 0x461BCD PUSH1 0xE5 SHL DUP2 MSTORE SWAP1 DUP2 ADD DUP8 SWAP1 MSTORE PUSH1 0x18 PUSH1 0x24 DUP3 ADD MSTORE PUSH32 0x5061796D656E74206D75737420626520706F7369746976650000000000000000 PUSH1 0x44 DUP3 ADD MSTORE PUSH1 0x64 SWAP1 REVERT JUMPDEST DUP2 CALLDATALOAD PUSH1 0x1 PUSH1 0x1 PUSH1 0xA0 SHL SUB DUP2 AND DUP2 SUB PUSH2 0x4C9 JUMPI DUP2 MSTORE SWAP1 DUP9 ADD SWAP1 DUP9 ADD PUSH2 0x1E2 JUMP JUMPDEST DUP13 DUP1 REVERT JUMPDEST DUP12 DUP1 REVERT JUMPDEST PUSH4 0x4E487B71 PUSH1 0xE0 SHL DUP9 MSTORE PUSH1 0x41 DUP7 MSTORE PUSH1 0x24 DUP9 REVERT JUMPDEST DUP7 DUP1 REVERT JUMPDEST DUP6 DUP1 REVERT JUMPDEST DUP3 DUP1 REVERT JUMPDEST DUP4 SWAP2 POP CALLVALUE PUSH2 0x4EC JUMPI PUSH1 0x60 CALLDATASIZE PUSH1 0x3 NOT ADD SLT PUSH2 0x4EC JUMPI PUSH2 0x50C PUSH2 0x1C86 JUMP JUMPDEST SWAP1 PUSH2 0x515 PUSH2 0x1CA1 JUMP JUMPDEST SWAP1 PUSH1 0x44 CALLDATALOAD PUSH1 0x1 DUP1 PUSH1 0xA0 SHL SUB SWAP3 DUP4 DUP2 AND SWAP5 DUP6 DUP9 MSTORE PUSH1 0x20 SWAP4 PUSH1 0x99 DUP6 MSTORE PUSH2 0x541 PUSH1 0xFF PUSH1 0x2 DUP11 DUP13 KECCAK256 ADD SLOAD AND PUSH2 0x2139 JUMP JUMPDEST DUP9 DUP7 DUP4 AND SWAP7 DUP8 DUP3 MSTORE PUSH1 0x9B DUP8 MSTORE PUSH1 0x1 DUP11 DUP4 KECCAK256 ADD DUP10 DUP4 MSTORE DUP8 MSTORE PUSH2 0x568 PUSH1 0xFF DUP12 DUP5 KECCAK256 SLOAD AND ISZERO PUSH2 0x2185 JUMP JUMPDEST DUP6 PUSH2 0x5C1 JUMPI JUMPDEST POP DUP8 DUP8 PUSH1 0x0 DUP1 MLOAD PUSH1 0x20 PUSH2 0x23C0 DUP4 CODECOPY DUP2 MLOAD SWAP2 MSTORE DUP9 DUP9 DUP14 PUSH1 0x2 DUP11 DUP7 DUP10 MSTORE PUSH1 0x9B DUP6 MSTORE PUSH2 0x59A DUP4 DUP11 KECCAK256 SWAP2 DUP3 PUSH2 0x2277 JUMP JUMPDEST DUP8 DUP10 MSTORE PUSH1 0x1 DUP2 ADD DUP6 MSTORE DUP3 DUP10 KECCAK256 PUSH1 0x1 PUSH1 0xFF NOT DUP3 SLOAD AND OR SWAP1 SSTORE ADD DUP4 MSTORE DUP2 DUP2 DUP9 KECCAK256 SSTORE MLOAD SWAP1 DUP2 MSTORE LOG3 DUP1 RETURN JUMPDEST PUSH1 0x98 SLOAD DUP11 MLOAD PUSH4 0x23B872DD PUSH1 0xE0 SHL DUP2 MSTORE PUSH1 0x1 PUSH1 0x1 PUSH1 0xA0 SHL SUB SWAP6 SWAP1 SWAP6 AND SWAP4 DUP6 ADD SWAP4 DUP5 MSTORE ADDRESS PUSH1 0x20 DUP6 ADD MSTORE PUSH1 0x40 DUP5 ADD DUP8 SWAP1 MSTORE DUP8 SWAP4 DUP6 SWAP4 SWAP1 DUP5 SWAP1 SUB PUSH1 0x60 ADD SWAP3 DUP5 SWAP3 AND GAS CALL SWAP1 DUP2 ISZERO PUSH2 0x656 JUMPI SWAP2 PUSH2 0x62E PUSH1 0x2 SWAP3 PUSH1 0x0 DUP1 MLOAD PUSH1 0x20 PUSH2 0x23C0 DUP4 CODECOPY DUP2 MLOAD SWAP2 MSTORE SWAP8 SWAP9 SWAP10 SWAP5 DUP12 SWAP2 PUSH2 0x639 JUMPI JUMPDEST POP PUSH2 0x21F3 JUMP JUMPDEST SWAP2 SWAP7 SWAP6 SWAP5 DUP9 DUP11 PUSH2 0x56E JUMP JUMPDEST PUSH2 0x650 SWAP2 POP DUP8 RETURNDATASIZE DUP10 GT PUSH2 0x456 JUMPI PUSH2 0x448 DUP2 DUP4 PUSH2 0x1CE9 JUMP JUMPDEST DUP12 PUSH2 0x628 JUMP JUMPDEST DUP8 MLOAD RETURNDATASIZE DUP11 DUP3 RETURNDATACOPY RETURNDATASIZE SWAP1 REVERT JUMPDEST DUP4 SWAP2 POP CALLVALUE PUSH2 0x4EC JUMPI PUSH1 0x20 CALLDATASIZE PUSH1 0x3 NOT ADD SLT PUSH2 0x4EC JUMPI PUSH2 0x67C PUSH2 0x1C86 JUMP JUMPDEST SWAP1 DUP4 SLOAD PUSH1 0xFF DUP2 PUSH1 0x8 SHR AND ISZERO SWAP2 DUP3 DUP1 SWAP4 PUSH2 0x7C0 JUMPI JUMPDEST DUP1 ISZERO PUSH2 0x7A9 JUMPI JUMPDEST ISZERO PUSH2 0x74F JUMPI POP PUSH1 0xFF NOT DUP2 AND PUSH1 0x1 OR DUP6 SSTORE DUP2 PUSH2 0x73E JUMPI JUMPDEST POP DUP4 SLOAD SWAP2 PUSH2 0x6D2 PUSH1 0xFF DUP5 PUSH1 0x8 SHR AND PUSH2 0x6C4 DUP2 PUSH2 0x207D JUMP JUMPDEST PUSH2 0x6CD DUP2 PUSH2 0x207D JUMP JUMPDEST PUSH2 0x207D JUMP JUMPDEST PUSH1 0x1 PUSH1 0x65 SSTORE PUSH1 0x1 PUSH1 0x1 PUSH1 0x60 SHL SUB PUSH1 0xA0 SHL SWAP1 CALLER DUP3 PUSH1 0x97 SLOAD AND OR PUSH1 0x97 SSTORE PUSH1 0x1 DUP1 PUSH1 0xA0 SHL SUB AND SWAP1 PUSH1 0x98 SLOAD AND OR PUSH1 0x98 SSTORE PUSH2 0x706 JUMPI DUP3 DUP1 RETURN JUMPDEST PUSH2 0xFF00 NOT AND DUP3 SSTORE MLOAD PUSH1 0x1 DUP2 MSTORE PUSH32 0x7F26B83FF96E1F2B6A682F133852F6798A09C465DA95921460CEFB3847402498 SWAP1 PUSH1 0x20 SWAP1 LOG1 DUP2 DUP1 DUP3 DUP1 RETURN JUMPDEST PUSH2 0xFFFF NOT AND PUSH2 0x101 OR DUP5 SSTORE DUP5 PUSH2 0x6AD JUMP JUMPDEST PUSH1 0x84 SWAP1 PUSH1 0x20 DUP7 MLOAD SWAP2 PUSH3 0x461BCD PUSH1 0xE5 SHL DUP4 MSTORE DUP3 ADD MSTORE PUSH1 0x2E PUSH1 0x24 DUP3 ADD MSTORE PUSH32 0x496E697469616C697A61626C653A20636F6E747261637420697320616C726561 PUSH1 0x44 DUP3 ADD MSTORE PUSH14 0x191E481A5B9A5D1A585B1A5E9959 PUSH1 0x92 SHL PUSH1 0x64 DUP3 ADD MSTORE REVERT JUMPDEST POP ADDRESS EXTCODESIZE ISZERO DUP1 ISZERO PUSH2 0x697 JUMPI POP PUSH1 0x1 PUSH1 0xFF DUP4 AND EQ PUSH2 0x697 JUMP JUMPDEST POP PUSH1 0x1 PUSH1 0xFF DUP4 AND LT PUSH2 0x690 JUMP JUMPDEST SWAP1 POP DUP3 CALLVALUE PUSH2 0x4EC JUMPI DUP1 PUSH1 0x3 NOT CALLDATASIZE ADD SLT PUSH2 0x4EC JUMPI PUSH2 0x7E8 PUSH2 0x1C86 JUMP JUMPDEST PUSH1 0x24 CALLDATALOAD SWAP2 PUSH1 0x1 DUP1 PUSH1 0xA0 SHL SUB SWAP2 DUP4 DUP4 DUP3 AND SWAP6 DUP7 DUP9 MSTORE PUSH1 0x20 SWAP5 PUSH1 0x99 DUP7 MSTORE PUSH2 0x815 PUSH1 0xFF PUSH1 0x2 DUP8 DUP13 KECCAK256 ADD SLOAD AND PUSH2 0x2139 JUMP JUMPDEST CALLER DUP10 MSTORE PUSH1 0x9B DUP7 MSTORE PUSH1 0x1 DUP6 DUP11 KECCAK256 ADD DUP9 DUP11 MSTORE DUP7 MSTORE PUSH2 0x837 PUSH1 0xFF DUP7 DUP12 KECCAK256 SLOAD AND ISZERO PUSH2 0x2185 JUMP JUMPDEST DUP3 PUSH2 0x891 JUMPI JUMPDEST POP POP POP SWAP1 PUSH1 0x2 PUSH1 0x0 DUP1 MLOAD PUSH1 0x20 PUSH2 0x23C0 DUP4 CODECOPY DUP2 MLOAD SWAP2 MSTORE SWAP4 SWAP3 CALLER DUP9 MSTORE PUSH1 0x9B DUP5 MSTORE PUSH2 0x868 DUP4 DUP10 KECCAK256 SWAP2 DUP3 PUSH2 0x2277 JUMP JUMPDEST DUP7 DUP9 MSTORE PUSH1 0x1 DUP2 ADD DUP5 MSTORE DUP3 DUP9 KECCAK256 PUSH1 0x1 PUSH1 0xFF NOT DUP3 SLOAD AND OR SWAP1 SSTORE ADD DUP3 MSTORE DUP4 DUP2 DUP8 KECCAK256 SSTORE MLOAD SWAP3 DUP4 MSTORE CALLER SWAP3 LOG3 DUP1 RETURN JUMPDEST PUSH1 0x98 SLOAD DUP6 MLOAD PUSH4 0x23B872DD PUSH1 0xE0 SHL DUP2 MSTORE CALLER SWAP4 DUP2 ADD SWAP4 DUP5 MSTORE ADDRESS PUSH1 0x20 DUP6 ADD MSTORE PUSH1 0x40 DUP5 ADD SWAP5 SWAP1 SWAP5 MSTORE DUP7 SWAP3 DUP5 SWAP3 SWAP1 DUP4 SWAP1 SUB PUSH1 0x60 ADD SWAP2 DUP4 SWAP2 DUP13 SWAP2 AND GAS CALL SWAP1 DUP2 ISZERO PUSH2 0x91B JUMPI SWAP2 PUSH2 0x8F4 PUSH1 0x2 SWAP3 PUSH1 0x0 DUP1 MLOAD PUSH1 0x20 PUSH2 0x23C0 DUP4 CODECOPY DUP2 MLOAD SWAP2 MSTORE SWAP7 SWAP6 SWAP5 DUP11 SWAP2 PUSH2 0x8FE JUMPI POP PUSH2 0x21F3 JUMP JUMPDEST SWAP2 SWAP3 SWAP4 DUP6 SWAP2 PUSH2 0x83D JUMP JUMPDEST PUSH2 0x915 SWAP2 POP DUP7 RETURNDATASIZE DUP9 GT PUSH2 0x456 JUMPI PUSH2 0x448 DUP2 DUP4 PUSH2 0x1CE9 JUMP JUMPDEST DUP11 PUSH2 0x628 JUMP JUMPDEST DUP4 MLOAD RETURNDATASIZE DUP10 DUP3 RETURNDATACOPY RETURNDATASIZE SWAP1 REVERT JUMPDEST DUP4 SWAP2 POP CALLVALUE PUSH2 0x4EC JUMPI PUSH1 0x20 CALLDATASIZE PUSH1 0x3 NOT ADD SLT PUSH2 0x4EC JUMPI DUP1 CALLDATALOAD SWAP2 CALLER DUP5 MSTORE PUSH1 0x99 PUSH1 0x20 MSTORE PUSH1 0xFF PUSH1 0x2 DUP3 DUP7 KECCAK256 ADD SLOAD AND ISZERO PUSH2 0xA0C JUMPI DUP3 DUP5 MSTORE PUSH1 0x9A PUSH1 0x20 MSTORE DUP1 DUP5 KECCAK256 PUSH1 0x5 DUP2 ADD SWAP3 DUP4 SLOAD SWAP3 PUSH1 0xFF DUP5 AND PUSH1 0x5 DUP2 LT ISZERO PUSH2 0x9F9 JUMPI PUSH2 0x9C1 JUMPI POP POP SWAP1 PUSH1 0x1 DUP1 SWAP3 ADD CALLER PUSH1 0x1 PUSH1 0x1 PUSH1 0x60 SHL SUB PUSH1 0xA0 SHL DUP3 SLOAD AND OR SWAP1 SSTORE PUSH1 0xFF NOT AND OR SWAP1 SSTORE CALLER SWAP1 PUSH32 0x52476D55ECEF5CF13CAA64038F297FE6BBF865D9584A98B8722A15A6D5DB128F DUP4 DUP1 LOG3 DUP1 RETURN JUMPDEST SWAP1 PUSH1 0x20 PUSH1 0x64 SWAP3 MLOAD SWAP2 PUSH3 0x461BCD PUSH1 0xE5 SHL DUP4 MSTORE DUP3 ADD MSTORE PUSH1 0x12 PUSH1 0x24 DUP3 ADD MSTORE PUSH18 0x5461736B206E6F7420617661696C61626C65 PUSH1 0x70 SHL PUSH1 0x44 DUP3 ADD MSTORE REVERT JUMPDEST PUSH4 0x4E487B71 PUSH1 0xE0 SHL DUP9 MSTORE PUSH1 0x21 DUP4 MSTORE PUSH1 0x24 DUP9 REVERT JUMPDEST SWAP1 PUSH1 0x20 PUSH1 0x64 SWAP3 MLOAD SWAP2 PUSH3 0x461BCD PUSH1 0xE5 SHL DUP4 MSTORE DUP3 ADD MSTORE PUSH1 0x14 PUSH1 0x24 DUP3 ADD MSTORE PUSH20 0x1059D95B9D081B9BDD081C9959DA5CDD195C9959 PUSH1 0x62 SHL PUSH1 0x44 DUP3 ADD MSTORE REVERT JUMPDEST SWAP1 POP DUP3 CALLVALUE PUSH2 0x4EC JUMPI DUP1 PUSH1 0x3 NOT CALLDATASIZE ADD SLT PUSH2 0x4EC JUMPI DUP2 CALLDATALOAD PUSH2 0xA63 PUSH2 0x1CA1 JUMP JUMPDEST DUP2 DUP6 MSTORE PUSH1 0x9A PUSH1 0x20 MSTORE DUP3 DUP6 KECCAK256 SWAP1 PUSH1 0x1 DUP1 PUSH1 0xA0 SHL SUB SWAP2 PUSH1 0x1 SWAP6 PUSH2 0xA8A DUP5 DUP9 DUP5 ADD SLOAD AND CALLER EQ PUSH2 0x237E JUMP JUMPDEST DUP4 DUP4 AND SWAP6 DUP7 DUP10 MSTORE PUSH1 0x99 PUSH1 0x20 MSTORE PUSH1 0xFF PUSH1 0x2 DUP3 DUP12 KECCAK256 ADD SLOAD AND ISZERO PUSH2 0xB3C JUMPI POP POP DUP7 SWAP6 PUSH1 0x7 DUP9 SWAP3 ADD SWAP4 DUP5 SLOAD SWAP3 JUMPDEST DUP4 DUP2 LT PUSH2 0xB04 JUMPI JUMPDEST POP POP POP POP SWAP1 SWAP2 SWAP3 SWAP4 ISZERO PUSH2 0xAF4 JUMPI JUMPDEST POP POP CALLER SWAP1 PUSH32 0xE3864154F13BB56610560553D549CB6947E9FD199379EEFEFBEB0F082C6C7CA8 DUP5 DUP1 LOG4 DUP1 RETURN JUMPDEST PUSH2 0xAFD SWAP2 PUSH2 0x2277 JUMP JUMPDEST DUP4 DUP1 PUSH2 0xAC9 JUMP JUMPDEST DUP8 DUP3 PUSH2 0xB10 DUP4 DUP10 PUSH2 0x2249 JUMP JUMPDEST SWAP1 SLOAD SWAP1 PUSH1 0x3 SHL SHR AND EQ PUSH2 0xB2B JUMPI PUSH2 0xB26 SWAP1 PUSH2 0x2303 JUMP JUMPDEST PUSH2 0xAB3 JUMP JUMPDEST POP SWAP1 SWAP7 POP DUP9 SWAP2 POP DUP2 SWAP1 POP DUP1 DUP1 PUSH2 0xABB JUMP JUMPDEST SWAP1 PUSH1 0x20 PUSH1 0x64 SWAP3 MLOAD SWAP2 PUSH3 0x461BCD PUSH1 0xE5 SHL DUP4 MSTORE DUP3 ADD MSTORE PUSH1 0x1B PUSH1 0x24 DUP3 ADD MSTORE PUSH32 0x436F6C6C61626F7261746F72206E6F7420726567697374657265640000000000 PUSH1 0x44 DUP3 ADD MSTORE REVERT JUMPDEST DUP3 DUP5 CALLVALUE PUSH2 0xBA8 JUMPI DUP2 PUSH1 0x3 NOT CALLDATASIZE ADD SLT PUSH2 0xBA8 JUMPI PUSH1 0x97 SLOAD SWAP1 MLOAD PUSH1 0x1 PUSH1 0x1 PUSH1 0xA0 SHL SUB SWAP1 SWAP2 AND DUP2 MSTORE PUSH1 0x20 SWAP1 RETURN JUMPDEST POP DUP1 REVERT JUMPDEST DUP4 DUP4 CALLVALUE PUSH2 0x156 JUMPI PUSH1 0x20 SWAP1 DUP2 PUSH1 0x3 NOT CALLDATASIZE ADD SLT PUSH2 0x156 JUMPI DUP4 CALLDATALOAD DUP2 MSTORE PUSH1 0x9A DUP3 MSTORE DUP3 DUP2 KECCAK256 PUSH1 0x1 DUP1 PUSH1 0xA0 SHL SUB SWAP2 DUP3 DUP3 SLOAD AND SWAP5 PUSH1 0x1 SWAP4 DUP5 DUP5 ADD SLOAD AND SWAP1 PUSH1 0x2 DUP5 ADD SLOAD SWAP1 PUSH2 0xBF4 PUSH1 0x3 DUP7 ADD PUSH2 0x1DA8 JUMP JUMPDEST SWAP3 DUP10 DUP7 ADD SLOAD SWAP8 PUSH1 0x6 PUSH1 0xFF PUSH1 0x5 DUP10 ADD SLOAD AND SWAP8 ADD DUP4 MLOAD SWAP9 DUP10 SWAP2 DUP9 SWAP2 DUP2 SLOAD SWAP2 PUSH2 0xC19 DUP4 PUSH2 0x1D6E JUMP JUMPDEST DUP1 DUP7 MSTORE SWAP3 DUP3 DUP2 AND SWAP1 DUP2 ISZERO PUSH2 0xCDD JUMPI POP PUSH1 0x1 EQ PUSH2 0xCA2 JUMPI JUMPDEST POP POP POP PUSH2 0xC63 SWAP7 SWAP6 SWAP5 SWAP4 SWAP3 SWAP2 PUSH2 0xC47 SWAP2 SUB DUP11 PUSH2 0x1CE9 JUMP JUMPDEST DUP3 MLOAD SWAP11 DUP12 MSTORE DUP11 ADD MSTORE DUP9 ADD MSTORE PUSH1 0xE0 PUSH1 0x60 DUP9 ADD MSTORE PUSH1 0xE0 DUP8 ADD SWAP1 PUSH2 0x1E4E JUMP JUMPDEST SWAP4 PUSH1 0x80 DUP7 ADD MSTORE PUSH1 0x5 DUP3 LT ISZERO PUSH2 0xC8F JUMPI POP PUSH1 0xA0 DUP5 ADD MSTORE DUP3 DUP3 SUB PUSH1 0xC0 DUP5 ADD MSTORE DUP3 SWAP2 PUSH2 0xC8B SWAP2 PUSH2 0x1E4E JUMP JUMPDEST SUB SWAP1 RETURN JUMPDEST PUSH4 0x4E487B71 PUSH1 0xE0 SHL DUP2 MSTORE PUSH1 0x21 DUP7 MSTORE PUSH1 0x24 SWAP1 REVERT JUMPDEST DUP11 MSTORE DUP5 DUP11 KECCAK256 DUP11 SWAP4 POP JUMPDEST DUP3 DUP5 LT PUSH2 0xCC5 JUMPI POP POP POP DUP2 ADD DUP3 ADD DUP2 PUSH2 0xC47 PUSH2 0xC63 PUSH2 0xC30 JUMP JUMPDEST DUP1 SLOAD SWAP5 DUP5 ADD DUP7 ADD SWAP5 SWAP1 SWAP5 MSTORE DUP12 SWAP4 SWAP3 DUP6 ADD SWAP3 DUP2 ADD PUSH2 0xCAB JUMP JUMPDEST PUSH1 0xFF NOT AND DUP7 DUP9 ADD MSTORE POP POP POP ISZERO ISZERO PUSH1 0x5 SHL DUP3 ADD DUP4 ADD SWAP1 POP DUP2 PUSH2 0xC47 PUSH2 0xC63 PUSH2 0xC30 JUMP JUMPDEST DUP4 SWAP2 POP CALLVALUE PUSH2 0x4EC JUMPI DUP2 PUSH1 0x3 NOT CALLDATASIZE ADD SLT PUSH2 0x4EC JUMPI DUP1 CALLDATALOAD SWAP1 PUSH8 0xFFFFFFFFFFFFFFFF SWAP1 PUSH1 0x24 CALLDATALOAD DUP3 DUP2 GT PUSH2 0x4E8 JUMPI PUSH2 0xD36 SWAP1 CALLDATASIZE SWAP1 DUP4 ADD PUSH2 0x1D27 JUMP JUMPDEST SWAP2 DUP4 DUP7 MSTORE PUSH1 0x20 SWAP2 PUSH1 0x9A DUP4 MSTORE DUP6 DUP8 KECCAK256 SWAP2 PUSH1 0x1 DUP1 PUSH1 0xA0 SHL SUB SWAP1 PUSH1 0x1 PUSH2 0xD5F DUP4 DUP3 DUP8 ADD SLOAD AND CALLER EQ PUSH2 0x237E JUMP JUMPDEST PUSH1 0x5 DUP6 ADD SWAP2 PUSH1 0xFF DUP4 SLOAD AND PUSH1 0x5 DUP2 LT ISZERO PUSH2 0xF50 JUMPI DUP3 DUP2 EQ SWAP1 DUP2 ISZERO PUSH2 0xF45 JUMPI JUMPDEST POP ISZERO PUSH2 0xF0C JUMPI PUSH1 0x6 DUP7 ADD SWAP2 DUP9 MLOAD SWAP2 DUP3 GT PUSH2 0xEF9 JUMPI SWAP1 DUP3 SWAP2 PUSH2 0xDAC DUP3 PUSH2 0xDA6 DUP12 SWAP10 SWAP9 SWAP8 SWAP7 SLOAD PUSH2 0x1D6E JUMP JUMPDEST DUP6 PUSH2 0x20F4 JUMP JUMPDEST DUP7 DUP14 PUSH1 0x1F DUP5 GT PUSH1 0x1 EQ PUSH2 0xE92 JUMPI SWAP3 DUP1 PUSH1 0x44 SWAP8 SWAP6 SWAP4 DUP2 SWAP4 DUP11 SWAP9 SWAP7 SWAP4 PUSH2 0xE87 JUMPI JUMPDEST POP SHL SWAP2 PUSH1 0x0 NOT SWAP1 PUSH1 0x3 SHL SHR NOT AND OR SWAP1 SSTORE JUMPDEST PUSH1 0x3 PUSH1 0xFF NOT DUP3 SLOAD AND OR SWAP1 SSTORE PUSH1 0x98 SLOAD AND SWAP5 ADD SLOAD SWAP2 DUP10 DUP10 MLOAD SWAP6 DUP7 SWAP5 DUP6 SWAP4 PUSH4 0xA9059CBB PUSH1 0xE0 SHL DUP6 MSTORE CALLER SWAP1 DUP6 ADD MSTORE PUSH1 0x24 DUP5 ADD MSTORE GAS CALL SWAP1 DUP2 ISZERO PUSH2 0xE7D JUMPI SWAP5 PUSH2 0xE4B PUSH2 0xE5A SWAP3 PUSH32 0x4576AED55ED132DFAA5E03BBC10500227270D0B188AEC79A7BEE1202B29396E SWAP7 SWAP8 DUP10 SWAP2 PUSH2 0xE60 JUMPI POP PUSH2 0x22B7 JUMP JUMPDEST MLOAD SWAP3 DUP3 DUP5 SWAP4 DUP5 MSTORE DUP4 ADD SWAP1 PUSH2 0x1E4E JUMP JUMPDEST SUB SWAP1 LOG2 DUP1 RETURN JUMPDEST PUSH2 0xE77 SWAP2 POP DUP6 RETURNDATASIZE DUP8 GT PUSH2 0x456 JUMPI PUSH2 0x448 DUP2 DUP4 PUSH2 0x1CE9 JUMP JUMPDEST DUP10 PUSH2 0x261 JUMP JUMPDEST DUP6 MLOAD RETURNDATASIZE DUP9 DUP3 RETURNDATACOPY RETURNDATASIZE SWAP1 REVERT JUMPDEST DUP15 ADD MLOAD SWAP3 POP CODESIZE PUSH2 0xDCB JUMP JUMPDEST SWAP1 PUSH1 0x1F SWAP4 SWAP3 SWAP4 NOT DUP4 AND DUP6 DUP4 MSTORE DUP10 DUP4 KECCAK256 SWAP3 JUMPDEST DUP14 DUP3 DUP3 LT PUSH2 0xEE4 JUMPI POP POP SWAP2 DUP4 SWAP2 PUSH1 0x44 SWAP9 SWAP7 SWAP5 DUP11 SWAP9 SWAP7 SWAP5 LT PUSH2 0xECB JUMPI JUMPDEST POP POP DUP2 SHL ADD SWAP1 SSTORE PUSH2 0xDDC JUMP JUMPDEST DUP14 ADD MLOAD PUSH1 0x0 NOT PUSH1 0xF8 DUP5 PUSH1 0x3 SHL AND SHR NOT AND SWAP1 SSTORE DUP16 DUP1 PUSH2 0xEBF JUMP JUMPDEST DUP4 ADD MLOAD DUP5 SSTORE DUP13 SWAP11 SWAP4 DUP7 ADD SWAP4 SWAP3 DUP4 ADD SWAP3 ADD PUSH2 0xEA3 JUMP JUMPDEST PUSH4 0x4E487B71 PUSH1 0xE0 SHL DUP13 MSTORE PUSH1 0x41 DUP7 MSTORE PUSH1 0x24 DUP13 REVERT JUMPDEST DUP10 MLOAD PUSH3 0x461BCD PUSH1 0xE5 SHL DUP2 MSTORE DUP1 DUP7 ADD DUP9 SWAP1 MSTORE PUSH1 0x13 PUSH1 0x24 DUP3 ADD MSTORE PUSH19 0x496E76616C6964207461736B20737461747573 PUSH1 0x68 SHL PUSH1 0x44 DUP3 ADD MSTORE PUSH1 0x64 SWAP1 REVERT JUMPDEST PUSH1 0x2 SWAP2 POP EQ DUP13 PUSH2 0xD7D JUMP JUMPDEST PUSH4 0x4E487B71 PUSH1 0xE0 SHL DUP13 MSTORE PUSH1 0x21 DUP7 MSTORE PUSH1 0x24 DUP13 REVERT JUMPDEST DUP3 DUP5 CALLVALUE PUSH2 0xBA8 JUMPI DUP2 PUSH1 0x3 NOT CALLDATASIZE ADD SLT PUSH2 0xBA8 JUMPI PUSH1 0x20 SWAP1 PUSH1 0x9C SLOAD SWAP1 MLOAD SWAP1 DUP2 MSTORE RETURN JUMPDEST SWAP2 SWAP1 POP CALLVALUE PUSH2 0x156 JUMPI DUP1 PUSH1 0x3 NOT CALLDATASIZE ADD SLT PUSH2 0x156 JUMPI POP PUSH32 0x0 PUSH1 0x1 PUSH1 0x1 PUSH1 0xA0 SHL SUB AND ADDRESS SUB PUSH2 0xFDD JUMPI PUSH1 0x20 DUP3 MLOAD PUSH1 0x0 DUP1 MLOAD PUSH1 0x20 PUSH2 0x23E0 DUP4 CODECOPY DUP2 MLOAD SWAP2 MSTORE DUP2 MSTORE RETURN JUMPDEST PUSH1 0x20 PUSH1 0x84 SWAP3 MLOAD SWAP2 PUSH3 0x461BCD PUSH1 0xE5 SHL DUP4 MSTORE DUP3 ADD MSTORE PUSH1 0x38 PUSH1 0x24 DUP3 ADD MSTORE PUSH32 0x555550535570677261646561626C653A206D757374206E6F742062652063616C PUSH1 0x44 DUP3 ADD MSTORE PUSH32 0x6C6564207468726F7567682064656C656761746563616C6C0000000000000000 PUSH1 0x64 DUP3 ADD MSTORE REVERT JUMPDEST SWAP1 POP DUP3 DUP1 PUSH1 0x3 NOT CALLDATASIZE ADD SLT PUSH2 0x4EC JUMPI PUSH2 0x105B PUSH2 0x1C86 JUMP JUMPDEST SWAP1 PUSH1 0x24 CALLDATALOAD PUSH8 0xFFFFFFFFFFFFFFFF DUP2 GT PUSH2 0x1347 JUMPI PUSH2 0x107B SWAP1 CALLDATASIZE SWAP1 DUP6 ADD PUSH2 0x1D27 JUMP JUMPDEST PUSH1 0x1 PUSH1 0x1 PUSH1 0xA0 SHL SUB PUSH32 0x0 DUP2 AND SWAP3 SWAP2 SWAP1 PUSH2 0x10B5 ADDRESS DUP6 EQ ISZERO PUSH2 0x1E8E JUMP JUMPDEST PUSH2 0x10D2 PUSH1 0x0 DUP1 MLOAD PUSH1 0x20 PUSH2 0x23E0 DUP4 CODECOPY DUP2 MLOAD SWAP2 MSTORE SWAP5 DUP3 DUP7 SLOAD AND EQ PUSH2 0x1EEF JUMP JUMPDEST DUP1 PUSH1 0x97 SLOAD AND CALLER SUB PUSH2 0x130E JUMPI PUSH32 0x4910FDFA16FED3260ED0E7147F7CC6DA11A60208B5B9406D12A635614FFD9143 SLOAD PUSH1 0xFF AND ISZERO PUSH2 0x1118 JUMPI POP POP POP POP PUSH2 0x1115 SWAP2 POP PUSH2 0x1F50 JUMP JUMPDEST DUP1 RETURN JUMPDEST DUP3 MLOAD PUSH4 0x52D1902D PUSH1 0xE0 SHL DUP2 MSTORE PUSH1 0x20 SWAP6 SWAP4 SWAP5 SWAP2 DUP5 AND SWAP2 SWAP1 DUP7 DUP2 DUP10 DUP2 DUP7 GAS STATICCALL DUP10 SWAP2 DUP2 PUSH2 0x12DB JUMPI JUMPDEST POP PUSH2 0x119C JUMPI DUP6 MLOAD PUSH3 0x461BCD PUSH1 0xE5 SHL DUP2 MSTORE DUP1 DUP10 ADD DUP9 SWAP1 MSTORE PUSH1 0x2E PUSH1 0x24 DUP3 ADD MSTORE PUSH32 0x45524331393637557067726164653A206E657720696D706C656D656E74617469 PUSH1 0x44 DUP3 ADD MSTORE PUSH14 0x6F6E206973206E6F742055555053 PUSH1 0x90 SHL PUSH1 0x64 DUP3 ADD MSTORE PUSH1 0x84 SWAP1 REVERT JUMPDEST SWAP7 SWAP2 SWAP3 SWAP6 SWAP5 SWAP4 SWAP7 SUB PUSH2 0x1286 JUMPI POP PUSH2 0x11B2 DUP6 PUSH2 0x1F50 JUMP JUMPDEST PUSH32 0xBC7CD75A20EE27FD9ADEBAB32041F755214DBC6BFFA90CC0225B39DA2E5C2D3B DUP7 DUP1 LOG2 DUP3 MLOAD ISZERO DUP1 ISZERO SWAP1 PUSH2 0x127E JUMPI JUMPDEST PUSH2 0x11ED JUMPI JUMPDEST POP POP POP POP DUP1 RETURN JUMPDEST PUSH2 0x126A SWAP4 DUP6 DUP1 DUP4 MLOAD SWAP6 PUSH2 0x11FF DUP8 PUSH2 0x1CB7 JUMP JUMPDEST PUSH1 0x27 DUP8 MSTORE PUSH32 0x416464726573733A206C6F772D6C6576656C2064656C65676174652063616C6C DUP7 DUP9 ADD MSTORE PUSH7 0x819985A5B1959 PUSH1 0xCA SHL DUP6 DUP9 ADD MSTORE DUP6 DUP2 MLOAD SWAP2 ADD DUP5 GAS DELEGATECALL SWAP2 RETURNDATASIZE ISZERO PUSH2 0x1274 JUMPI RETURNDATASIZE PUSH2 0x125C PUSH2 0x1253 DUP3 PUSH2 0x1D0B JUMP JUMPDEST SWAP3 MLOAD SWAP3 DUP4 PUSH2 0x1CE9 JUMP JUMPDEST DUP2 MSTORE DUP7 DUP2 SWAP5 RETURNDATASIZE SWAP3 ADD RETURNDATACOPY PUSH2 0x1FE0 JUMP JUMPDEST POP DUP2 DUP1 DUP1 DUP1 PUSH2 0x11E6 JUMP JUMPDEST POP PUSH1 0x60 SWAP3 POP PUSH2 0x1FE0 JUMP JUMPDEST POP PUSH1 0x1 PUSH2 0x11E1 JUMP JUMPDEST DUP3 MLOAD PUSH3 0x461BCD PUSH1 0xE5 SHL DUP2 MSTORE SWAP1 DUP2 ADD DUP5 SWAP1 MSTORE PUSH1 0x29 PUSH1 0x24 DUP3 ADD MSTORE PUSH32 0x45524331393637557067726164653A20756E737570706F727465642070726F78 PUSH1 0x44 DUP3 ADD MSTORE PUSH9 0x1A58589B1955555251 PUSH1 0xBA SHL PUSH1 0x64 DUP3 ADD MSTORE PUSH1 0x84 SWAP1 REVERT JUMPDEST SWAP1 SWAP2 POP DUP8 DUP2 DUP2 RETURNDATASIZE DUP4 GT PUSH2 0x1307 JUMPI JUMPDEST PUSH2 0x12F3 DUP2 DUP4 PUSH2 0x1CE9 JUMP JUMPDEST DUP2 ADD SUB SLT PUSH2 0x1303 JUMPI MLOAD SWAP1 DUP11 PUSH2 0x113D JUMP JUMPDEST DUP10 DUP1 REVERT JUMPDEST POP RETURNDATASIZE PUSH2 0x12E9 JUMP JUMPDEST DUP3 MLOAD PUSH3 0x461BCD PUSH1 0xE5 SHL DUP2 MSTORE PUSH1 0x20 DUP2 DUP9 ADD MSTORE PUSH1 0x13 PUSH1 0x24 DUP3 ADD MSTORE PUSH19 0x556E617574686F72697A656420416363657373 PUSH1 0x68 SHL PUSH1 0x44 DUP3 ADD MSTORE PUSH1 0x64 SWAP1 REVERT JUMPDEST DUP5 DUP1 REVERT JUMPDEST SWAP1 POP DUP3 CALLVALUE PUSH2 0x4EC JUMPI PUSH1 0x20 DUP1 PUSH1 0x3 NOT CALLDATASIZE ADD SLT PUSH2 0x1642 JUMPI PUSH2 0x1368 PUSH2 0x1C86 JUMP JUMPDEST SWAP2 PUSH1 0x1 PUSH1 0x1 PUSH1 0xA0 SHL SUB PUSH32 0x0 DUP2 AND PUSH2 0x13A0 ADDRESS DUP3 EQ ISZERO PUSH2 0x1E8E JUMP JUMPDEST PUSH2 0x13BD PUSH1 0x0 DUP1 MLOAD PUSH1 0x20 PUSH2 0x23E0 DUP4 CODECOPY DUP2 MLOAD SWAP2 MSTORE SWAP2 DUP4 DUP4 SLOAD AND EQ PUSH2 0x1EEF JUMP JUMPDEST DUP2 PUSH1 0x97 SLOAD AND CALLER SUB PUSH2 0x1609 JUMPI DUP3 MLOAD SWAP1 DUP5 DUP3 ADD SWAP3 DUP3 DUP5 LT PUSH8 0xFFFFFFFFFFFFFFFF DUP6 GT OR PUSH2 0x15F6 JUMPI DUP4 DUP6 MSTORE DUP9 DUP4 MSTORE PUSH32 0x4910FDFA16FED3260ED0E7147F7CC6DA11A60208B5B9406D12A635614FFD9143 SLOAD PUSH1 0xFF AND ISZERO PUSH2 0x1422 JUMPI POP POP POP POP POP POP PUSH2 0x1115 SWAP2 POP PUSH2 0x1F50 JUMP JUMPDEST DUP7 SWAP3 SWAP4 SWAP5 SWAP6 SWAP7 AND SWAP1 DUP6 MLOAD PUSH4 0x52D1902D PUSH1 0xE0 SHL DUP2 MSTORE DUP8 DUP2 DUP11 DUP2 DUP7 GAS STATICCALL DUP11 SWAP2 DUP2 PUSH2 0x15C3 JUMPI JUMPDEST POP PUSH2 0x14A4 JUMPI DUP7 MLOAD PUSH3 0x461BCD PUSH1 0xE5 SHL DUP2 MSTORE DUP1 DUP11 ADD DUP10 SWAP1 MSTORE PUSH1 0x2E PUSH1 0x24 DUP3 ADD MSTORE PUSH32 0x45524331393637557067726164653A206E657720696D706C656D656E74617469 PUSH1 0x44 DUP3 ADD MSTORE PUSH14 0x6F6E206973206E6F742055555053 PUSH1 0x90 SHL PUSH1 0x64 DUP3 ADD MSTORE PUSH1 0x84 SWAP1 REVERT JUMPDEST SWAP8 SWAP2 SWAP3 SWAP4 SWAP7 SWAP6 SWAP5 SWAP8 SUB PUSH2 0x156E JUMPI POP PUSH2 0x14BB DUP3 PUSH2 0x1F50 JUMP JUMPDEST PUSH32 0xBC7CD75A20EE27FD9ADEBAB32041F755214DBC6BFFA90CC0225B39DA2E5C2D3B DUP8 DUP1 LOG2 DUP6 DUP5 MLOAD ISZERO DUP1 ISZERO SWAP1 PUSH2 0x1567 JUMPI JUMPDEST PUSH2 0x14F9 JUMPI JUMPDEST POP POP POP POP POP POP DUP1 RETURN JUMPDEST DUP1 PUSH2 0x155B SWAP7 DUP5 MLOAD SWAP7 PUSH2 0x150A DUP9 PUSH2 0x1CB7 JUMP JUMPDEST PUSH1 0x27 DUP9 MSTORE PUSH32 0x416464726573733A206C6F772D6C6576656C2064656C65676174652063616C6C DUP8 DUP10 ADD MSTORE PUSH7 0x819985A5B1959 PUSH1 0xCA SHL DUP7 DUP10 ADD MSTORE MLOAD SWAP1 DUP5 GAS DELEGATECALL SWAP2 RETURNDATASIZE ISZERO PUSH2 0x1274 JUMPI RETURNDATASIZE PUSH2 0x125C PUSH2 0x1253 DUP3 PUSH2 0x1D0B JUMP JUMPDEST POP DUP2 DUP1 DUP1 DUP1 DUP1 DUP6 PUSH2 0x14F0 JUMP JUMPDEST POP DUP1 PUSH2 0x14EB JUMP JUMPDEST DUP4 MLOAD PUSH3 0x461BCD PUSH1 0xE5 SHL DUP2 MSTORE SWAP1 DUP2 ADD DUP6 SWAP1 MSTORE PUSH1 0x29 PUSH1 0x24 DUP3 ADD MSTORE PUSH32 0x45524331393637557067726164653A20756E737570706F727465642070726F78 PUSH1 0x44 DUP3 ADD MSTORE PUSH9 0x1A58589B1955555251 PUSH1 0xBA SHL PUSH1 0x64 DUP3 ADD MSTORE PUSH1 0x84 SWAP1 REVERT JUMPDEST SWAP1 SWAP2 POP DUP9 DUP2 DUP2 RETURNDATASIZE DUP4 GT PUSH2 0x15EF JUMPI JUMPDEST PUSH2 0x15DB DUP2 DUP4 PUSH2 0x1CE9 JUMP JUMPDEST DUP2 ADD SUB SLT PUSH2 0x15EB JUMPI MLOAD SWAP1 DUP12 PUSH2 0x1445 JUMP JUMPDEST DUP11 DUP1 REVERT JUMPDEST POP RETURNDATASIZE PUSH2 0x15D1 JUMP JUMPDEST PUSH4 0x4E487B71 PUSH1 0xE0 SHL DUP10 MSTORE PUSH1 0x41 DUP9 MSTORE PUSH1 0x24 DUP10 REVERT JUMPDEST DUP3 MLOAD PUSH3 0x461BCD PUSH1 0xE5 SHL DUP2 MSTORE DUP1 DUP8 ADD DUP6 SWAP1 MSTORE PUSH1 0x13 PUSH1 0x24 DUP3 ADD MSTORE PUSH19 0x556E617574686F72697A656420416363657373 PUSH1 0x68 SHL PUSH1 0x44 DUP3 ADD MSTORE PUSH1 0x64 SWAP1 REVERT JUMPDEST DUP4 DUP1 REVERT JUMPDEST DUP3 DUP5 CALLVALUE PUSH2 0xBA8 JUMPI DUP2 PUSH1 0x3 NOT CALLDATASIZE ADD SLT PUSH2 0xBA8 JUMPI PUSH1 0x98 SLOAD SWAP1 MLOAD PUSH1 0x1 PUSH1 0x1 PUSH1 0xA0 SHL SUB SWAP1 SWAP2 AND DUP2 MSTORE PUSH1 0x20 SWAP1 RETURN JUMPDEST SWAP1 POP DUP3 CALLVALUE PUSH2 0x4EC JUMPI DUP1 PUSH1 0x3 NOT CALLDATASIZE ADD SLT PUSH2 0x4EC JUMPI PUSH2 0x168A PUSH2 0x1C86 JUMP JUMPDEST SWAP1 PUSH8 0xFFFFFFFFFFFFFFFF SWAP1 PUSH1 0x24 CALLDATALOAD DUP3 DUP2 GT PUSH2 0x4E8 JUMPI PUSH2 0x16AC SWAP1 CALLDATASIZE SWAP1 DUP7 ADD PUSH2 0x1D27 JUMP JUMPDEST SWAP3 PUSH1 0x1 DUP1 PUSH1 0xA0 SHL SUB AND SWAP4 DUP5 DUP7 MSTORE PUSH1 0x20 SWAP3 PUSH1 0x99 DUP5 MSTORE PUSH1 0xFF PUSH1 0x2 DUP5 DUP10 KECCAK256 ADD SLOAD AND PUSH2 0x181A JUMPI DUP6 DUP8 MSTORE PUSH1 0x99 DUP5 MSTORE DUP3 DUP8 KECCAK256 SWAP2 DUP7 PUSH1 0x1 PUSH1 0x1 PUSH1 0x60 SHL SUB PUSH1 0xA0 SHL DUP5 SLOAD AND OR DUP4 SSTORE PUSH1 0x1 SWAP2 DUP3 DUP5 ADD SWAP2 DUP8 MLOAD SWAP2 DUP3 GT PUSH2 0x39B JUMPI POP PUSH2 0x1710 DUP2 PUSH2 0x170A DUP5 SLOAD PUSH2 0x1D6E JUMP JUMPDEST DUP5 PUSH2 0x20F4 JUMP JUMPDEST DUP6 DUP10 PUSH1 0x1F DUP4 GT PUSH1 0x1 EQ PUSH2 0x1790 JUMPI SWAP4 PUSH1 0x64 SWAP4 DUP4 PUSH1 0x3 SWAP5 PUSH2 0xE5A SWAP9 SWAP5 PUSH32 0xDA816CA2FC37B9EECEC62AE8263008EC6BE1AFB38DC28BC9C7C51D7E348DA9C2 SWAP13 SWAP12 SWAP11 SWAP9 SWAP2 PUSH2 0x1785 JUMPI JUMPDEST POP PUSH1 0x0 NOT DUP3 DUP8 SHL SHR NOT AND SWAP1 DUP4 SHL OR SWAP1 SSTORE JUMPDEST PUSH1 0x2 DUP3 ADD SWAP1 PUSH1 0xFF NOT DUP3 SLOAD AND OR SWAP1 SSTORE ADD SSTORE MLOAD SWAP3 DUP3 DUP5 SWAP4 DUP5 MSTORE DUP4 ADD SWAP1 PUSH2 0x1E4E JUMP JUMPDEST SWAP1 POP DUP11 ADD MLOAD DUP15 PUSH2 0x1755 JUMP JUMPDEST POP DUP3 DUP11 MSTORE DUP7 DUP11 KECCAK256 SWAP1 PUSH1 0x1F NOT DUP4 AND DUP12 JUMPDEST DUP2 DUP2 LT PUSH2 0x1805 JUMPI POP SWAP4 DUP6 DUP5 PUSH2 0xE5A SWAP9 SWAP5 PUSH32 0xDA816CA2FC37B9EECEC62AE8263008EC6BE1AFB38DC28BC9C7C51D7E348DA9C2 SWAP13 SWAP12 SWAP11 SWAP9 SWAP5 PUSH1 0x3 SWAP8 PUSH1 0x64 SWAP10 LT PUSH2 0x17ED JUMPI JUMPDEST POP POP DUP2 SHL ADD SWAP1 SSTORE PUSH2 0x1766 JUMP JUMPDEST DUP13 ADD MLOAD PUSH1 0x0 NOT DUP4 DUP10 SHL PUSH1 0xF8 AND SHR NOT AND SWAP1 SSTORE DUP15 DUP1 PUSH2 0x17E1 JUMP JUMPDEST DUP11 DUP4 ADD MLOAD DUP5 SSTORE SWAP3 DUP7 ADD SWAP3 SWAP2 DUP10 ADD SWAP2 DUP10 ADD PUSH2 0x179F JUMP JUMPDEST POP DUP3 PUSH1 0x64 SWAP3 MLOAD SWAP2 PUSH3 0x461BCD PUSH1 0xE5 SHL DUP4 MSTORE DUP3 ADD MSTORE PUSH1 0x18 PUSH1 0x24 DUP3 ADD MSTORE PUSH32 0x4167656E7420616C726561647920726567697374657265640000000000000000 PUSH1 0x44 DUP3 ADD MSTORE REVERT JUMPDEST DUP3 DUP5 CALLVALUE PUSH2 0xBA8 JUMPI PUSH1 0x80 CALLDATASIZE PUSH1 0x3 NOT ADD SLT PUSH2 0xBA8 JUMPI PUSH2 0x1877 PUSH2 0x1C86 JUMP JUMPDEST SWAP1 PUSH8 0xFFFFFFFFFFFFFFFF PUSH1 0x44 CALLDATALOAD DUP2 DUP2 GT PUSH2 0x1347 JUMPI PUSH2 0x1898 SWAP1 CALLDATASIZE SWAP1 DUP8 ADD PUSH2 0x1D27 JUMP JUMPDEST SWAP1 PUSH1 0x64 SWAP6 DUP7 CALLDATALOAD SWAP4 PUSH2 0x18A7 PUSH2 0x2328 JUMP JUMPDEST DUP5 SWAP3 CALLER DUP9 MSTORE PUSH1 0x20 SWAP3 PUSH1 0x9B DUP5 MSTORE PUSH1 0x1 SWAP8 DUP9 DUP5 DUP12 KECCAK256 ADD SWAP8 PUSH1 0x1 DUP1 PUSH1 0xA0 SHL SUB DUP1 SWAP3 AND SWAP9 DUP10 DUP13 MSTORE DUP7 MSTORE PUSH1 0xFF DUP6 DUP13 KECCAK256 SLOAD AND ISZERO PUSH2 0x1C44 JUMPI SWAP11 DUP11 SWAP12 DUP10 DUP13 SWAP10 SWAP11 SWAP12 SWAP13 MSTORE PUSH1 0x99 DUP8 MSTORE PUSH1 0xFF DUP7 DUP6 DUP2 DUP13 KECCAK256 ADD SWAP11 PUSH1 0x24 CALLDATALOAD SWAP12 DUP13 DUP3 MSTORE DUP11 MSTORE KECCAK256 SLOAD AND ISZERO PUSH2 0x1C03 JUMPI CALLER DUP14 MSTORE PUSH1 0x9B DUP8 MSTORE DUP6 DUP14 KECCAK256 SWAP1 ISZERO PUSH2 0x1B48 JUMPI POP POP PUSH1 0x98 SLOAD DUP5 MLOAD PUSH4 0x23B872DD PUSH1 0xE0 SHL DUP2 MSTORE CALLER DUP5 DUP3 ADD SWAP1 DUP2 MSTORE ADDRESS PUSH1 0x20 DUP3 ADD MSTORE PUSH1 0x40 DUP2 ADD DUP10 SWAP1 MSTORE SWAP1 SWAP3 DUP8 SWAP3 DUP5 SWAP3 SWAP2 AND SWAP1 DUP3 SWAP1 DUP16 SWAP1 DUP3 SWAP1 PUSH1 0x60 ADD SUB SWAP3 GAS CALL SWAP1 DUP2 ISZERO PUSH2 0x1B3E JUMPI SWAP1 PUSH2 0x1963 SWAP2 DUP13 SWAP2 PUSH2 0x1B21 JUMPI POP PUSH2 0x22B7 JUMP JUMPDEST PUSH1 0x9C SLOAD SWAP7 PUSH2 0x1970 DUP9 PUSH2 0x2303 JUMP JUMPDEST PUSH1 0x9C SSTORE DUP8 DUP12 MSTORE PUSH1 0x9A DUP6 MSTORE DUP4 DUP12 KECCAK256 SWAP3 PUSH1 0x1 PUSH1 0x1 PUSH1 0x60 SHL SUB PUSH1 0xA0 SHL CALLER DUP2 DUP7 SLOAD AND OR DUP6 SSTORE DUP11 DUP13 DUP7 ADD SWAP2 DUP3 SLOAD AND OR SWAP1 SSTORE DUP8 PUSH1 0x2 DUP6 ADD SSTORE PUSH1 0x3 DUP5 ADD SWAP2 DUP1 MLOAD SWAP2 DUP3 GT PUSH2 0x1B0E JUMPI SWAP1 DUP12 DUP14 DUP5 SWAP4 PUSH2 0x19C8 DUP5 PUSH2 0x2B8 DUP16 SWAP13 SWAP12 SWAP11 SWAP10 SWAP9 SLOAD PUSH2 0x1D6E JUMP JUMPDEST DUP9 SWAP2 PUSH1 0x1F DUP6 GT PUSH1 0x1 EQ PUSH2 0x1A66 JUMPI SWAP4 PUSH32 0xE04E65A2F2DE9844F70A34D2EBA1E53DDADAAD516FA4D8F5E02EE00DF908EBEF SWAP11 SWAP12 SWAP6 SWAP4 DUP2 SWAP4 DUP3 SWAP4 PUSH1 0x5 SWAP11 SWAP10 SWAP8 SWAP5 PUSH2 0x1A5B JUMPI JUMPDEST POP POP SHL SWAP2 PUSH1 0x0 NOT SWAP1 PUSH1 0x3 SHL SHR NOT AND OR SWAP1 SSTORE JUMPDEST DUP3 ADD SSTORE ADD DUP1 SLOAD PUSH1 0xFF NOT AND DUP10 OR SWAP1 SSTORE MLOAD SWAP4 DUP5 MSTORE CALLER SWAP4 LOG3 PUSH32 0x52476D55ECEF5CF13CAA64038F297FE6BBF865D9584A98B8722A15A6D5DB128F DUP5 DUP1 LOG3 PUSH1 0x65 SSTORE DUP1 RETURN JUMPDEST ADD MLOAD SWAP3 POP CODESIZE DUP1 PUSH2 0x1A0A JUMP JUMPDEST SWAP2 SWAP1 PUSH1 0x1F SWAP12 SWAP8 SWAP12 SWAP5 SWAP4 SWAP5 NOT DUP5 AND DUP7 DUP5 MSTORE DUP11 DUP5 KECCAK256 SWAP4 JUMPDEST DUP2 DUP2 LT PUSH2 0x1ADE JUMPI POP SWAP2 PUSH32 0xE04E65A2F2DE9844F70A34D2EBA1E53DDADAAD516FA4D8F5E02EE00DF908EBEF SWAP12 SWAP13 SWAP8 SWAP6 SWAP4 SWAP2 DUP6 PUSH1 0x5 SWAP11 SWAP9 SWAP7 SWAP5 LT PUSH2 0x1AC5 JUMPI JUMPDEST POP POP POP DUP2 SHL ADD SWAP1 SSTORE PUSH2 0x1A1C JUMP JUMPDEST ADD MLOAD PUSH1 0x0 NOT PUSH1 0xF8 DUP5 PUSH1 0x3 SHL AND SHR NOT AND SWAP1 SSTORE CODESIZE DUP1 DUP1 PUSH2 0x1AB8 JUMP JUMPDEST SWAP5 SWAP7 SWAP8 SWAP9 SWAP10 SWAP12 POP SWAP2 SWAP5 SWAP10 DUP1 SWAP13 SWAP11 DUP3 SWAP5 DUP8 DUP4 SWAP5 ADD MLOAD DUP2 SSTORE ADD SWAP6 ADD SWAP4 ADD SWAP2 DUP16 SWAP5 SWAP3 SWAP2 DUP15 SWAP12 SWAP10 SWAP9 SWAP8 SWAP7 SWAP5 SWAP3 SWAP13 SWAP11 SWAP13 PUSH2 0x1A7B JUMP JUMPDEST PUSH4 0x4E487B71 PUSH1 0xE0 SHL DUP14 MSTORE PUSH1 0x41 DUP5 MSTORE PUSH1 0x24 DUP14 REVERT JUMPDEST PUSH2 0x1B38 SWAP2 POP DUP7 RETURNDATASIZE DUP9 GT PUSH2 0x456 JUMPI PUSH2 0x448 DUP2 DUP4 PUSH2 0x1CE9 JUMP JUMPDEST DUP13 PUSH2 0x261 JUMP JUMPDEST DUP5 MLOAD RETURNDATASIZE DUP14 DUP3 RETURNDATACOPY RETURNDATASIZE SWAP1 REVERT JUMPDEST DUP11 DUP14 MSTORE PUSH1 0x2 ADD DUP1 DUP8 MSTORE DUP6 DUP14 KECCAK256 SLOAD SWAP4 SWAP8 POP SWAP1 SWAP3 SWAP1 SWAP2 POP ISZERO PUSH2 0x1BAA JUMPI DUP9 DUP12 MSTORE DUP5 MSTORE DUP1 DUP4 DUP12 KECCAK256 SLOAD GT PUSH1 0x0 EQ PUSH2 0x1B9F JUMPI SWAP4 JUMPDEST DUP5 DUP4 DUP12 KECCAK256 DUP1 SLOAD SWAP2 DUP3 SUB SWAP2 DUP3 GT PUSH2 0x1B8C JUMPI SSTORE PUSH2 0x1963 JUMP JUMPDEST PUSH4 0x4E487B71 PUSH1 0xE0 SHL DUP13 MSTORE PUSH1 0x11 DUP4 MSTORE PUSH1 0x24 DUP13 REVERT JUMPDEST POP DUP2 DUP10 KECCAK256 SLOAD SWAP4 PUSH2 0x1B76 JUMP JUMPDEST DUP4 MLOAD PUSH3 0x461BCD PUSH1 0xE5 SHL DUP2 MSTORE DUP1 DUP8 ADD DUP7 SWAP1 MSTORE PUSH1 0x2E PUSH1 0x24 DUP3 ADD MSTORE PUSH32 0x4E6F207061796D656E742070726F766964656420616E64206E6F20616C6C6F77 PUSH1 0x44 DUP3 ADD MSTORE PUSH14 0x616E636520617661696C61626C65 PUSH1 0x90 SHL DUP2 DUP5 ADD MSTORE PUSH1 0x84 SWAP1 REVERT JUMPDEST POP DUP5 MLOAD PUSH3 0x461BCD PUSH1 0xE5 SHL DUP2 MSTORE DUP1 DUP5 ADD DUP8 SWAP1 MSTORE PUSH1 0x24 DUP2 ADD DUP8 SWAP1 MSTORE PUSH32 0x5461736B2074797065206E6F7420737570706F72746564206279206167656E74 PUSH1 0x44 DUP3 ADD MSTORE REVERT JUMPDEST DUP5 MLOAD PUSH3 0x461BCD PUSH1 0xE5 SHL DUP2 MSTORE DUP1 DUP5 ADD DUP8 SWAP1 MSTORE PUSH1 0x1D PUSH1 0x24 DUP3 ADD MSTORE PUSH32 0x4167656E74206E6F74207265676973746572656420666F722075736572000000 PUSH1 0x44 DUP3 ADD MSTORE DUP13 SWAP1 REVERT JUMPDEST PUSH1 0x4 CALLDATALOAD SWAP1 PUSH1 0x1 PUSH1 0x1 PUSH1 0xA0 SHL SUB DUP3 AND DUP3 SUB PUSH2 0x1C9C JUMPI JUMP JUMPDEST PUSH1 0x0 DUP1 REVERT JUMPDEST PUSH1 0x24 CALLDATALOAD SWAP1 PUSH1 0x1 PUSH1 0x1 PUSH1 0xA0 SHL SUB DUP3 AND DUP3 SUB PUSH2 0x1C9C JUMPI JUMP JUMPDEST PUSH1 0x60 DUP2 ADD SWAP1 DUP2 LT PUSH8 0xFFFFFFFFFFFFFFFF DUP3 GT OR PUSH2 0x1CD3 JUMPI PUSH1 0x40 MSTORE JUMP JUMPDEST PUSH4 0x4E487B71 PUSH1 0xE0 SHL PUSH1 0x0 MSTORE PUSH1 0x41 PUSH1 0x4 MSTORE PUSH1 0x24 PUSH1 0x0 REVERT JUMPDEST SWAP1 PUSH1 0x1F DUP1 NOT SWAP2 ADD AND DUP2 ADD SWAP1 DUP2 LT PUSH8 0xFFFFFFFFFFFFFFFF DUP3 GT OR PUSH2 0x1CD3 JUMPI PUSH1 0x40 MSTORE JUMP JUMPDEST PUSH8 0xFFFFFFFFFFFFFFFF DUP2 GT PUSH2 0x1CD3 JUMPI PUSH1 0x1F ADD PUSH1 0x1F NOT AND PUSH1 0x20 ADD SWAP1 JUMP JUMPDEST DUP2 PUSH1 0x1F DUP3 ADD SLT ISZERO PUSH2 0x1C9C JUMPI DUP1 CALLDATALOAD SWAP1 PUSH2 0x1D3E DUP3 PUSH2 0x1D0B JUMP JUMPDEST SWAP3 PUSH2 0x1D4C PUSH1 0x40 MLOAD SWAP5 DUP6 PUSH2 0x1CE9 JUMP JUMPDEST DUP3 DUP5 MSTORE PUSH1 0x20 DUP4 DUP4 ADD ADD GT PUSH2 0x1C9C JUMPI DUP2 PUSH1 0x0 SWAP3 PUSH1 0x20 DUP1 SWAP4 ADD DUP4 DUP7 ADD CALLDATACOPY DUP4 ADD ADD MSTORE SWAP1 JUMP JUMPDEST SWAP1 PUSH1 0x1 DUP3 DUP2 SHR SWAP3 AND DUP1 ISZERO PUSH2 0x1D9E JUMPI JUMPDEST PUSH1 0x20 DUP4 LT EQ PUSH2 0x1D88 JUMPI JUMP JUMPDEST PUSH4 0x4E487B71 PUSH1 0xE0 SHL PUSH1 0x0 MSTORE PUSH1 0x22 PUSH1 0x4 MSTORE PUSH1 0x24 PUSH1 0x0 REVERT JUMPDEST SWAP2 PUSH1 0x7F AND SWAP2 PUSH2 0x1D7D JUMP JUMPDEST SWAP1 PUSH1 0x40 MLOAD SWAP2 DUP3 PUSH1 0x0 DUP3 SLOAD SWAP3 PUSH2 0x1DBC DUP5 PUSH2 0x1D6E JUMP JUMPDEST SWAP1 DUP2 DUP5 MSTORE PUSH1 0x1 SWAP5 DUP6 DUP2 AND SWAP1 DUP2 PUSH1 0x0 EQ PUSH2 0x1E2B JUMPI POP PUSH1 0x1 EQ PUSH2 0x1DE8 JUMPI JUMPDEST POP POP PUSH2 0x1DE6 SWAP3 POP SUB DUP4 PUSH2 0x1CE9 JUMP JUMPDEST JUMP JUMPDEST SWAP1 SWAP4 SWAP2 POP PUSH1 0x0 MSTORE PUSH1 0x20 SWAP1 DUP2 PUSH1 0x0 KECCAK256 SWAP4 PUSH1 0x0 SWAP2 JUMPDEST DUP2 DUP4 LT PUSH2 0x1E13 JUMPI POP POP PUSH2 0x1DE6 SWAP4 POP DUP3 ADD ADD CODESIZE DUP1 PUSH2 0x1DD8 JUMP JUMPDEST DUP6 SLOAD DUP9 DUP5 ADD DUP6 ADD MSTORE SWAP5 DUP6 ADD SWAP5 DUP8 SWAP5 POP SWAP2 DUP4 ADD SWAP2 PUSH2 0x1DFB JUMP JUMPDEST SWAP2 POP POP PUSH2 0x1DE6 SWAP5 POP PUSH1 0x20 SWAP3 POP PUSH1 0xFF NOT AND DUP3 DUP5 ADD MSTORE ISZERO ISZERO PUSH1 0x5 SHL DUP3 ADD ADD CODESIZE DUP1 PUSH2 0x1DD8 JUMP JUMPDEST SWAP2 SWAP1 DUP3 MLOAD SWAP3 DUP4 DUP3 MSTORE PUSH1 0x0 JUMPDEST DUP5 DUP2 LT PUSH2 0x1E7A JUMPI POP POP DUP3 PUSH1 0x0 PUSH1 0x20 DUP1 SWAP5 SWAP6 DUP5 ADD ADD MSTORE PUSH1 0x1F DUP1 NOT SWAP2 ADD AND ADD ADD SWAP1 JUMP JUMPDEST PUSH1 0x20 DUP2 DUP4 ADD DUP2 ADD MLOAD DUP5 DUP4 ADD DUP3 ADD MSTORE ADD PUSH2 0x1E59 JUMP JUMPDEST ISZERO PUSH2 0x1E95 JUMPI JUMP JUMPDEST PUSH1 0x40 MLOAD PUSH3 0x461BCD PUSH1 0xE5 SHL DUP2 MSTORE PUSH1 0x20 PUSH1 0x4 DUP3 ADD MSTORE PUSH1 0x2C PUSH1 0x24 DUP3 ADD MSTORE PUSH32 0x46756E6374696F6E206D7573742062652063616C6C6564207468726F75676820 PUSH1 0x44 DUP3 ADD MSTORE PUSH12 0x19195B1959D85D1958D85B1B PUSH1 0xA2 SHL PUSH1 0x64 DUP3 ADD MSTORE PUSH1 0x84 SWAP1 REVERT JUMPDEST ISZERO PUSH2 0x1EF6 JUMPI JUMP JUMPDEST PUSH1 0x40 MLOAD PUSH3 0x461BCD PUSH1 0xE5 SHL DUP2 MSTORE PUSH1 0x20 PUSH1 0x4 DUP3 ADD MSTORE PUSH1 0x2C PUSH1 0x24 DUP3 ADD MSTORE PUSH32 0x46756E6374696F6E206D7573742062652063616C6C6564207468726F75676820 PUSH1 0x44 DUP3 ADD MSTORE PUSH12 0x6163746976652070726F7879 PUSH1 0xA0 SHL PUSH1 0x64 DUP3 ADD MSTORE PUSH1 0x84 SWAP1 REVERT JUMPDEST DUP1 EXTCODESIZE ISZERO PUSH2 0x1F85 JUMPI PUSH1 0x0 DUP1 MLOAD PUSH1 0x20 PUSH2 0x23E0 DUP4 CODECOPY DUP2 MLOAD SWAP2 MSTORE DUP1 SLOAD PUSH1 0x1 PUSH1 0x1 PUSH1 0xA0 SHL SUB NOT AND PUSH1 0x1 PUSH1 0x1 PUSH1 0xA0 SHL SUB SWAP1 SWAP3 AND SWAP2 SWAP1 SWAP2 OR SWAP1 SSTORE JUMP JUMPDEST PUSH1 0x40 MLOAD PUSH3 0x461BCD PUSH1 0xE5 SHL DUP2 MSTORE PUSH1 0x20 PUSH1 0x4 DUP3 ADD MSTORE PUSH1 0x2D PUSH1 0x24 DUP3 ADD MSTORE PUSH32 0x455243313936373A206E657720696D706C656D656E746174696F6E206973206E PUSH1 0x44 DUP3 ADD MSTORE PUSH13 0x1BDD08184818DBDB9D1C9858DD PUSH1 0x9A SHL PUSH1 0x64 DUP3 ADD MSTORE PUSH1 0x84 SWAP1 REVERT JUMPDEST SWAP2 SWAP3 SWAP1 ISZERO PUSH2 0x2042 JUMPI POP DUP2 MLOAD ISZERO PUSH2 0x1FF4 JUMPI POP SWAP1 JUMP JUMPDEST EXTCODESIZE ISZERO PUSH2 0x1FFD JUMPI SWAP1 JUMP JUMPDEST PUSH1 0x40 MLOAD PUSH3 0x461BCD PUSH1 0xE5 SHL DUP2 MSTORE PUSH1 0x20 PUSH1 0x4 DUP3 ADD MSTORE PUSH1 0x1D PUSH1 0x24 DUP3 ADD MSTORE PUSH32 0x416464726573733A2063616C6C20746F206E6F6E2D636F6E7472616374000000 PUSH1 0x44 DUP3 ADD MSTORE PUSH1 0x64 SWAP1 REVERT JUMPDEST DUP3 MLOAD SWAP1 SWAP2 POP ISZERO PUSH2 0x2055 JUMPI POP DUP1 MLOAD SWAP1 PUSH1 0x20 ADD REVERT JUMPDEST PUSH1 0x40 MLOAD PUSH3 0x461BCD PUSH1 0xE5 SHL DUP2 MSTORE PUSH1 0x20 PUSH1 0x4 DUP3 ADD MSTORE SWAP1 DUP2 SWAP1 PUSH2 0x2079 SWAP1 PUSH1 0x24 DUP4 ADD SWAP1 PUSH2 0x1E4E JUMP JUMPDEST SUB SWAP1 REVERT JUMPDEST ISZERO PUSH2 0x2084 JUMPI JUMP JUMPDEST PUSH1 0x40 MLOAD PUSH3 0x461BCD PUSH1 0xE5 SHL DUP2 MSTORE PUSH1 0x20 PUSH1 0x4 DUP3 ADD MSTORE PUSH1 0x2B PUSH1 0x24 DUP3 ADD MSTORE PUSH32 0x496E697469616C697A61626C653A20636F6E7472616374206973206E6F742069 PUSH1 0x44 DUP3 ADD MSTORE PUSH11 0x6E697469616C697A696E67 PUSH1 0xA8 SHL PUSH1 0x64 DUP3 ADD MSTORE PUSH1 0x84 SWAP1 REVERT JUMPDEST DUP2 DUP2 LT PUSH2 0x20E8 JUMPI POP POP JUMP JUMPDEST PUSH1 0x0 DUP2 SSTORE PUSH1 0x1 ADD PUSH2 0x20DD JUMP JUMPDEST SWAP2 SWAP1 PUSH1 0x1F DUP2 GT PUSH2 0x2103 JUMPI POP POP POP JUMP JUMPDEST PUSH2 0x1DE6 SWAP3 PUSH1 0x0 MSTORE PUSH1 0x20 PUSH1 0x0 KECCAK256 SWAP1 PUSH1 0x20 PUSH1 0x1F DUP5 ADD PUSH1 0x5 SHR DUP4 ADD SWAP4 LT PUSH2 0x212F JUMPI JUMPDEST PUSH1 0x1F ADD PUSH1 0x5 SHR ADD SWAP1 PUSH2 0x20DD JUMP JUMPDEST SWAP1 SWAP2 POP DUP2 SWAP1 PUSH2 0x2122 JUMP JUMPDEST ISZERO PUSH2 0x2140 JUMPI JUMP JUMPDEST PUSH1 0x40 MLOAD PUSH3 0x461BCD PUSH1 0xE5 SHL DUP2 MSTORE PUSH1 0x20 PUSH1 0x4 DUP3 ADD MSTORE PUSH1 0x1E PUSH1 0x24 DUP3 ADD MSTORE PUSH32 0x4167656E74206E6F74207265676973746572656420696E2073797374656D0000 PUSH1 0x44 DUP3 ADD MSTORE PUSH1 0x64 SWAP1 REVERT JUMPDEST ISZERO PUSH2 0x218C JUMPI JUMP JUMPDEST PUSH1 0x40 MLOAD PUSH3 0x461BCD PUSH1 0xE5 SHL DUP2 MSTORE PUSH1 0x20 PUSH1 0x4 DUP3 ADD MSTORE PUSH1 0x21 PUSH1 0x24 DUP3 ADD MSTORE PUSH32 0x4167656E7420616C7265616479207265676973746572656420666F7220757365 PUSH1 0x44 DUP3 ADD MSTORE PUSH1 0x39 PUSH1 0xF9 SHL PUSH1 0x64 DUP3 ADD MSTORE PUSH1 0x84 SWAP1 REVERT JUMPDEST SWAP1 DUP2 PUSH1 0x20 SWAP2 SUB SLT PUSH2 0x1C9C JUMPI MLOAD DUP1 ISZERO ISZERO DUP2 SUB PUSH2 0x1C9C JUMPI SWAP1 JUMP JUMPDEST ISZERO PUSH2 0x21FA JUMPI JUMP JUMPDEST PUSH1 0x40 MLOAD PUSH3 0x461BCD PUSH1 0xE5 SHL DUP2 MSTORE PUSH1 0x20 PUSH1 0x4 DUP3 ADD MSTORE PUSH1 0x21 PUSH1 0x24 DUP3 ADD MSTORE PUSH32 0x5061796D656E7420616C6C6F77616E6365207472616E73666572206661696C65 PUSH1 0x44 DUP3 ADD MSTORE PUSH1 0x19 PUSH1 0xFA SHL PUSH1 0x64 DUP3 ADD MSTORE PUSH1 0x84 SWAP1 REVERT JUMPDEST DUP1 SLOAD DUP3 LT ISZERO PUSH2 0x2261 JUMPI PUSH1 0x0 MSTORE PUSH1 0x20 PUSH1 0x0 KECCAK256 ADD SWAP1 PUSH1 0x0 SWAP1 JUMP JUMPDEST PUSH4 0x4E487B71 PUSH1 0xE0 SHL PUSH1 0x0 MSTORE PUSH1 0x32 PUSH1 0x4 MSTORE PUSH1 0x24 PUSH1 0x0 REVERT JUMPDEST DUP1 SLOAD PUSH1 0x1 PUSH1 0x40 SHL DUP2 LT ISZERO PUSH2 0x1CD3 JUMPI PUSH2 0x2294 SWAP2 PUSH1 0x1 DUP3 ADD DUP2 SSTORE PUSH2 0x2249 JUMP JUMPDEST DUP2 SWAP3 SWAP2 SLOAD SWAP1 PUSH1 0x3 SHL SWAP2 PUSH1 0x1 DUP1 PUSH1 0xA0 SHL SUB SWAP3 DUP4 DUP2 SHL SWAP4 DUP5 SWAP3 AND SWAP1 SHL AND SWAP2 NOT AND OR SWAP1 SSTORE JUMP JUMPDEST ISZERO PUSH2 0x22BE JUMPI JUMP JUMPDEST PUSH1 0x40 MLOAD PUSH3 0x461BCD PUSH1 0xE5 SHL DUP2 MSTORE PUSH1 0x20 PUSH1 0x4 DUP3 ADD MSTORE PUSH1 0x17 PUSH1 0x24 DUP3 ADD MSTORE PUSH32 0x5061796D656E74207472616E73666572206661696C6564000000000000000000 PUSH1 0x44 DUP3 ADD MSTORE PUSH1 0x64 SWAP1 REVERT JUMPDEST PUSH1 0x0 NOT DUP2 EQ PUSH2 0x2312 JUMPI PUSH1 0x1 ADD SWAP1 JUMP JUMPDEST PUSH4 0x4E487B71 PUSH1 0xE0 SHL PUSH1 0x0 MSTORE PUSH1 0x11 PUSH1 0x4 MSTORE PUSH1 0x24 PUSH1 0x0 REVERT JUMPDEST PUSH1 0x2 PUSH1 0x65 SLOAD EQ PUSH2 0x2339 JUMPI PUSH1 0x2 PUSH1 0x65 SSTORE JUMP JUMPDEST PUSH1 0x40 MLOAD PUSH3 0x461BCD PUSH1 0xE5 SHL DUP2 MSTORE PUSH1 0x20 PUSH1 0x4 DUP3 ADD MSTORE PUSH1 0x1F PUSH1 0x24 DUP3 ADD MSTORE PUSH32 0x5265656E7472616E637947756172643A207265656E7472616E742063616C6C00 PUSH1 0x44 DUP3 ADD MSTORE PUSH1 0x64 SWAP1 REVERT JUMPDEST ISZERO PUSH2 0x2385 JUMPI JUMP JUMPDEST PUSH1 0x40 MLOAD PUSH3 0x461BCD PUSH1 0xE5 SHL DUP2 MSTORE PUSH1 0x20 PUSH1 0x4 DUP3 ADD MSTORE PUSH1 0x12 PUSH1 0x24 DUP3 ADD MSTORE PUSH18 0x139BDD08185CDCDA59DB9959081859D95B9D PUSH1 0x72 SHL PUSH1 0x44 DUP3 ADD MSTORE PUSH1 0x64 SWAP1 REVERT INVALID 0xB1 0x4E 0xAF 0xE9 XOR 0xED 0x2E 0xBE COINBASE SHR 0xA6 0xD1 SHR RETURNDATACOPY CREATE2 0xC8 CALLER SIGNEXTEND CREATE SWAP8 SWAP16 LOG0 CODESIZE 0x4E CREATE CALLCODE PUSH12 0x8ED7B50FBF360894A13BA1A3 0x21 MOD PUSH8 0xC828492DB98DCA3E KECCAK256 PUSH23 0xCC3735A920A3CA505D382BBCA2646970667358221220DB PUSH30 0xD659B07E0826FA00F417AE5D75236E6B6F4EA991C0841285E3AA99530906 PUSH5 0x736F6C6343 STOP ADDMOD GT STOP CALLER "},"gasEstimates":{"creation":{"codeDepositCost":"1853800","executionCost":"infinite","totalCost":"infinite"},"external":{"agents(address)":"infinite","assignTask(uint256)":"52707","completeTask(uint256,bytes)":"infinite","createTask(bytes32,string,uint256,address[])":"infinite","executeAgentTask(address,bytes32,string,uint256)":"infinite","initialize(address)":"infinite","owner()":"2493","paymentToken()":"2339","proxiableUUID()":"infinite","registerAgent(address,string)":"infinite","registerAgentForOtherUser(address,address,uint256)":"infinite","registerAgentForUser(address,uint256)":"infinite","requestCollaboration(uint256,address)":"infinite","taskCounter()":"2406","tasks(uint256)":"infinite","upgradeTo(address)":"infinite","upgradeToAndCall(address,bytes)":"infinite"},"internal":{"_authorizeUpgrade(address)":"infinite"}},"methodIdentifiers":{"agents(address)":"fd66091e","assignTask(uint256)":"b8573185","completeTask(uint256,bytes)":"7a2ccd35","createTask(bytes32,string,uint256,address[])":"de2ddc59","executeAgentTask(address,bytes32,string,uint256)":"0cfb932f","initialize(address)":"c4d66de8","owner()":"8da5cb5b","paymentToken()":"3013ce29","proxiableUUID()":"52d1902d","registerAgent(address,string)":"22b833d8","registerAgentForOtherUser(address,address,uint256)":"d174c3e2","registerAgentForUser(address,uint256)":"c30c4476","requestCollaboration(uint256,address)":"b053cef3","taskCounter()":"58671730","tasks(uint256)":"8d977672","upgradeTo(address)":"3659cfe6","upgradeToAndCall(address,bytes)":"4f1ef286"}},"storageLayout":{"storage":[{"astId":371,"contract":"contracts/WWANProtocol.sol:WWANProtocol","label":"_initialized","offset":0,"slot":"0","type":"t_uint8"},{"astId":374,"contract":"contracts/WWANProtocol.sol:WWANProtocol","label":"_initializing","offset":1,"slot":"0","type":"t_bool"},{"astId":353,"contract":"contracts/WWANProtocol.sol:WWANProtocol","label":"__gap","offset":0,"slot":"1","type":"t_array(t_uint256)50_storage"},{"astId":668,"contract":"contracts/WWANProtocol.sol:WWANProtocol","label":"__gap","offset":0,"slot":"51","type":"t_array(t_uint256)50_storage"},{"astId":683,"contract":"contracts/WWANProtocol.sol:WWANProtocol","label":"_status","offset":0,"slot":"101","type":"t_uint256"},{"astId":752,"contract":"contracts/WWANProtocol.sol:WWANProtocol","label":"__gap","offset":0,"slot":"102","type":"t_array(t_uint256)49_storage"},{"astId":1285,"contract":"contracts/WWANProtocol.sol:WWANProtocol","label":"owner","offset":0,"slot":"151","type":"t_address"},{"astId":1288,"contract":"contracts/WWANProtocol.sol:WWANProtocol","label":"paymentToken","offset":0,"slot":"152","type":"t_contract(IERC20Upgradeable)831"},{"astId":1343,"contract":"contracts/WWANProtocol.sol:WWANProtocol","label":"agents","offset":0,"slot":"153","type":"t_mapping(t_address,t_struct(Agent)1301_storage)"},{"astId":1348,"contract":"contracts/WWANProtocol.sol:WWANProtocol","label":"tasks","offset":0,"slot":"154","type":"t_mapping(t_uint256,t_struct(Task)1320_storage)"},{"astId":1353,"contract":"contracts/WWANProtocol.sol:WWANProtocol","label":"userAgents","offset":0,"slot":"155","type":"t_mapping(t_address,t_struct(UserAgentRegistry)1332_storage)"},{"astId":1355,"contract":"contracts/WWANProtocol.sol:WWANProtocol","label":"taskCounter","offset":0,"slot":"156","type":"t_uint256"}],"types":{"t_address":{"encoding":"inplace","label":"address","numberOfBytes":"20"},"t_array(t_address)dyn_storage":{"base":"t_address","encoding":"dynamic_array","label":"address[]","numberOfBytes":"32"},"t_array(t_uint256)49_storage":{"base":"t_uint256","encoding":"inplace","label":"uint256[49]","numberOfBytes":"1568"},"t_array(t_uint256)50_storage":{"base":"t_uint256","encoding":"inplace","label":"uint256[50]","numberOfBytes":"1600"},"t_bool":{"encoding":"inplace","label":"bool","numberOfBytes":"1"},"t_bytes32":{"encoding":"inplace","label":"bytes32","numberOfBytes":"32"},"t_bytes_storage":{"encoding":"bytes","label":"bytes","numberOfBytes":"32"},"t_contract(IERC20Upgradeable)831":{"encoding":"inplace","label":"contract IERC20Upgradeable","numberOfBytes":"20"},"t_enum(TaskStatus)1338":{"encoding":"inplace","label":"enum WWANProtocol.TaskStatus","numberOfBytes":"1"},"t_mapping(t_address,t_bool)":{"encoding":"mapping","key":"t_address","label":"mapping(address => bool)","numberOfBytes":"32","value":"t_bool"},"t_mapping(t_address,t_struct(Agent)1301_storage)":{"encoding":"mapping","key":"t_address","label":"mapping(address => struct WWANProtocol.Agent)","numberOfBytes":"32","value":"t_struct(Agent)1301_storage"},"t_mapping(t_address,t_struct(UserAgentRegistry)1332_storage)":{"encoding":"mapping","key":"t_address","label":"mapping(address => struct WWANProtocol.UserAgentRegistry)","numberOfBytes":"32","value":"t_struct(UserAgentRegistry)1332_storage"},"t_mapping(t_address,t_uint256)":{"encoding":"mapping","key":"t_address","label":"mapping(address => uint256)","numberOfBytes":"32","value":"t_uint256"},"t_mapping(t_bytes32,t_bool)":{"encoding":"mapping","key":"t_bytes32","label":"mapping(bytes32 => bool)","numberOfBytes":"32","value":"t_bool"},"t_mapping(t_uint256,t_struct(Task)1320_storage)":{"encoding":"mapping","key":"t_uint256","label":"mapping(uint256 => struct WWANProtocol.Task)","numberOfBytes":"32","value":"t_struct(Task)1320_storage"},"t_string_storage":{"encoding":"bytes","label":"string","numberOfBytes":"32"},"t_struct(Agent)1301_storage":{"encoding":"inplace","label":"struct WWANProtocol.Agent","members":[{"astId":1290,"contract":"contracts/WWANProtocol.sol:WWANProtocol","label":"agentAddress","offset":0,"slot":"0","type":"t_address"},{"astId":1292,"contract":"contracts/WWANProtocol.sol:WWANProtocol","label":"metadata","offset":0,"slot":"1","type":"t_string_storage"},{"astId":1294,"contract":"contracts/WWANProtocol.sol:WWANProtocol","label":"isActive","offset":0,"slot":"2","type":"t_bool"},{"astId":1296,"contract":"contracts/WWANProtocol.sol:WWANProtocol","label":"reputation","offset":0,"slot":"3","type":"t_uint256"},{"astId":1300,"contract":"contracts/WWANProtocol.sol:WWANProtocol","label":"supportedTaskTypes","offset":0,"slot":"4","type":"t_mapping(t_bytes32,t_bool)"}],"numberOfBytes":"160"},"t_struct(Task)1320_storage":{"encoding":"inplace","label":"struct WWANProtocol.Task","members":[{"astId":1303,"contract":"contracts/WWANProtocol.sol:WWANProtocol","label":"creator","offset":0,"slot":"0","type":"t_address"},{"astId":1305,"contract":"contracts/WWANProtocol.sol:WWANProtocol","label":"assignedAgent","offset":0,"slot":"1","type":"t_address"},{"astId":1307,"contract":"contracts/WWANProtocol.sol:WWANProtocol","label":"taskType","offset":0,"slot":"2","type":"t_bytes32"},{"astId":1309,"contract":"contracts/WWANProtocol.sol:WWANProtocol","label":"taskData","offset":0,"slot":"3","type":"t_string_storage"},{"astId":1311,"contract":"contracts/WWANProtocol.sol:WWANProtocol","label":"payment","offset":0,"slot":"4","type":"t_uint256"},{"astId":1314,"contract":"contracts/WWANProtocol.sol:WWANProtocol","label":"status","offset":0,"slot":"5","type":"t_enum(TaskStatus)1338"},{"astId":1316,"contract":"contracts/WWANProtocol.sol:WWANProtocol","label":"signature","offset":0,"slot":"6","type":"t_bytes_storage"},{"astId":1319,"contract":"contracts/WWANProtocol.sol:WWANProtocol","label":"collaboratingAgents","offset":0,"slot":"7","type":"t_array(t_address)dyn_storage"}],"numberOfBytes":"256"},"t_struct(UserAgentRegistry)1332_storage":{"encoding":"inplace","label":"struct WWANProtocol.UserAgentRegistry","members":[{"astId":1323,"contract":"contracts/WWANProtocol.sol:WWANProtocol","label":"activeAgents","offset":0,"slot":"0","type":"t_array(t_address)dyn_storage"},{"astId":1327,"contract":"contracts/WWANProtocol.sol:WWANProtocol","label":"isRegistered","offset":0,"slot":"1","type":"t_mapping(t_address,t_bool)"},{"astId":1331,"contract":"contracts/WWANProtocol.sol:WWANProtocol","label":"paymentAllowance","offset":0,"slot":"2","type":"t_mapping(t_address,t_uint256)"}],"numberOfBytes":"96"},"t_uint256":{"encoding":"inplace","label":"uint256","numberOfBytes":"32"},"t_uint8":{"encoding":"inplace","label":"uint8","numberOfBytes":"1"}}},"userdoc":{"kind":"user","methods":{},"version":1}}}}