{"contracts/WWANProtocol.sol":{"WWANProtocol":{"abi":[{"inputs":[],"stateMutability":"nonpayable","type":"constructor"},{"anonymous":false,"inputs":[{"indexed":false,"internalType":"address","name":"previousAdmin","type":"address"},{"indexed":false,"internalType":"address","name":"newAdmin","type":"address"}],"name":"AdminChanged","type":"event"},{"anonymous":false,"inputs":[{"indexed":true,"internalType":"address","name":"agentAddress","type":"address"},{"indexed":false,"internalType":"string","name":"metadata","type":"string"}],"name":"AgentRegistered","type":"event"},{"anonymous":false,"inputs":[{"indexed":true,"internalType":"address","name":"user","type":"address"},{"indexed":true,"internalType":"address","name":"agent","type":"address"},{"indexed":false,"internalType":"uint256","name":"allowance","type":"uint256"}],"name":"AgentRegisteredForUser","type":"event"},{"anonymous":false,"inputs":[{"indexed":true,"internalType":"address","name":"beacon","type":"address"}],"name":"BeaconUpgraded","type":"event"},{"anonymous":false,"inputs":[{"indexed":true,"internalType":"uint256","name":"taskId","type":"uint256"},{"indexed":true,"internalType":"address","name":"requestingAgent","type":"address"},{"indexed":true,"internalType":"address","name":"targetAgent","type":"address"}],"name":"CollaborationRequested","type":"event"},{"anonymous":false,"inputs":[{"indexed":false,"internalType":"uint8","name":"version","type":"uint8"}],"name":"Initialized","type":"event"},{"anonymous":false,"inputs":[{"indexed":true,"internalType":"uint256","name":"taskId","type":"uint256"},{"indexed":true,"internalType":"address","name":"agent","type":"address"}],"name":"TaskAssigned","type":"event"},{"anonymous":false,"inputs":[{"indexed":true,"internalType":"uint256","name":"taskId","type":"uint256"},{"indexed":false,"internalType":"bytes","name":"signature","type":"bytes"}],"name":"TaskCompleted","type":"event"},{"anonymous":false,"inputs":[{"indexed":true,"internalType":"uint256","name":"taskId","type":"uint256"},{"indexed":true,"internalType":"address","name":"creator","type":"address"},{"indexed":false,"internalType":"bytes32","name":"taskType","type":"bytes32"}],"name":"TaskCreated","type":"event"},{"anonymous":false,"inputs":[{"indexed":true,"internalType":"address","name":"implementation","type":"address"}],"name":"Upgraded","type":"event"},{"inputs":[{"internalType":"address","name":"","type":"address"}],"name":"agents","outputs":[{"internalType":"address","name":"agentAddress","type":"address"},{"internalType":"string","name":"metadata","type":"string"},{"internalType":"bool","name":"isActive","type":"bool"},{"internalType":"uint256","name":"reputation","type":"uint256"}],"stateMutability":"view","type":"function"},{"inputs":[{"internalType":"uint256","name":"_taskId","type":"uint256"}],"name":"assignTask","outputs":[],"stateMutability":"nonpayable","type":"function"},{"inputs":[{"internalType":"uint256","name":"_taskId","type":"uint256"},{"internalType":"bytes","name":"_signature","type":"bytes"}],"name":"completeTask","outputs":[],"stateMutability":"nonpayable","type":"function"},{"inputs":[{"internalType":"bytes32","name":"_taskType","type":"bytes32"},{"internalType":"string","name":"_taskData","type":"string"},{"internalType":"uint256","name":"_payment","type":"uint256"},{"internalType":"address[]","name":"_collaboratingAgents","type":"address[]"}],"name":"createTask","outputs":[],"stateMutability":"nonpayable","type":"function"},{"inputs":[{"internalType":"address","name":"_agentAddress","type":"address"},{"internalType":"bytes32","name":"_taskType","type":"bytes32"},{"internalType":"string","name":"_taskData","type":"string"},{"internalType":"uint256","name":"_payment","type":"uint256"}],"name":"executeAgentTask","outputs":[],"stateMutability":"nonpayable","type":"function"},{"inputs":[{"internalType":"address","name":"_paymentToken","type":"address"}],"name":"initialize","outputs":[],"stateMutability":"nonpayable","type":"function"},{"inputs":[],"name":"owner","outputs":[{"internalType":"address","name":"","type":"address"}],"stateMutability":"view","type":"function"},{"inputs":[],"name":"paymentToken","outputs":[{"internalType":"contract IERC20Upgradeable","name":"","type":"address"}],"stateMutability":"view","type":"function"},{"inputs":[],"name":"proxiableUUID","outputs":[{"internalType":"bytes32","name":"","type":"bytes32"}],"stateMutability":"view","type":"function"},{"inputs":[{"internalType":"string","name":"_metadata","type":"string"},{"internalType":"bytes32[]","name":"_supportedTaskTypes","type":"bytes32[]"}],"name":"registerAgent","outputs":[],"stateMutability":"nonpayable","type":"function"},{"inputs":[{"internalType":"address","name":"_user","type":"address"},{"internalType":"address","name":"_agentAddress","type":"address"},{"internalType":"uint256","name":"_paymentAllowance","type":"uint256"}],"name":"registerAgentForOtherUser","outputs":[],"stateMutability":"nonpayable","type":"function"},{"inputs":[{"internalType":"address","name":"_agentAddress","type":"address"},{"internalType":"uint256","name":"_paymentAllowance","type":"uint256"}],"name":"registerAgentForUser","outputs":[],"stateMutability":"nonpayable","type":"function"},{"inputs":[{"internalType":"uint256","name":"_taskId","type":"uint256"},{"internalType":"address","name":"_collaboratorAgent","type":"address"}],"name":"requestCollaboration","outputs":[],"stateMutability":"nonpayable","type":"function"},{"inputs":[],"name":"taskCounter","outputs":[{"internalType":"uint256","name":"","type":"uint256"}],"stateMutability":"view","type":"function"},{"inputs":[{"internalType":"uint256","name":"","type":"uint256"}],"name":"tasks","outputs":[{"internalType":"address","name":"creator","type":"address"},{"internalType":"address","name":"assignedAgent","type":"address"},{"internalType":"bytes32","name":"taskType","type":"bytes32"},{"internalType":"string","name":"taskData","type":"string"},{"internalType":"uint256","name":"payment","type":"uint256"},{"internalType":"enum WWANProtocol.TaskStatus","name":"status","type":"uint8"},{"internalType":"bytes","name":"signature","type":"bytes"}],"stateMutability":"view","type":"function"},{"inputs":[{"internalType":"address","name":"newImplementation","type":"address"}],"name":"upgradeTo","outputs":[],"stateMutability":"nonpayable","type":"function"},{"inputs":[{"internalType":"address","name":"newImplementation","type":"address"},{"internalType":"bytes","name":"data","type":"bytes"}],"name":"upgradeToAndCall","outputs":[],"stateMutability":"payable","type":"function"}],"devdoc":{"kind":"dev","methods":{"constructor":{"custom:oz-upgrades-unsafe-allow":"constructor"},"proxiableUUID()":{"details":"Implementation of the ERC1822 {proxiableUUID} function. This returns the storage slot used by the implementation. It is used to validate the implementation's compatibility when performing an upgrade. IMPORTANT: A proxy pointing at a proxiable contract should not be considered proxiable itself, because this risks bricking a proxy that upgrades to it, by delegating to itself until out of gas. Thus it is critical that this function revert if invoked through a proxy. This is guaranteed by the `notDelegated` modifier."},"upgradeTo(address)":{"custom:oz-upgrades-unsafe-allow-reachable":"delegatecall","details":"Upgrade the implementation of the proxy to `newImplementation`. Calls {_authorizeUpgrade}. Emits an {Upgraded} event."},"upgradeToAndCall(address,bytes)":{"custom:oz-upgrades-unsafe-allow-reachable":"delegatecall","details":"Upgrade the implementation of the proxy to `newImplementation`, and subsequently execute the function call encoded in `data`. Calls {_authorizeUpgrade}. Emits an {Upgraded} event."}},"version":1},"evm":{"bytecode":{"linkReferences":{},"object":"60a080604052346100dc57306080526000549060ff8260081c1661008a575060ff8082160361004f575b60405161252a90816100e28239608051818181610fe8015281816110d501526113c30152f35b60ff90811916176000557f7f26b83ff96e1f2b6a682f133852f6798a09c465da95921460cefb3847402498602060405160ff8152a138610029565b62461bcd60e51b815260206004820152602760248201527f496e697469616c697a61626c653a20636f6e747261637420697320696e697469604482015266616c697a696e6760c81b6064820152608490fd5b600080fdfe60406080815260048036101561001457600080fd5b600090813560e01c9081630173051614611ae55781630cfb932f146116bb5781633013ce29146116925781633659cfe61461139b5781634f1ef2861461109557816352d1902d14610fd25781635867173014610fb35781637a2ccd3514610d4f5781638d97767214610bfc5781638da5cb5b14610bcf578163b053cef314610a96578163b857318514610911578163c30c4476146107b9578163c4d66de81461064c578163d174c3e2146104dc578163de2ddc5914610159575063fd66091e146100dd57600080fd5b34610156576020366003190112610156576001600160a01b0390829082610102611e37565b168152609960205220908154169061011c60018201611e9d565b92600360ff6002840154169201549061014681519586958652608060208701526080860190611f43565b9215159084015260608301520390f35b80fd5b839150346104d85760803660031901126104d85780359167ffffffffffffffff906024358281116104d4576101919036908501611dd3565b606435928084116104d057366023850112156104d057838501356101b481611e1f565b906101c185519283611d95565b8082526020958683016024819360051b830101913683116104cc57602401905b8282106104a9575050506101f361241d565b6044359687156104665760018060a01b03928a8861024986609854168c8b519485809481936323b872dd60e01b835230338c850160409194939294606082019560018060a01b0380921683521660208201520152565b03925af190811561045c5790610266918d9161042f575b506123d1565b609c54986102738a61222e565b609c55898c52609a8952878c2096336001600160601b0360a01b8954161788558b6002890155805187811161041c57808e60038b01936102bd836102b78754611e63565b876121e9565b8d91601f84116001146103b857926103ad575b50508160011b916000199060031b1c19161790555b8683015560058601805460ff19169055519485610332575b8a8a8a7fe04e65a2f2de9844f70a34d2eba1e53ddadaad516fa4d8f5e02ee00df908ebef8b8b519384523393a3600160655580f35b60070193851161039a57600160401b851161039a57508254848455808510610380575b5091885284882090885b84811061036c57806102fd565b83518216838201559286019260010161035f565b838a52868a206103949181019086016121d2565b89610355565b634e487b7160e01b8a5260419052602489fd5b015190508f806102d0565b8581528e81209350601f198516908f5b8282106104055750509084600195949392106103ec575b505050811b0190556102e5565b015160001960f88460031b161c191690558f80806103df565b60018596829396860151815501950193018f6103c8565b634e487b7160e01b8e526041855260248efd5b61044f91508a3d8c11610455575b6104478183611d95565b8101906122f5565b8d610260565b503d61043d565b88513d8e823e3d90fd5b855162461bcd60e51b8152908101879052601860248201527f5061796d656e74206d75737420626520706f73697469766500000000000000006044820152606490fd5b81356001600160a01b03811681036104c85781529088019088016101e1565b8c80fd5b8b80fd5b8680fd5b8580fd5b8280fd5b839150346104d85760603660031901126104d8576104f8611e37565b90610501611e4d565b9060443560018060a01b0392838116948588526020936099855261052d60ff60028a8c20015416612253565b8886831696878252609b875260018a832001898352875261055460ff8b842054161561229f565b856105ad575b5087876000805160206124b583398151915288888d60028a868952609b8552610586838a209182612391565b878952600181018552828920600160ff19825416179055018352818188205551908152a380f35b6098548a516323b872dd60e01b81526001600160a01b0395909516938501938452306020850152604084018790528793859390849003606001928492165af1908115610642579161061a6002926000805160206124b5833981519152979899948b91610625575b5061230d565b91969594888a61055a565b61063c9150873d8911610455576104478183611d95565b8b610614565b87513d8a823e3d90fd5b839150346104d85760203660031901126104d857610668611e37565b90835460ff8160081c1615918280936107ac575b8015610795575b1561073b575060ff19811660011785558161072a575b508354916106be60ff8460081c166106b081612172565b6106b981612172565b612172565b60016065556001600160601b0360a01b903382609754161760975560018060a01b03169060985416176098556106f2578280f35b61ff001916825551600181527f7f26b83ff96e1f2b6a682f133852f6798a09c465da95921460cefb384740249890602090a181808280f35b61ffff191661010117845584610699565b608490602086519162461bcd60e51b8352820152602e60248201527f496e697469616c697a61626c653a20636f6e747261637420697320616c72656160448201526d191e481a5b9a5d1a585b1a5e995960921b6064820152fd5b50303b1580156106835750600160ff831614610683565b50600160ff83161061067c565b905082346104d857806003193601126104d8576107d4611e37565b6024359160018060a01b039183838216958688526020946099865261080160ff6002878c20015416612253565b338952609b86526001858a2001888a52865261082360ff868b2054161561229f565b8261087d575b5050509060026000805160206124b58339815191529392338852609b84526108548389209182612391565b868852600181018452828820600160ff198254161790550182528381872055519283523392a380f35b60985485516323b872dd60e01b815233938101938452306020850152604084019490945286928492908390036060019183918c91165af190811561090757916108e06002926000805160206124b58339815191529695948a916108ea575061230d565b9192938591610829565b6109019150863d8811610455576104478183611d95565b8a610614565b83513d89823e3d90fd5b905082346104d85760209081600319360112610a92578235923385526099835260ff600283872001541615610a5a57838552609a835281852090600582019384549360ff85166005811015610a4757610a115733885260998252828189200160028501548952825260ff8189205416156109d057505050906001809201336001600160601b0360a01b82541617905560ff191617905533907f52476d55ecef5cf13caa64038f297fe6bbf865d9584a98b8722a15a6d5db128f8380a380f35b5162461bcd60e51b815291820152601760248201527f5461736b2074797065206e6f7420737570706f72746564000000000000000000604482015260649150fd5b5162461bcd60e51b81529182015260126024820152715461736b206e6f7420617661696c61626c6560701b604482015260649150fd5b634e487b7160e01b895260218452602489fd5b82606492519162461bcd60e51b835282015260146024820152731059d95b9d081b9bdd081c9959da5cdd195c995960621b6044820152fd5b8380fd5b905082346104d857806003193601126104d8578135610ab3611e4d565b818552609a6020528285209060018060a01b0391600195610ada8488840154163314612473565b83831695868952609960205260ff6002828b2001541615610b8c57505086956007889201938454925b838110610b54575b505050509091929315610b44575b505033907fe3864154f13bb56610560553d549cb6947e9fd199379eefefbeb0f082c6c7ca88480a480f35b610b4d91612391565b8380610b19565b8782610b608389612363565b90549060031b1c1614610b7b57610b769061222e565b610b03565b509096508891508190508080610b0b565b906020606492519162461bcd60e51b8352820152601b60248201527f436f6c6c61626f7261746f72206e6f74207265676973746572656400000000006044820152fd5b828434610bf85781600319360112610bf85760975490516001600160a01b039091168152602090f35b5080fd5b83833461015657602090816003193601126101565783358152609a825282812060018060a01b03918282541694600193848401541690600284015490610c4460038601611e9d565b928986015497600660ff600589015416970183519889918891815491610c6983611e63565b80865292828116908115610d2d5750600114610cf2575b505050610cb3969594939291610c9791038a611d95565b82519a8b528a015288015260e0606088015260e0870190611f43565b9360808601526005821015610cdf575060a084015282820360c08401528291610cdb91611f43565b0390f35b634e487b7160e01b815260218652602490fd5b8a52848a208a93505b828410610d15575050508101820181610c97610cb3610c80565b80549484018601949094528b93928501928101610cfb565b60ff191686880152505050151560051b82018301905081610c97610cb3610c80565b839150346104d857816003193601126104d85780359067ffffffffffffffff906024358281116104d457610d869036908301611dd3565b91838652602091609a83528587209160018060a01b03906001610daf8382870154163314612473565b600585019160ff8354166005811015610fa057828114908115610f95575b5015610f5c5760068601918851918211610f4957908291610dfc82610df68b9998979654611e63565b856121e9565b868d601f8411600114610ee2579280604497959381938a989693610ed7575b501b916000199060031b1c19161790555b600360ff198254161790556098541694015491898951958694859363a9059cbb60e01b8552339085015260248401525af1908115610ecd5794610e9b610eaa927f04576aed55ed132dfaa5e03bbc10500227270d0b188aec79a7bee1202b29396e96978991610eb057506123d1565b51928284938452830190611f43565b0390a280f35b610ec79150853d8711610455576104478183611d95565b89610260565b85513d88823e3d90fd5b8e0151925038610e1b565b90601f939293198316858352898320925b8d828210610f3457505091839160449896948a98969410610f1b575b5050811b019055610e2c565b8d015160001960f88460031b161c191690558f80610f0f565b83015184558c9a938601939283019201610ef3565b634e487b7160e01b8c526041865260248cfd5b895162461bcd60e51b81528086018890526013602482015272496e76616c6964207461736b2073746174757360681b6044820152606490fd5b60029150148c610dcd565b634e487b7160e01b8c526021865260248cfd5b828434610bf85781600319360112610bf857602090609c549051908152f35b91905034610156578060031936011261015657507f00000000000000000000000000000000000000000000000000000000000000006001600160a01b0316300361102d57602082516000805160206124d58339815191528152f35b6020608492519162461bcd60e51b8352820152603860248201527f555550535570677261646561626c653a206d757374206e6f742062652063616c60448201527f6c6564207468726f7567682064656c656761746563616c6c00000000000000006064820152fd5b905082806003193601126104d8576110ab611e37565b9060243567ffffffffffffffff8111611397576110cb9036908501611dd3565b6001600160a01b037f0000000000000000000000000000000000000000000000000000000000000000811692919061110530851415611f83565b6111226000805160206124d5833981519152948286541614611fe4565b8060975416330361135e577f4910fdfa16fed3260ed0e7147f7cc6da11a60208b5b9406d12a635614ffd91435460ff161561116857505050506111659150612045565b80f35b82516352d1902d60e01b81526020959394918416919086818981865afa89918161132b575b506111ec57855162461bcd60e51b8152808901889052602e60248201527f45524331393637557067726164653a206e657720696d706c656d656e7461746960448201526d6f6e206973206e6f74205555505360901b6064820152608490fd5b96919295949396036112d6575061120285612045565b7fbc7cd75a20ee27fd9adebab32041f755214dbc6bffa90cc0225b39da2e5c2d3b8680a28251158015906112ce575b61123d575b5050505080f35b6112ba93858083519561124f87611d63565b602787527f416464726573733a206c6f772d6c6576656c2064656c65676174652063616c6c86880152660819985a5b195960ca1b858801528581519101845af4913d156112c4573d6112ac6112a382611db7565b92519283611d95565b81528681943d92013e6120d5565b5081808080611236565b50606092506120d5565b506001611231565b825162461bcd60e51b8152908101849052602960248201527f45524331393637557067726164653a20756e737570706f727465642070726f786044820152681a58589b195555525160ba1b6064820152608490fd5b9091508781813d8311611357575b6113438183611d95565b810103126113535751908a61118d565b8980fd5b503d611339565b825162461bcd60e51b81526020818801526013602482015272556e617574686f72697a65642041636365737360681b6044820152606490fd5b8480fd5b905082346104d857602080600319360112610a92576113b8611e37565b916001600160a01b037f000000000000000000000000000000000000000000000000000000000000000081166113f030821415611f83565b61140d6000805160206124d5833981519152918383541614611fe4565b81609754163303611659578251908482019282841067ffffffffffffffff851117611646578385528883527f4910fdfa16fed3260ed0e7147f7cc6da11a60208b5b9406d12a635614ffd91435460ff1615611472575050505050506111659150612045565b869293949596169085516352d1902d60e01b815287818a81865afa8a9181611613575b506114f457865162461bcd60e51b8152808a01899052602e60248201527f45524331393637557067726164653a206e657720696d706c656d656e7461746960448201526d6f6e206973206e6f74205555505360901b6064820152608490fd5b9791929396959497036115be575061150b82612045565b7fbc7cd75a20ee27fd9adebab32041f755214dbc6bffa90cc0225b39da2e5c2d3b8780a2858451158015906115b7575b611549575b50505050505080f35b806115ab9684519661155a88611d63565b602788527f416464726573733a206c6f772d6c6576656c2064656c65676174652063616c6c87890152660819985a5b195960ca1b868901525190845af4913d156112c4573d6112ac6112a382611db7565b50818080808085611540565b508061153b565b835162461bcd60e51b8152908101859052602960248201527f45524331393637557067726164653a20756e737570706f727465642070726f786044820152681a58589b195555525160ba1b6064820152608490fd5b9091508881813d831161163f575b61162b8183611d95565b8101031261163b5751908b611495565b8a80fd5b503d611621565b634e487b7160e01b895260418852602489fd5b825162461bcd60e51b81528087018590526013602482015272556e617574686f72697a65642041636365737360681b6044820152606490fd5b828434610bf85781600319360112610bf85760985490516001600160a01b039091168152602090f35b828434610bf8576080366003190112610bf8576116d6611e37565b9067ffffffffffffffff604435818111611397576116f79036908701611dd3565b9060649586359361170661241d565b8492338852602092609b845260019788848b20019760018060a01b0380921698898c52865260ff858c20541615611aa3579a8a9b898c999a9b9c526099875260ff8685818c20019a6024359b8c82528a5220541615611a6257338d52609b8752858d2090156119a757505060985484516323b872dd60e01b8152338482019081523060208201526040810189905290928792849291169082908f90829060600103925af190811561199d57906117c2918c9161198057506123d1565b609c54966117cf8861222e565b609c55878b52609a8552838b20926001600160601b0360a01b33818654161785558a8c8601918254161790558760028501556003840191805191821161196d57908b8d8493611827846102b78f9c9b9a999854611e63565b8891601f85116001146118c557937fe04e65a2f2de9844f70a34d2eba1e53ddadaad516fa4d8f5e02ee00df908ebef9a9b95938193829360059a9997946118ba575b50501b916000199060031b1c19161790555b82015501805460ff191689179055519384523393a37f52476d55ecef5cf13caa64038f297fe6bbf865d9584a98b8722a15a6d5db128f8480a360655580f35b015192503880611869565b9190601f9b979b9493941984168684528a8420935b81811061193d5750917fe04e65a2f2de9844f70a34d2eba1e53ddadaad516fa4d8f5e02ee00df908ebef9b9c979593918560059a98969410611924575b505050811b01905561187b565b015160001960f88460031b161c19169055388080611917565b94969798999b50919499809c9a8294878394015181550195019301918f9492918e9b9998979694929c9a9c6118da565b634e487b7160e01b8d526041845260248dfd5b6119979150863d8811610455576104478183611d95565b8c610260565b84513d8d823e3d90fd5b8a8d52600201808752858d2054939750909290915015611a0957888b52845280838b2054116000146119fe57935b84838b2080549182039182116119eb57556117c2565b634e487b7160e01b8c526011835260248cfd5b5081892054936119d5565b835162461bcd60e51b8152808701869052602e60248201527f4e6f207061796d656e742070726f766964656420616e64206e6f20616c6c6f7760448201526d616e636520617661696c61626c6560901b81840152608490fd5b50845162461bcd60e51b8152808401879052602481018790527f5461736b2074797065206e6f7420737570706f72746564206279206167656e746044820152fd5b845162461bcd60e51b8152808401879052601d60248201527f4167656e74206e6f74207265676973746572656420666f72207573657200000060448201528c90fd5b905082346104d857806003193601126104d85767ffffffffffffffff90823582811161139757611b189036908501611dd3565b91602435938185116104d457366023860112156104d4578481013590611b3d82611e1f565b92611b4a85519485611d95565b8284526020968785016024600595861b8301019136831161163b5760248a9101915b838310611d5357505050503388526099875260ff6002868a20015416611d10573388526099875284882092336001600160601b0360a01b855416178455600191828501908851908111611cfd579081611bd1859493611bcb8454611e63565b846121e9565b8a601f8211600114611c99578c9082611c8e575b50600019600383901b1c191690841b17905590935b600281019360ff19948486825416179055606460038301558a9101925b611c54575b86518981528a9033907fda816ca2fc37b9eecec62ae8263008ec6be1afb38dc28bc9c7c51d7e348da9c29080610eaa818f018e611f43565b8551811015611c895790611c81828a879594841b890101518c52838b52888c20858782541617905561222e565b909192611c17565b611c1c565b90508a01518d611be5565b828d528b8d2090601f1983168e8e8e5b838310611ce65750505090838794939210611ccd575b5050811b0190559093611bfa565b8c015160001960f88460031b161c191690558d80611cbf565b840151855589989094019392830192018e8e611ca9565b634e487b7160e01b8b526041855260248bfd5b845162461bcd60e51b8152808301889052601860248201527f4167656e7420616c7265616479207265676973746572656400000000000000006044820152606490fd5b82358152918101918a9101611b6c565b6060810190811067ffffffffffffffff821117611d7f57604052565b634e487b7160e01b600052604160045260246000fd5b90601f8019910116810190811067ffffffffffffffff821117611d7f57604052565b67ffffffffffffffff8111611d7f57601f01601f191660200190565b81601f82011215611e1a57803590611dea82611db7565b92611df86040519485611d95565b82845260208383010111611e1a57816000926020809301838601378301015290565b600080fd5b67ffffffffffffffff8111611d7f5760051b60200190565b600435906001600160a01b0382168203611e1a57565b602435906001600160a01b0382168203611e1a57565b90600182811c92168015611e93575b6020831014611e7d57565b634e487b7160e01b600052602260045260246000fd5b91607f1691611e72565b9060405191826000825492611eb184611e63565b908184526001948581169081600014611f205750600114611edd575b5050611edb92500383611d95565b565b9093915060005260209081600020936000915b818310611f08575050611edb93508201013880611ecd565b85548884018501529485019487945091830191611ef0565b915050611edb94506020925060ff191682840152151560051b8201013880611ecd565b919082519283825260005b848110611f6f575050826000602080949584010152601f8019910116010190565b602081830181015184830182015201611f4e565b15611f8a57565b60405162461bcd60e51b815260206004820152602c60248201527f46756e6374696f6e206d7573742062652063616c6c6564207468726f7567682060448201526b19195b1959d85d1958d85b1b60a21b6064820152608490fd5b15611feb57565b60405162461bcd60e51b815260206004820152602c60248201527f46756e6374696f6e206d7573742062652063616c6c6564207468726f7567682060448201526b6163746976652070726f787960a01b6064820152608490fd5b803b1561207a576000805160206124d583398151915280546001600160a01b0319166001600160a01b03909216919091179055565b60405162461bcd60e51b815260206004820152602d60248201527f455243313936373a206e657720696d706c656d656e746174696f6e206973206e60448201526c1bdd08184818dbdb9d1c9858dd609a1b6064820152608490fd5b9192901561213757508151156120e9575090565b3b156120f25790565b60405162461bcd60e51b815260206004820152601d60248201527f416464726573733a2063616c6c20746f206e6f6e2d636f6e74726163740000006044820152606490fd5b82519091501561214a5750805190602001fd5b60405162461bcd60e51b81526020600482015290819061216e906024830190611f43565b0390fd5b1561217957565b60405162461bcd60e51b815260206004820152602b60248201527f496e697469616c697a61626c653a20636f6e7472616374206973206e6f74206960448201526a6e697469616c697a696e6760a81b6064820152608490fd5b8181106121dd575050565b600081556001016121d2565b9190601f81116121f857505050565b611edb926000526020600020906020601f840160051c83019310612224575b601f0160051c01906121d2565b9091508190612217565b600019811461223d5760010190565b634e487b7160e01b600052601160045260246000fd5b1561225a57565b60405162461bcd60e51b815260206004820152601e60248201527f4167656e74206e6f74207265676973746572656420696e2073797374656d00006044820152606490fd5b156122a657565b60405162461bcd60e51b815260206004820152602160248201527f4167656e7420616c7265616479207265676973746572656420666f72207573656044820152603960f91b6064820152608490fd5b90816020910312611e1a57518015158103611e1a5790565b1561231457565b60405162461bcd60e51b815260206004820152602160248201527f5061796d656e7420616c6c6f77616e6365207472616e73666572206661696c656044820152601960fa1b6064820152608490fd5b805482101561237b5760005260206000200190600090565b634e487b7160e01b600052603260045260246000fd5b8054600160401b811015611d7f576123ae91600182018155612363565b819291549060031b9160018060a01b039283811b93849216901b16911916179055565b156123d857565b60405162461bcd60e51b815260206004820152601760248201527f5061796d656e74207472616e73666572206661696c65640000000000000000006044820152606490fd5b60026065541461242e576002606555565b60405162461bcd60e51b815260206004820152601f60248201527f5265656e7472616e637947756172643a207265656e7472616e742063616c6c006044820152606490fd5b1561247a57565b60405162461bcd60e51b8152602060048201526012602482015271139bdd08185cdcda59db9959081859d95b9d60721b6044820152606490fdfeb14eafe918ed2ebe411ca6d11c3ef5c8330bf0979fa0384ef0f26b8ed7b50fbf360894a13ba1a3210667c828492db98dca3e2076cc3735a920a3ca505d382bbca26469706673582212205c1220f2bb3ba9b8c95969727418d2ccfd264a41729b96a54b01666b4be81d4b64736f6c63430008110033","opcodes":"PUSH1 0xA0 DUP1 PUSH1 0x40 MSTORE CALLVALUE PUSH2 0xDC JUMPI ADDRESS PUSH1 0x80 MSTORE PUSH1 0x0 SLOAD SWAP1 PUSH1 0xFF DUP3 PUSH1 0x8 SHR AND PUSH2 0x8A JUMPI POP PUSH1 0xFF DUP1 DUP3 AND SUB PUSH2 0x4F JUMPI JUMPDEST PUSH1 0x40 MLOAD PUSH2 0x252A SWAP1 DUP2 PUSH2 0xE2 DUP3 CODECOPY PUSH1 0x80 MLOAD DUP2 DUP2 DUP2 PUSH2 0xFE8 ADD MSTORE DUP2 DUP2 PUSH2 0x10D5 ADD MSTORE PUSH2 0x13C3 ADD MSTORE RETURN JUMPDEST PUSH1 0xFF SWAP1 DUP2 NOT AND OR PUSH1 0x0 SSTORE PUSH32 0x7F26B83FF96E1F2B6A682F133852F6798A09C465DA95921460CEFB3847402498 PUSH1 0x20 PUSH1 0x40 MLOAD PUSH1 0xFF DUP2 MSTORE LOG1 CODESIZE PUSH2 0x29 JUMP JUMPDEST PUSH3 0x461BCD PUSH1 0xE5 SHL DUP2 MSTORE PUSH1 0x20 PUSH1 0x4 DUP3 ADD MSTORE PUSH1 0x27 PUSH1 0x24 DUP3 ADD MSTORE PUSH32 0x496E697469616C697A61626C653A20636F6E747261637420697320696E697469 PUSH1 0x44 DUP3 ADD MSTORE PUSH7 0x616C697A696E67 PUSH1 0xC8 SHL PUSH1 0x64 DUP3 ADD MSTORE PUSH1 0x84 SWAP1 REVERT JUMPDEST PUSH1 0x0 DUP1 REVERT INVALID PUSH1 0x40 PUSH1 0x80 DUP2 MSTORE PUSH1 0x4 DUP1 CALLDATASIZE LT ISZERO PUSH2 0x14 JUMPI PUSH1 0x0 DUP1 REVERT JUMPDEST PUSH1 0x0 SWAP1 DUP2 CALLDATALOAD PUSH1 0xE0 SHR SWAP1 DUP2 PUSH4 0x1730516 EQ PUSH2 0x1AE5 JUMPI DUP2 PUSH4 0xCFB932F EQ PUSH2 0x16BB JUMPI DUP2 PUSH4 0x3013CE29 EQ PUSH2 0x1692 JUMPI DUP2 PUSH4 0x3659CFE6 EQ PUSH2 0x139B JUMPI DUP2 PUSH4 0x4F1EF286 EQ PUSH2 0x1095 JUMPI DUP2 PUSH4 0x52D1902D EQ PUSH2 0xFD2 JUMPI DUP2 PUSH4 0x58671730 EQ PUSH2 0xFB3 JUMPI DUP2 PUSH4 0x7A2CCD35 EQ PUSH2 0xD4F JUMPI DUP2 PUSH4 0x8D977672 EQ PUSH2 0xBFC JUMPI DUP2 PUSH4 0x8DA5CB5B EQ PUSH2 0xBCF JUMPI DUP2 PUSH4 0xB053CEF3 EQ PUSH2 0xA96 JUMPI DUP2 PUSH4 0xB8573185 EQ PUSH2 0x911 JUMPI DUP2 PUSH4 0xC30C4476 EQ PUSH2 0x7B9 JUMPI DUP2 PUSH4 0xC4D66DE8 EQ PUSH2 0x64C JUMPI DUP2 PUSH4 0xD174C3E2 EQ PUSH2 0x4DC JUMPI DUP2 PUSH4 0xDE2DDC59 EQ PUSH2 0x159 JUMPI POP PUSH4 0xFD66091E EQ PUSH2 0xDD JUMPI PUSH1 0x0 DUP1 REVERT JUMPDEST CALLVALUE PUSH2 0x156 JUMPI PUSH1 0x20 CALLDATASIZE PUSH1 0x3 NOT ADD SLT PUSH2 0x156 JUMPI PUSH1 0x1 PUSH1 0x1 PUSH1 0xA0 SHL SUB SWAP1 DUP3 SWAP1 DUP3 PUSH2 0x102 PUSH2 0x1E37 JUMP JUMPDEST AND DUP2 MSTORE PUSH1 0x99 PUSH1 0x20 MSTORE KECCAK256 SWAP1 DUP2 SLOAD AND SWAP1 PUSH2 0x11C PUSH1 0x1 DUP3 ADD PUSH2 0x1E9D JUMP JUMPDEST SWAP3 PUSH1 0x3 PUSH1 0xFF PUSH1 0x2 DUP5 ADD SLOAD AND SWAP3 ADD SLOAD SWAP1 PUSH2 0x146 DUP2 MLOAD SWAP6 DUP7 SWAP6 DUP7 MSTORE PUSH1 0x80 PUSH1 0x20 DUP8 ADD MSTORE PUSH1 0x80 DUP7 ADD SWAP1 PUSH2 0x1F43 JUMP JUMPDEST SWAP3 ISZERO ISZERO SWAP1 DUP5 ADD MSTORE PUSH1 0x60 DUP4 ADD MSTORE SUB SWAP1 RETURN JUMPDEST DUP1 REVERT JUMPDEST DUP4 SWAP2 POP CALLVALUE PUSH2 0x4D8 JUMPI PUSH1 0x80 CALLDATASIZE PUSH1 0x3 NOT ADD SLT PUSH2 0x4D8 JUMPI DUP1 CALLDATALOAD SWAP2 PUSH8 0xFFFFFFFFFFFFFFFF SWAP1 PUSH1 0x24 CALLDATALOAD DUP3 DUP2 GT PUSH2 0x4D4 JUMPI PUSH2 0x191 SWAP1 CALLDATASIZE SWAP1 DUP6 ADD PUSH2 0x1DD3 JUMP JUMPDEST PUSH1 0x64 CALLDATALOAD SWAP3 DUP1 DUP5 GT PUSH2 0x4D0 JUMPI CALLDATASIZE PUSH1 0x23 DUP6 ADD SLT ISZERO PUSH2 0x4D0 JUMPI DUP4 DUP6 ADD CALLDATALOAD PUSH2 0x1B4 DUP2 PUSH2 0x1E1F JUMP JUMPDEST SWAP1 PUSH2 0x1C1 DUP6 MLOAD SWAP3 DUP4 PUSH2 0x1D95 JUMP JUMPDEST DUP1 DUP3 MSTORE PUSH1 0x20 SWAP6 DUP7 DUP4 ADD PUSH1 0x24 DUP2 SWAP4 PUSH1 0x5 SHL DUP4 ADD ADD SWAP2 CALLDATASIZE DUP4 GT PUSH2 0x4CC JUMPI PUSH1 0x24 ADD SWAP1 JUMPDEST DUP3 DUP3 LT PUSH2 0x4A9 JUMPI POP POP POP PUSH2 0x1F3 PUSH2 0x241D JUMP JUMPDEST PUSH1 0x44 CALLDATALOAD SWAP7 DUP8 ISZERO PUSH2 0x466 JUMPI PUSH1 0x1 DUP1 PUSH1 0xA0 SHL SUB SWAP3 DUP11 DUP9 PUSH2 0x249 DUP7 PUSH1 0x98 SLOAD AND DUP13 DUP12 MLOAD SWAP5 DUP6 DUP1 SWAP5 DUP2 SWAP4 PUSH4 0x23B872DD PUSH1 0xE0 SHL DUP4 MSTORE ADDRESS CALLER DUP13 DUP6 ADD PUSH1 0x40 SWAP2 SWAP5 SWAP4 SWAP3 SWAP5 PUSH1 0x60 DUP3 ADD SWAP6 PUSH1 0x1 DUP1 PUSH1 0xA0 SHL SUB DUP1 SWAP3 AND DUP4 MSTORE AND PUSH1 0x20 DUP3 ADD MSTORE ADD MSTORE JUMP JUMPDEST SUB SWAP3 GAS CALL SWAP1 DUP2 ISZERO PUSH2 0x45C JUMPI SWAP1 PUSH2 0x266 SWAP2 DUP14 SWAP2 PUSH2 0x42F JUMPI JUMPDEST POP PUSH2 0x23D1 JUMP JUMPDEST PUSH1 0x9C SLOAD SWAP9 PUSH2 0x273 DUP11 PUSH2 0x222E JUMP JUMPDEST PUSH1 0x9C SSTORE DUP10 DUP13 MSTORE PUSH1 0x9A DUP10 MSTORE DUP8 DUP13 KECCAK256 SWAP7 CALLER PUSH1 0x1 PUSH1 0x1 PUSH1 0x60 SHL SUB PUSH1 0xA0 SHL DUP10 SLOAD AND OR DUP9 SSTORE DUP12 PUSH1 0x2 DUP10 ADD SSTORE DUP1 MLOAD DUP8 DUP2 GT PUSH2 0x41C JUMPI DUP1 DUP15 PUSH1 0x3 DUP12 ADD SWAP4 PUSH2 0x2BD DUP4 PUSH2 0x2B7 DUP8 SLOAD PUSH2 0x1E63 JUMP JUMPDEST DUP8 PUSH2 0x21E9 JUMP JUMPDEST DUP14 SWAP2 PUSH1 0x1F DUP5 GT PUSH1 0x1 EQ PUSH2 0x3B8 JUMPI SWAP3 PUSH2 0x3AD JUMPI JUMPDEST POP POP DUP2 PUSH1 0x1 SHL SWAP2 PUSH1 0x0 NOT SWAP1 PUSH1 0x3 SHL SHR NOT AND OR SWAP1 SSTORE JUMPDEST DUP7 DUP4 ADD SSTORE PUSH1 0x5 DUP7 ADD DUP1 SLOAD PUSH1 0xFF NOT AND SWAP1 SSTORE MLOAD SWAP5 DUP6 PUSH2 0x332 JUMPI JUMPDEST DUP11 DUP11 DUP11 PUSH32 0xE04E65A2F2DE9844F70A34D2EBA1E53DDADAAD516FA4D8F5E02EE00DF908EBEF DUP12 DUP12 MLOAD SWAP4 DUP5 MSTORE CALLER SWAP4 LOG3 PUSH1 0x1 PUSH1 0x65 SSTORE DUP1 RETURN JUMPDEST PUSH1 0x7 ADD SWAP4 DUP6 GT PUSH2 0x39A JUMPI PUSH1 0x1 PUSH1 0x40 SHL DUP6 GT PUSH2 0x39A JUMPI POP DUP3 SLOAD DUP5 DUP5 SSTORE DUP1 DUP6 LT PUSH2 0x380 JUMPI JUMPDEST POP SWAP2 DUP9 MSTORE DUP5 DUP9 KECCAK256 SWAP1 DUP9 JUMPDEST DUP5 DUP2 LT PUSH2 0x36C JUMPI DUP1 PUSH2 0x2FD JUMP JUMPDEST DUP4 MLOAD DUP3 AND DUP4 DUP3 ADD SSTORE SWAP3 DUP7 ADD SWAP3 PUSH1 0x1 ADD PUSH2 0x35F JUMP JUMPDEST DUP4 DUP11 MSTORE DUP7 DUP11 KECCAK256 PUSH2 0x394 SWAP2 DUP2 ADD SWAP1 DUP7 ADD PUSH2 0x21D2 JUMP JUMPDEST DUP10 PUSH2 0x355 JUMP JUMPDEST PUSH4 0x4E487B71 PUSH1 0xE0 SHL DUP11 MSTORE PUSH1 0x41 SWAP1 MSTORE PUSH1 0x24 DUP10 REVERT JUMPDEST ADD MLOAD SWAP1 POP DUP16 DUP1 PUSH2 0x2D0 JUMP JUMPDEST DUP6 DUP2 MSTORE DUP15 DUP2 KECCAK256 SWAP4 POP PUSH1 0x1F NOT DUP6 AND SWAP1 DUP16 JUMPDEST DUP3 DUP3 LT PUSH2 0x405 JUMPI POP POP SWAP1 DUP5 PUSH1 0x1 SWAP6 SWAP5 SWAP4 SWAP3 LT PUSH2 0x3EC JUMPI JUMPDEST POP POP POP DUP2 SHL ADD SWAP1 SSTORE PUSH2 0x2E5 JUMP JUMPDEST ADD MLOAD PUSH1 0x0 NOT PUSH1 0xF8 DUP5 PUSH1 0x3 SHL AND SHR NOT AND SWAP1 SSTORE DUP16 DUP1 DUP1 PUSH2 0x3DF JUMP JUMPDEST PUSH1 0x1 DUP6 SWAP7 DUP3 SWAP4 SWAP7 DUP7 ADD MLOAD DUP2 SSTORE ADD SWAP6 ADD SWAP4 ADD DUP16 PUSH2 0x3C8 JUMP JUMPDEST PUSH4 0x4E487B71 PUSH1 0xE0 SHL DUP15 MSTORE PUSH1 0x41 DUP6 MSTORE PUSH1 0x24 DUP15 REVERT JUMPDEST PUSH2 0x44F SWAP2 POP DUP11 RETURNDATASIZE DUP13 GT PUSH2 0x455 JUMPI JUMPDEST PUSH2 0x447 DUP2 DUP4 PUSH2 0x1D95 JUMP JUMPDEST DUP2 ADD SWAP1 PUSH2 0x22F5 JUMP JUMPDEST DUP14 PUSH2 0x260 JUMP JUMPDEST POP RETURNDATASIZE PUSH2 0x43D JUMP JUMPDEST DUP9 MLOAD RETURNDATASIZE DUP15 DUP3 RETURNDATACOPY RETURNDATASIZE SWAP1 REVERT JUMPDEST DUP6 MLOAD PUSH3 0x461BCD PUSH1 0xE5 SHL DUP2 MSTORE SWAP1 DUP2 ADD DUP8 SWAP1 MSTORE PUSH1 0x18 PUSH1 0x24 DUP3 ADD MSTORE PUSH32 0x5061796D656E74206D75737420626520706F7369746976650000000000000000 PUSH1 0x44 DUP3 ADD MSTORE PUSH1 0x64 SWAP1 REVERT JUMPDEST DUP2 CALLDATALOAD PUSH1 0x1 PUSH1 0x1 PUSH1 0xA0 SHL SUB DUP2 AND DUP2 SUB PUSH2 0x4C8 JUMPI DUP2 MSTORE SWAP1 DUP9 ADD SWAP1 DUP9 ADD PUSH2 0x1E1 JUMP JUMPDEST DUP13 DUP1 REVERT JUMPDEST DUP12 DUP1 REVERT JUMPDEST DUP7 DUP1 REVERT JUMPDEST DUP6 DUP1 REVERT JUMPDEST DUP3 DUP1 REVERT JUMPDEST DUP4 SWAP2 POP CALLVALUE PUSH2 0x4D8 JUMPI PUSH1 0x60 CALLDATASIZE PUSH1 0x3 NOT ADD SLT PUSH2 0x4D8 JUMPI PUSH2 0x4F8 PUSH2 0x1E37 JUMP JUMPDEST SWAP1 PUSH2 0x501 PUSH2 0x1E4D JUMP JUMPDEST SWAP1 PUSH1 0x44 CALLDATALOAD PUSH1 0x1 DUP1 PUSH1 0xA0 SHL SUB SWAP3 DUP4 DUP2 AND SWAP5 DUP6 DUP9 MSTORE PUSH1 0x20 SWAP4 PUSH1 0x99 DUP6 MSTORE PUSH2 0x52D PUSH1 0xFF PUSH1 0x2 DUP11 DUP13 KECCAK256 ADD SLOAD AND PUSH2 0x2253 JUMP JUMPDEST DUP9 DUP7 DUP4 AND SWAP7 DUP8 DUP3 MSTORE PUSH1 0x9B DUP8 MSTORE PUSH1 0x1 DUP11 DUP4 KECCAK256 ADD DUP10 DUP4 MSTORE DUP8 MSTORE PUSH2 0x554 PUSH1 0xFF DUP12 DUP5 KECCAK256 SLOAD AND ISZERO PUSH2 0x229F JUMP JUMPDEST DUP6 PUSH2 0x5AD JUMPI JUMPDEST POP DUP8 DUP8 PUSH1 0x0 DUP1 MLOAD PUSH1 0x20 PUSH2 0x24B5 DUP4 CODECOPY DUP2 MLOAD SWAP2 MSTORE DUP9 DUP9 DUP14 PUSH1 0x2 DUP11 DUP7 DUP10 MSTORE PUSH1 0x9B DUP6 MSTORE PUSH2 0x586 DUP4 DUP11 KECCAK256 SWAP2 DUP3 PUSH2 0x2391 JUMP JUMPDEST DUP8 DUP10 MSTORE PUSH1 0x1 DUP2 ADD DUP6 MSTORE DUP3 DUP10 KECCAK256 PUSH1 0x1 PUSH1 0xFF NOT DUP3 SLOAD AND OR SWAP1 SSTORE ADD DUP4 MSTORE DUP2 DUP2 DUP9 KECCAK256 SSTORE MLOAD SWAP1 DUP2 MSTORE LOG3 DUP1 RETURN JUMPDEST PUSH1 0x98 SLOAD DUP11 MLOAD PUSH4 0x23B872DD PUSH1 0xE0 SHL DUP2 MSTORE PUSH1 0x1 PUSH1 0x1 PUSH1 0xA0 SHL SUB SWAP6 SWAP1 SWAP6 AND SWAP4 DUP6 ADD SWAP4 DUP5 MSTORE ADDRESS PUSH1 0x20 DUP6 ADD MSTORE PUSH1 0x40 DUP5 ADD DUP8 SWAP1 MSTORE DUP8 SWAP4 DUP6 SWAP4 SWAP1 DUP5 SWAP1 SUB PUSH1 0x60 ADD SWAP3 DUP5 SWAP3 AND GAS CALL SWAP1 DUP2 ISZERO PUSH2 0x642 JUMPI SWAP2 PUSH2 0x61A PUSH1 0x2 SWAP3 PUSH1 0x0 DUP1 MLOAD PUSH1 0x20 PUSH2 0x24B5 DUP4 CODECOPY DUP2 MLOAD SWAP2 MSTORE SWAP8 SWAP9 SWAP10 SWAP5 DUP12 SWAP2 PUSH2 0x625 JUMPI JUMPDEST POP PUSH2 0x230D JUMP JUMPDEST SWAP2 SWAP7 SWAP6 SWAP5 DUP9 DUP11 PUSH2 0x55A JUMP JUMPDEST PUSH2 0x63C SWAP2 POP DUP8 RETURNDATASIZE DUP10 GT PUSH2 0x455 JUMPI PUSH2 0x447 DUP2 DUP4 PUSH2 0x1D95 JUMP JUMPDEST DUP12 PUSH2 0x614 JUMP JUMPDEST DUP8 MLOAD RETURNDATASIZE DUP11 DUP3 RETURNDATACOPY RETURNDATASIZE SWAP1 REVERT JUMPDEST DUP4 SWAP2 POP CALLVALUE PUSH2 0x4D8 JUMPI PUSH1 0x20 CALLDATASIZE PUSH1 0x3 NOT ADD SLT PUSH2 0x4D8 JUMPI PUSH2 0x668 PUSH2 0x1E37 JUMP JUMPDEST SWAP1 DUP4 SLOAD PUSH1 0xFF DUP2 PUSH1 0x8 SHR AND ISZERO SWAP2 DUP3 DUP1 SWAP4 PUSH2 0x7AC JUMPI JUMPDEST DUP1 ISZERO PUSH2 0x795 JUMPI JUMPDEST ISZERO PUSH2 0x73B JUMPI POP PUSH1 0xFF NOT DUP2 AND PUSH1 0x1 OR DUP6 SSTORE DUP2 PUSH2 0x72A JUMPI JUMPDEST POP DUP4 SLOAD SWAP2 PUSH2 0x6BE PUSH1 0xFF DUP5 PUSH1 0x8 SHR AND PUSH2 0x6B0 DUP2 PUSH2 0x2172 JUMP JUMPDEST PUSH2 0x6B9 DUP2 PUSH2 0x2172 JUMP JUMPDEST PUSH2 0x2172 JUMP JUMPDEST PUSH1 0x1 PUSH1 0x65 SSTORE PUSH1 0x1 PUSH1 0x1 PUSH1 0x60 SHL SUB PUSH1 0xA0 SHL SWAP1 CALLER DUP3 PUSH1 0x97 SLOAD AND OR PUSH1 0x97 SSTORE PUSH1 0x1 DUP1 PUSH1 0xA0 SHL SUB AND SWAP1 PUSH1 0x98 SLOAD AND OR PUSH1 0x98 SSTORE PUSH2 0x6F2 JUMPI DUP3 DUP1 RETURN JUMPDEST PUSH2 0xFF00 NOT AND DUP3 SSTORE MLOAD PUSH1 0x1 DUP2 MSTORE PUSH32 0x7F26B83FF96E1F2B6A682F133852F6798A09C465DA95921460CEFB3847402498 SWAP1 PUSH1 0x20 SWAP1 LOG1 DUP2 DUP1 DUP3 DUP1 RETURN JUMPDEST PUSH2 0xFFFF NOT AND PUSH2 0x101 OR DUP5 SSTORE DUP5 PUSH2 0x699 JUMP JUMPDEST PUSH1 0x84 SWAP1 PUSH1 0x20 DUP7 MLOAD SWAP2 PUSH3 0x461BCD PUSH1 0xE5 SHL DUP4 MSTORE DUP3 ADD MSTORE PUSH1 0x2E PUSH1 0x24 DUP3 ADD MSTORE PUSH32 0x496E697469616C697A61626C653A20636F6E747261637420697320616C726561 PUSH1 0x44 DUP3 ADD MSTORE PUSH14 0x191E481A5B9A5D1A585B1A5E9959 PUSH1 0x92 SHL PUSH1 0x64 DUP3 ADD MSTORE REVERT JUMPDEST POP ADDRESS EXTCODESIZE ISZERO DUP1 ISZERO PUSH2 0x683 JUMPI POP PUSH1 0x1 PUSH1 0xFF DUP4 AND EQ PUSH2 0x683 JUMP JUMPDEST POP PUSH1 0x1 PUSH1 0xFF DUP4 AND LT PUSH2 0x67C JUMP JUMPDEST SWAP1 POP DUP3 CALLVALUE PUSH2 0x4D8 JUMPI DUP1 PUSH1 0x3 NOT CALLDATASIZE ADD SLT PUSH2 0x4D8 JUMPI PUSH2 0x7D4 PUSH2 0x1E37 JUMP JUMPDEST PUSH1 0x24 CALLDATALOAD SWAP2 PUSH1 0x1 DUP1 PUSH1 0xA0 SHL SUB SWAP2 DUP4 DUP4 DUP3 AND SWAP6 DUP7 DUP9 MSTORE PUSH1 0x20 SWAP5 PUSH1 0x99 DUP7 MSTORE PUSH2 0x801 PUSH1 0xFF PUSH1 0x2 DUP8 DUP13 KECCAK256 ADD SLOAD AND PUSH2 0x2253 JUMP JUMPDEST CALLER DUP10 MSTORE PUSH1 0x9B DUP7 MSTORE PUSH1 0x1 DUP6 DUP11 KECCAK256 ADD DUP9 DUP11 MSTORE DUP7 MSTORE PUSH2 0x823 PUSH1 0xFF DUP7 DUP12 KECCAK256 SLOAD AND ISZERO PUSH2 0x229F JUMP JUMPDEST DUP3 PUSH2 0x87D JUMPI JUMPDEST POP POP POP SWAP1 PUSH1 0x2 PUSH1 0x0 DUP1 MLOAD PUSH1 0x20 PUSH2 0x24B5 DUP4 CODECOPY DUP2 MLOAD SWAP2 MSTORE SWAP4 SWAP3 CALLER DUP9 MSTORE PUSH1 0x9B DUP5 MSTORE PUSH2 0x854 DUP4 DUP10 KECCAK256 SWAP2 DUP3 PUSH2 0x2391 JUMP JUMPDEST DUP7 DUP9 MSTORE PUSH1 0x1 DUP2 ADD DUP5 MSTORE DUP3 DUP9 KECCAK256 PUSH1 0x1 PUSH1 0xFF NOT DUP3 SLOAD AND OR SWAP1 SSTORE ADD DUP3 MSTORE DUP4 DUP2 DUP8 KECCAK256 SSTORE MLOAD SWAP3 DUP4 MSTORE CALLER SWAP3 LOG3 DUP1 RETURN JUMPDEST PUSH1 0x98 SLOAD DUP6 MLOAD PUSH4 0x23B872DD PUSH1 0xE0 SHL DUP2 MSTORE CALLER SWAP4 DUP2 ADD SWAP4 DUP5 MSTORE ADDRESS PUSH1 0x20 DUP6 ADD MSTORE PUSH1 0x40 DUP5 ADD SWAP5 SWAP1 SWAP5 MSTORE DUP7 SWAP3 DUP5 SWAP3 SWAP1 DUP4 SWAP1 SUB PUSH1 0x60 ADD SWAP2 DUP4 SWAP2 DUP13 SWAP2 AND GAS CALL SWAP1 DUP2 ISZERO PUSH2 0x907 JUMPI SWAP2 PUSH2 0x8E0 PUSH1 0x2 SWAP3 PUSH1 0x0 DUP1 MLOAD PUSH1 0x20 PUSH2 0x24B5 DUP4 CODECOPY DUP2 MLOAD SWAP2 MSTORE SWAP7 SWAP6 SWAP5 DUP11 SWAP2 PUSH2 0x8EA JUMPI POP PUSH2 0x230D JUMP JUMPDEST SWAP2 SWAP3 SWAP4 DUP6 SWAP2 PUSH2 0x829 JUMP JUMPDEST PUSH2 0x901 SWAP2 POP DUP7 RETURNDATASIZE DUP9 GT PUSH2 0x455 JUMPI PUSH2 0x447 DUP2 DUP4 PUSH2 0x1D95 JUMP JUMPDEST DUP11 PUSH2 0x614 JUMP JUMPDEST DUP4 MLOAD RETURNDATASIZE DUP10 DUP3 RETURNDATACOPY RETURNDATASIZE SWAP1 REVERT JUMPDEST SWAP1 POP DUP3 CALLVALUE PUSH2 0x4D8 JUMPI PUSH1 0x20 SWAP1 DUP2 PUSH1 0x3 NOT CALLDATASIZE ADD SLT PUSH2 0xA92 JUMPI DUP3 CALLDATALOAD SWAP3 CALLER DUP6 MSTORE PUSH1 0x99 DUP4 MSTORE PUSH1 0xFF PUSH1 0x2 DUP4 DUP8 KECCAK256 ADD SLOAD AND ISZERO PUSH2 0xA5A JUMPI DUP4 DUP6 MSTORE PUSH1 0x9A DUP4 MSTORE DUP2 DUP6 KECCAK256 SWAP1 PUSH1 0x5 DUP3 ADD SWAP4 DUP5 SLOAD SWAP4 PUSH1 0xFF DUP6 AND PUSH1 0x5 DUP2 LT ISZERO PUSH2 0xA47 JUMPI PUSH2 0xA11 JUMPI CALLER DUP9 MSTORE PUSH1 0x99 DUP3 MSTORE DUP3 DUP2 DUP10 KECCAK256 ADD PUSH1 0x2 DUP6 ADD SLOAD DUP10 MSTORE DUP3 MSTORE PUSH1 0xFF DUP2 DUP10 KECCAK256 SLOAD AND ISZERO PUSH2 0x9D0 JUMPI POP POP POP SWAP1 PUSH1 0x1 DUP1 SWAP3 ADD CALLER PUSH1 0x1 PUSH1 0x1 PUSH1 0x60 SHL SUB PUSH1 0xA0 SHL DUP3 SLOAD AND OR SWAP1 SSTORE PUSH1 0xFF NOT AND OR SWAP1 SSTORE CALLER SWAP1 PUSH32 0x52476D55ECEF5CF13CAA64038F297FE6BBF865D9584A98B8722A15A6D5DB128F DUP4 DUP1 LOG3 DUP1 RETURN JUMPDEST MLOAD PUSH3 0x461BCD PUSH1 0xE5 SHL DUP2 MSTORE SWAP2 DUP3 ADD MSTORE PUSH1 0x17 PUSH1 0x24 DUP3 ADD MSTORE PUSH32 0x5461736B2074797065206E6F7420737570706F72746564000000000000000000 PUSH1 0x44 DUP3 ADD MSTORE PUSH1 0x64 SWAP2 POP REVERT JUMPDEST MLOAD PUSH3 0x461BCD PUSH1 0xE5 SHL DUP2 MSTORE SWAP2 DUP3 ADD MSTORE PUSH1 0x12 PUSH1 0x24 DUP3 ADD MSTORE PUSH18 0x5461736B206E6F7420617661696C61626C65 PUSH1 0x70 SHL PUSH1 0x44 DUP3 ADD MSTORE PUSH1 0x64 SWAP2 POP REVERT JUMPDEST PUSH4 0x4E487B71 PUSH1 0xE0 SHL DUP10 MSTORE PUSH1 0x21 DUP5 MSTORE PUSH1 0x24 DUP10 REVERT JUMPDEST DUP3 PUSH1 0x64 SWAP3 MLOAD SWAP2 PUSH3 0x461BCD PUSH1 0xE5 SHL DUP4 MSTORE DUP3 ADD MSTORE PUSH1 0x14 PUSH1 0x24 DUP3 ADD MSTORE PUSH20 0x1059D95B9D081B9BDD081C9959DA5CDD195C9959 PUSH1 0x62 SHL PUSH1 0x44 DUP3 ADD MSTORE REVERT JUMPDEST DUP4 DUP1 REVERT JUMPDEST SWAP1 POP DUP3 CALLVALUE PUSH2 0x4D8 JUMPI DUP1 PUSH1 0x3 NOT CALLDATASIZE ADD SLT PUSH2 0x4D8 JUMPI DUP2 CALLDATALOAD PUSH2 0xAB3 PUSH2 0x1E4D JUMP JUMPDEST DUP2 DUP6 MSTORE PUSH1 0x9A PUSH1 0x20 MSTORE DUP3 DUP6 KECCAK256 SWAP1 PUSH1 0x1 DUP1 PUSH1 0xA0 SHL SUB SWAP2 PUSH1 0x1 SWAP6 PUSH2 0xADA DUP5 DUP9 DUP5 ADD SLOAD AND CALLER EQ PUSH2 0x2473 JUMP JUMPDEST DUP4 DUP4 AND SWAP6 DUP7 DUP10 MSTORE PUSH1 0x99 PUSH1 0x20 MSTORE PUSH1 0xFF PUSH1 0x2 DUP3 DUP12 KECCAK256 ADD SLOAD AND ISZERO PUSH2 0xB8C JUMPI POP POP DUP7 SWAP6 PUSH1 0x7 DUP9 SWAP3 ADD SWAP4 DUP5 SLOAD SWAP3 JUMPDEST DUP4 DUP2 LT PUSH2 0xB54 JUMPI JUMPDEST POP POP POP POP SWAP1 SWAP2 SWAP3 SWAP4 ISZERO PUSH2 0xB44 JUMPI JUMPDEST POP POP CALLER SWAP1 PUSH32 0xE3864154F13BB56610560553D549CB6947E9FD199379EEFEFBEB0F082C6C7CA8 DUP5 DUP1 LOG4 DUP1 RETURN JUMPDEST PUSH2 0xB4D SWAP2 PUSH2 0x2391 JUMP JUMPDEST DUP4 DUP1 PUSH2 0xB19 JUMP JUMPDEST DUP8 DUP3 PUSH2 0xB60 DUP4 DUP10 PUSH2 0x2363 JUMP JUMPDEST SWAP1 SLOAD SWAP1 PUSH1 0x3 SHL SHR AND EQ PUSH2 0xB7B JUMPI PUSH2 0xB76 SWAP1 PUSH2 0x222E JUMP JUMPDEST PUSH2 0xB03 JUMP JUMPDEST POP SWAP1 SWAP7 POP DUP9 SWAP2 POP DUP2 SWAP1 POP DUP1 DUP1 PUSH2 0xB0B JUMP JUMPDEST SWAP1 PUSH1 0x20 PUSH1 0x64 SWAP3 MLOAD SWAP2 PUSH3 0x461BCD PUSH1 0xE5 SHL DUP4 MSTORE DUP3 ADD MSTORE PUSH1 0x1B PUSH1 0x24 DUP3 ADD MSTORE PUSH32 0x436F6C6C61626F7261746F72206E6F7420726567697374657265640000000000 PUSH1 0x44 DUP3 ADD MSTORE REVERT JUMPDEST DUP3 DUP5 CALLVALUE PUSH2 0xBF8 JUMPI DUP2 PUSH1 0x3 NOT CALLDATASIZE ADD SLT PUSH2 0xBF8 JUMPI PUSH1 0x97 SLOAD SWAP1 MLOAD PUSH1 0x1 PUSH1 0x1 PUSH1 0xA0 SHL SUB SWAP1 SWAP2 AND DUP2 MSTORE PUSH1 0x20 SWAP1 RETURN JUMPDEST POP DUP1 REVERT JUMPDEST DUP4 DUP4 CALLVALUE PUSH2 0x156 JUMPI PUSH1 0x20 SWAP1 DUP2 PUSH1 0x3 NOT CALLDATASIZE ADD SLT PUSH2 0x156 JUMPI DUP4 CALLDATALOAD DUP2 MSTORE PUSH1 0x9A DUP3 MSTORE DUP3 DUP2 KECCAK256 PUSH1 0x1 DUP1 PUSH1 0xA0 SHL SUB SWAP2 DUP3 DUP3 SLOAD AND SWAP5 PUSH1 0x1 SWAP4 DUP5 DUP5 ADD SLOAD AND SWAP1 PUSH1 0x2 DUP5 ADD SLOAD SWAP1 PUSH2 0xC44 PUSH1 0x3 DUP7 ADD PUSH2 0x1E9D JUMP JUMPDEST SWAP3 DUP10 DUP7 ADD SLOAD SWAP8 PUSH1 0x6 PUSH1 0xFF PUSH1 0x5 DUP10 ADD SLOAD AND SWAP8 ADD DUP4 MLOAD SWAP9 DUP10 SWAP2 DUP9 SWAP2 DUP2 SLOAD SWAP2 PUSH2 0xC69 DUP4 PUSH2 0x1E63 JUMP JUMPDEST DUP1 DUP7 MSTORE SWAP3 DUP3 DUP2 AND SWAP1 DUP2 ISZERO PUSH2 0xD2D JUMPI POP PUSH1 0x1 EQ PUSH2 0xCF2 JUMPI JUMPDEST POP POP POP PUSH2 0xCB3 SWAP7 SWAP6 SWAP5 SWAP4 SWAP3 SWAP2 PUSH2 0xC97 SWAP2 SUB DUP11 PUSH2 0x1D95 JUMP JUMPDEST DUP3 MLOAD SWAP11 DUP12 MSTORE DUP11 ADD MSTORE DUP9 ADD MSTORE PUSH1 0xE0 PUSH1 0x60 DUP9 ADD MSTORE PUSH1 0xE0 DUP8 ADD SWAP1 PUSH2 0x1F43 JUMP JUMPDEST SWAP4 PUSH1 0x80 DUP7 ADD MSTORE PUSH1 0x5 DUP3 LT ISZERO PUSH2 0xCDF JUMPI POP PUSH1 0xA0 DUP5 ADD MSTORE DUP3 DUP3 SUB PUSH1 0xC0 DUP5 ADD MSTORE DUP3 SWAP2 PUSH2 0xCDB SWAP2 PUSH2 0x1F43 JUMP JUMPDEST SUB SWAP1 RETURN JUMPDEST PUSH4 0x4E487B71 PUSH1 0xE0 SHL DUP2 MSTORE PUSH1 0x21 DUP7 MSTORE PUSH1 0x24 SWAP1 REVERT JUMPDEST DUP11 MSTORE DUP5 DUP11 KECCAK256 DUP11 SWAP4 POP JUMPDEST DUP3 DUP5 LT PUSH2 0xD15 JUMPI POP POP POP DUP2 ADD DUP3 ADD DUP2 PUSH2 0xC97 PUSH2 0xCB3 PUSH2 0xC80 JUMP JUMPDEST DUP1 SLOAD SWAP5 DUP5 ADD DUP7 ADD SWAP5 SWAP1 SWAP5 MSTORE DUP12 SWAP4 SWAP3 DUP6 ADD SWAP3 DUP2 ADD PUSH2 0xCFB JUMP JUMPDEST PUSH1 0xFF NOT AND DUP7 DUP9 ADD MSTORE POP POP POP ISZERO ISZERO PUSH1 0x5 SHL DUP3 ADD DUP4 ADD SWAP1 POP DUP2 PUSH2 0xC97 PUSH2 0xCB3 PUSH2 0xC80 JUMP JUMPDEST DUP4 SWAP2 POP CALLVALUE PUSH2 0x4D8 JUMPI DUP2 PUSH1 0x3 NOT CALLDATASIZE ADD SLT PUSH2 0x4D8 JUMPI DUP1 CALLDATALOAD SWAP1 PUSH8 0xFFFFFFFFFFFFFFFF SWAP1 PUSH1 0x24 CALLDATALOAD DUP3 DUP2 GT PUSH2 0x4D4 JUMPI PUSH2 0xD86 SWAP1 CALLDATASIZE SWAP1 DUP4 ADD PUSH2 0x1DD3 JUMP JUMPDEST SWAP2 DUP4 DUP7 MSTORE PUSH1 0x20 SWAP2 PUSH1 0x9A DUP4 MSTORE DUP6 DUP8 KECCAK256 SWAP2 PUSH1 0x1 DUP1 PUSH1 0xA0 SHL SUB SWAP1 PUSH1 0x1 PUSH2 0xDAF DUP4 DUP3 DUP8 ADD SLOAD AND CALLER EQ PUSH2 0x2473 JUMP JUMPDEST PUSH1 0x5 DUP6 ADD SWAP2 PUSH1 0xFF DUP4 SLOAD AND PUSH1 0x5 DUP2 LT ISZERO PUSH2 0xFA0 JUMPI DUP3 DUP2 EQ SWAP1 DUP2 ISZERO PUSH2 0xF95 JUMPI JUMPDEST POP ISZERO PUSH2 0xF5C JUMPI PUSH1 0x6 DUP7 ADD SWAP2 DUP9 MLOAD SWAP2 DUP3 GT PUSH2 0xF49 JUMPI SWAP1 DUP3 SWAP2 PUSH2 0xDFC DUP3 PUSH2 0xDF6 DUP12 SWAP10 SWAP9 SWAP8 SWAP7 SLOAD PUSH2 0x1E63 JUMP JUMPDEST DUP6 PUSH2 0x21E9 JUMP JUMPDEST DUP7 DUP14 PUSH1 0x1F DUP5 GT PUSH1 0x1 EQ PUSH2 0xEE2 JUMPI SWAP3 DUP1 PUSH1 0x44 SWAP8 SWAP6 SWAP4 DUP2 SWAP4 DUP11 SWAP9 SWAP7 SWAP4 PUSH2 0xED7 JUMPI JUMPDEST POP SHL SWAP2 PUSH1 0x0 NOT SWAP1 PUSH1 0x3 SHL SHR NOT AND OR SWAP1 SSTORE JUMPDEST PUSH1 0x3 PUSH1 0xFF NOT DUP3 SLOAD AND OR SWAP1 SSTORE PUSH1 0x98 SLOAD AND SWAP5 ADD SLOAD SWAP2 DUP10 DUP10 MLOAD SWAP6 DUP7 SWAP5 DUP6 SWAP4 PUSH4 0xA9059CBB PUSH1 0xE0 SHL DUP6 MSTORE CALLER SWAP1 DUP6 ADD MSTORE PUSH1 0x24 DUP5 ADD MSTORE GAS CALL SWAP1 DUP2 ISZERO PUSH2 0xECD JUMPI SWAP5 PUSH2 0xE9B PUSH2 0xEAA SWAP3 PUSH32 0x4576AED55ED132DFAA5E03BBC10500227270D0B188AEC79A7BEE1202B29396E SWAP7 SWAP8 DUP10 SWAP2 PUSH2 0xEB0 JUMPI POP PUSH2 0x23D1 JUMP JUMPDEST MLOAD SWAP3 DUP3 DUP5 SWAP4 DUP5 MSTORE DUP4 ADD SWAP1 PUSH2 0x1F43 JUMP JUMPDEST SUB SWAP1 LOG2 DUP1 RETURN JUMPDEST PUSH2 0xEC7 SWAP2 POP DUP6 RETURNDATASIZE DUP8 GT PUSH2 0x455 JUMPI PUSH2 0x447 DUP2 DUP4 PUSH2 0x1D95 JUMP JUMPDEST DUP10 PUSH2 0x260 JUMP JUMPDEST DUP6 MLOAD RETURNDATASIZE DUP9 DUP3 RETURNDATACOPY RETURNDATASIZE SWAP1 REVERT JUMPDEST DUP15 ADD MLOAD SWAP3 POP CODESIZE PUSH2 0xE1B JUMP JUMPDEST SWAP1 PUSH1 0x1F SWAP4 SWAP3 SWAP4 NOT DUP4 AND DUP6 DUP4 MSTORE DUP10 DUP4 KECCAK256 SWAP3 JUMPDEST DUP14 DUP3 DUP3 LT PUSH2 0xF34 JUMPI POP POP SWAP2 DUP4 SWAP2 PUSH1 0x44 SWAP9 SWAP7 SWAP5 DUP11 SWAP9 SWAP7 SWAP5 LT PUSH2 0xF1B JUMPI JUMPDEST POP POP DUP2 SHL ADD SWAP1 SSTORE PUSH2 0xE2C JUMP JUMPDEST DUP14 ADD MLOAD PUSH1 0x0 NOT PUSH1 0xF8 DUP5 PUSH1 0x3 SHL AND SHR NOT AND SWAP1 SSTORE DUP16 DUP1 PUSH2 0xF0F JUMP JUMPDEST DUP4 ADD MLOAD DUP5 SSTORE DUP13 SWAP11 SWAP4 DUP7 ADD SWAP4 SWAP3 DUP4 ADD SWAP3 ADD PUSH2 0xEF3 JUMP JUMPDEST PUSH4 0x4E487B71 PUSH1 0xE0 SHL DUP13 MSTORE PUSH1 0x41 DUP7 MSTORE PUSH1 0x24 DUP13 REVERT JUMPDEST DUP10 MLOAD PUSH3 0x461BCD PUSH1 0xE5 SHL DUP2 MSTORE DUP1 DUP7 ADD DUP9 SWAP1 MSTORE PUSH1 0x13 PUSH1 0x24 DUP3 ADD MSTORE PUSH19 0x496E76616C6964207461736B20737461747573 PUSH1 0x68 SHL PUSH1 0x44 DUP3 ADD MSTORE PUSH1 0x64 SWAP1 REVERT JUMPDEST PUSH1 0x2 SWAP2 POP EQ DUP13 PUSH2 0xDCD JUMP JUMPDEST PUSH4 0x4E487B71 PUSH1 0xE0 SHL DUP13 MSTORE PUSH1 0x21 DUP7 MSTORE PUSH1 0x24 DUP13 REVERT JUMPDEST DUP3 DUP5 CALLVALUE PUSH2 0xBF8 JUMPI DUP2 PUSH1 0x3 NOT CALLDATASIZE ADD SLT PUSH2 0xBF8 JUMPI PUSH1 0x20 SWAP1 PUSH1 0x9C SLOAD SWAP1 MLOAD SWAP1 DUP2 MSTORE RETURN JUMPDEST SWAP2 SWAP1 POP CALLVALUE PUSH2 0x156 JUMPI DUP1 PUSH1 0x3 NOT CALLDATASIZE ADD SLT PUSH2 0x156 JUMPI POP PUSH32 0x0 PUSH1 0x1 PUSH1 0x1 PUSH1 0xA0 SHL SUB AND ADDRESS SUB PUSH2 0x102D JUMPI PUSH1 0x20 DUP3 MLOAD PUSH1 0x0 DUP1 MLOAD PUSH1 0x20 PUSH2 0x24D5 DUP4 CODECOPY DUP2 MLOAD SWAP2 MSTORE DUP2 MSTORE RETURN JUMPDEST PUSH1 0x20 PUSH1 0x84 SWAP3 MLOAD SWAP2 PUSH3 0x461BCD PUSH1 0xE5 SHL DUP4 MSTORE DUP3 ADD MSTORE PUSH1 0x38 PUSH1 0x24 DUP3 ADD MSTORE PUSH32 0x555550535570677261646561626C653A206D757374206E6F742062652063616C PUSH1 0x44 DUP3 ADD MSTORE PUSH32 0x6C6564207468726F7567682064656C656761746563616C6C0000000000000000 PUSH1 0x64 DUP3 ADD MSTORE REVERT JUMPDEST SWAP1 POP DUP3 DUP1 PUSH1 0x3 NOT CALLDATASIZE ADD SLT PUSH2 0x4D8 JUMPI PUSH2 0x10AB PUSH2 0x1E37 JUMP JUMPDEST SWAP1 PUSH1 0x24 CALLDATALOAD PUSH8 0xFFFFFFFFFFFFFFFF DUP2 GT PUSH2 0x1397 JUMPI PUSH2 0x10CB SWAP1 CALLDATASIZE SWAP1 DUP6 ADD PUSH2 0x1DD3 JUMP JUMPDEST PUSH1 0x1 PUSH1 0x1 PUSH1 0xA0 SHL SUB PUSH32 0x0 DUP2 AND SWAP3 SWAP2 SWAP1 PUSH2 0x1105 ADDRESS DUP6 EQ ISZERO PUSH2 0x1F83 JUMP JUMPDEST PUSH2 0x1122 PUSH1 0x0 DUP1 MLOAD PUSH1 0x20 PUSH2 0x24D5 DUP4 CODECOPY DUP2 MLOAD SWAP2 MSTORE SWAP5 DUP3 DUP7 SLOAD AND EQ PUSH2 0x1FE4 JUMP JUMPDEST DUP1 PUSH1 0x97 SLOAD AND CALLER SUB PUSH2 0x135E JUMPI PUSH32 0x4910FDFA16FED3260ED0E7147F7CC6DA11A60208B5B9406D12A635614FFD9143 SLOAD PUSH1 0xFF AND ISZERO PUSH2 0x1168 JUMPI POP POP POP POP PUSH2 0x1165 SWAP2 POP PUSH2 0x2045 JUMP JUMPDEST DUP1 RETURN JUMPDEST DUP3 MLOAD PUSH4 0x52D1902D PUSH1 0xE0 SHL DUP2 MSTORE PUSH1 0x20 SWAP6 SWAP4 SWAP5 SWAP2 DUP5 AND SWAP2 SWAP1 DUP7 DUP2 DUP10 DUP2 DUP7 GAS STATICCALL DUP10 SWAP2 DUP2 PUSH2 0x132B JUMPI JUMPDEST POP PUSH2 0x11EC JUMPI DUP6 MLOAD PUSH3 0x461BCD PUSH1 0xE5 SHL DUP2 MSTORE DUP1 DUP10 ADD DUP9 SWAP1 MSTORE PUSH1 0x2E PUSH1 0x24 DUP3 ADD MSTORE PUSH32 0x45524331393637557067726164653A206E657720696D706C656D656E74617469 PUSH1 0x44 DUP3 ADD MSTORE PUSH14 0x6F6E206973206E6F742055555053 PUSH1 0x90 SHL PUSH1 0x64 DUP3 ADD MSTORE PUSH1 0x84 SWAP1 REVERT JUMPDEST SWAP7 SWAP2 SWAP3 SWAP6 SWAP5 SWAP4 SWAP7 SUB PUSH2 0x12D6 JUMPI POP PUSH2 0x1202 DUP6 PUSH2 0x2045 JUMP JUMPDEST PUSH32 0xBC7CD75A20EE27FD9ADEBAB32041F755214DBC6BFFA90CC0225B39DA2E5C2D3B DUP7 DUP1 LOG2 DUP3 MLOAD ISZERO DUP1 ISZERO SWAP1 PUSH2 0x12CE JUMPI JUMPDEST PUSH2 0x123D JUMPI JUMPDEST POP POP POP POP DUP1 RETURN JUMPDEST PUSH2 0x12BA SWAP4 DUP6 DUP1 DUP4 MLOAD SWAP6 PUSH2 0x124F DUP8 PUSH2 0x1D63 JUMP JUMPDEST PUSH1 0x27 DUP8 MSTORE PUSH32 0x416464726573733A206C6F772D6C6576656C2064656C65676174652063616C6C DUP7 DUP9 ADD MSTORE PUSH7 0x819985A5B1959 PUSH1 0xCA SHL DUP6 DUP9 ADD MSTORE DUP6 DUP2 MLOAD SWAP2 ADD DUP5 GAS DELEGATECALL SWAP2 RETURNDATASIZE ISZERO PUSH2 0x12C4 JUMPI RETURNDATASIZE PUSH2 0x12AC PUSH2 0x12A3 DUP3 PUSH2 0x1DB7 JUMP JUMPDEST SWAP3 MLOAD SWAP3 DUP4 PUSH2 0x1D95 JUMP JUMPDEST DUP2 MSTORE DUP7 DUP2 SWAP5 RETURNDATASIZE SWAP3 ADD RETURNDATACOPY PUSH2 0x20D5 JUMP JUMPDEST POP DUP2 DUP1 DUP1 DUP1 PUSH2 0x1236 JUMP JUMPDEST POP PUSH1 0x60 SWAP3 POP PUSH2 0x20D5 JUMP JUMPDEST POP PUSH1 0x1 PUSH2 0x1231 JUMP JUMPDEST DUP3 MLOAD PUSH3 0x461BCD PUSH1 0xE5 SHL DUP2 MSTORE SWAP1 DUP2 ADD DUP5 SWAP1 MSTORE PUSH1 0x29 PUSH1 0x24 DUP3 ADD MSTORE PUSH32 0x45524331393637557067726164653A20756E737570706F727465642070726F78 PUSH1 0x44 DUP3 ADD MSTORE PUSH9 0x1A58589B1955555251 PUSH1 0xBA SHL PUSH1 0x64 DUP3 ADD MSTORE PUSH1 0x84 SWAP1 REVERT JUMPDEST SWAP1 SWAP2 POP DUP8 DUP2 DUP2 RETURNDATASIZE DUP4 GT PUSH2 0x1357 JUMPI JUMPDEST PUSH2 0x1343 DUP2 DUP4 PUSH2 0x1D95 JUMP JUMPDEST DUP2 ADD SUB SLT PUSH2 0x1353 JUMPI MLOAD SWAP1 DUP11 PUSH2 0x118D JUMP JUMPDEST DUP10 DUP1 REVERT JUMPDEST POP RETURNDATASIZE PUSH2 0x1339 JUMP JUMPDEST DUP3 MLOAD PUSH3 0x461BCD PUSH1 0xE5 SHL DUP2 MSTORE PUSH1 0x20 DUP2 DUP9 ADD MSTORE PUSH1 0x13 PUSH1 0x24 DUP3 ADD MSTORE PUSH19 0x556E617574686F72697A656420416363657373 PUSH1 0x68 SHL PUSH1 0x44 DUP3 ADD MSTORE PUSH1 0x64 SWAP1 REVERT JUMPDEST DUP5 DUP1 REVERT JUMPDEST SWAP1 POP DUP3 CALLVALUE PUSH2 0x4D8 JUMPI PUSH1 0x20 DUP1 PUSH1 0x3 NOT CALLDATASIZE ADD SLT PUSH2 0xA92 JUMPI PUSH2 0x13B8 PUSH2 0x1E37 JUMP JUMPDEST SWAP2 PUSH1 0x1 PUSH1 0x1 PUSH1 0xA0 SHL SUB PUSH32 0x0 DUP2 AND PUSH2 0x13F0 ADDRESS DUP3 EQ ISZERO PUSH2 0x1F83 JUMP JUMPDEST PUSH2 0x140D PUSH1 0x0 DUP1 MLOAD PUSH1 0x20 PUSH2 0x24D5 DUP4 CODECOPY DUP2 MLOAD SWAP2 MSTORE SWAP2 DUP4 DUP4 SLOAD AND EQ PUSH2 0x1FE4 JUMP JUMPDEST DUP2 PUSH1 0x97 SLOAD AND CALLER SUB PUSH2 0x1659 JUMPI DUP3 MLOAD SWAP1 DUP5 DUP3 ADD SWAP3 DUP3 DUP5 LT PUSH8 0xFFFFFFFFFFFFFFFF DUP6 GT OR PUSH2 0x1646 JUMPI DUP4 DUP6 MSTORE DUP9 DUP4 MSTORE PUSH32 0x4910FDFA16FED3260ED0E7147F7CC6DA11A60208B5B9406D12A635614FFD9143 SLOAD PUSH1 0xFF AND ISZERO PUSH2 0x1472 JUMPI POP POP POP POP POP POP PUSH2 0x1165 SWAP2 POP PUSH2 0x2045 JUMP JUMPDEST DUP7 SWAP3 SWAP4 SWAP5 SWAP6 SWAP7 AND SWAP1 DUP6 MLOAD PUSH4 0x52D1902D PUSH1 0xE0 SHL DUP2 MSTORE DUP8 DUP2 DUP11 DUP2 DUP7 GAS STATICCALL DUP11 SWAP2 DUP2 PUSH2 0x1613 JUMPI JUMPDEST POP PUSH2 0x14F4 JUMPI DUP7 MLOAD PUSH3 0x461BCD PUSH1 0xE5 SHL DUP2 MSTORE DUP1 DUP11 ADD DUP10 SWAP1 MSTORE PUSH1 0x2E PUSH1 0x24 DUP3 ADD MSTORE PUSH32 0x45524331393637557067726164653A206E657720696D706C656D656E74617469 PUSH1 0x44 DUP3 ADD MSTORE PUSH14 0x6F6E206973206E6F742055555053 PUSH1 0x90 SHL PUSH1 0x64 DUP3 ADD MSTORE PUSH1 0x84 SWAP1 REVERT JUMPDEST SWAP8 SWAP2 SWAP3 SWAP4 SWAP7 SWAP6 SWAP5 SWAP8 SUB PUSH2 0x15BE JUMPI POP PUSH2 0x150B DUP3 PUSH2 0x2045 JUMP JUMPDEST PUSH32 0xBC7CD75A20EE27FD9ADEBAB32041F755214DBC6BFFA90CC0225B39DA2E5C2D3B DUP8 DUP1 LOG2 DUP6 DUP5 MLOAD ISZERO DUP1 ISZERO SWAP1 PUSH2 0x15B7 JUMPI JUMPDEST PUSH2 0x1549 JUMPI JUMPDEST POP POP POP POP POP POP DUP1 RETURN JUMPDEST DUP1 PUSH2 0x15AB SWAP7 DUP5 MLOAD SWAP7 PUSH2 0x155A DUP9 PUSH2 0x1D63 JUMP JUMPDEST PUSH1 0x27 DUP9 MSTORE PUSH32 0x416464726573733A206C6F772D6C6576656C2064656C65676174652063616C6C DUP8 DUP10 ADD MSTORE PUSH7 0x819985A5B1959 PUSH1 0xCA SHL DUP7 DUP10 ADD MSTORE MLOAD SWAP1 DUP5 GAS DELEGATECALL SWAP2 RETURNDATASIZE ISZERO PUSH2 0x12C4 JUMPI RETURNDATASIZE PUSH2 0x12AC PUSH2 0x12A3 DUP3 PUSH2 0x1DB7 JUMP JUMPDEST POP DUP2 DUP1 DUP1 DUP1 DUP1 DUP6 PUSH2 0x1540 JUMP JUMPDEST POP DUP1 PUSH2 0x153B JUMP JUMPDEST DUP4 MLOAD PUSH3 0x461BCD PUSH1 0xE5 SHL DUP2 MSTORE SWAP1 DUP2 ADD DUP6 SWAP1 MSTORE PUSH1 0x29 PUSH1 0x24 DUP3 ADD MSTORE PUSH32 0x45524331393637557067726164653A20756E737570706F727465642070726F78 PUSH1 0x44 DUP3 ADD MSTORE PUSH9 0x1A58589B1955555251 PUSH1 0xBA SHL PUSH1 0x64 DUP3 ADD MSTORE PUSH1 0x84 SWAP1 REVERT JUMPDEST SWAP1 SWAP2 POP DUP9 DUP2 DUP2 RETURNDATASIZE DUP4 GT PUSH2 0x163F JUMPI JUMPDEST PUSH2 0x162B DUP2 DUP4 PUSH2 0x1D95 JUMP JUMPDEST DUP2 ADD SUB SLT PUSH2 0x163B JUMPI MLOAD SWAP1 DUP12 PUSH2 0x1495 JUMP JUMPDEST DUP11 DUP1 REVERT JUMPDEST POP RETURNDATASIZE PUSH2 0x1621 JUMP JUMPDEST PUSH4 0x4E487B71 PUSH1 0xE0 SHL DUP10 MSTORE PUSH1 0x41 DUP9 MSTORE PUSH1 0x24 DUP10 REVERT JUMPDEST DUP3 MLOAD PUSH3 0x461BCD PUSH1 0xE5 SHL DUP2 MSTORE DUP1 DUP8 ADD DUP6 SWAP1 MSTORE PUSH1 0x13 PUSH1 0x24 DUP3 ADD MSTORE PUSH19 0x556E617574686F72697A656420416363657373 PUSH1 0x68 SHL PUSH1 0x44 DUP3 ADD MSTORE PUSH1 0x64 SWAP1 REVERT JUMPDEST DUP3 DUP5 CALLVALUE PUSH2 0xBF8 JUMPI DUP2 PUSH1 0x3 NOT CALLDATASIZE ADD SLT PUSH2 0xBF8 JUMPI PUSH1 0x98 SLOAD SWAP1 MLOAD PUSH1 0x1 PUSH1 0x1 PUSH1 0xA0 SHL SUB SWAP1 SWAP2 AND DUP2 MSTORE PUSH1 0x20 SWAP1 RETURN JUMPDEST DUP3 DUP5 CALLVALUE PUSH2 0xBF8 JUMPI PUSH1 0x80 CALLDATASIZE PUSH1 0x3 NOT ADD SLT PUSH2 0xBF8 JUMPI PUSH2 0x16D6 PUSH2 0x1E37 JUMP JUMPDEST SWAP1 PUSH8 0xFFFFFFFFFFFFFFFF PUSH1 0x44 CALLDATALOAD DUP2 DUP2 GT PUSH2 0x1397 JUMPI PUSH2 0x16F7 SWAP1 CALLDATASIZE SWAP1 DUP8 ADD PUSH2 0x1DD3 JUMP JUMPDEST SWAP1 PUSH1 0x64 SWAP6 DUP7 CALLDATALOAD SWAP4 PUSH2 0x1706 PUSH2 0x241D JUMP JUMPDEST DUP5 SWAP3 CALLER DUP9 MSTORE PUSH1 0x20 SWAP3 PUSH1 0x9B DUP5 MSTORE PUSH1 0x1 SWAP8 DUP9 DUP5 DUP12 KECCAK256 ADD SWAP8 PUSH1 0x1 DUP1 PUSH1 0xA0 SHL SUB DUP1 SWAP3 AND SWAP9 DUP10 DUP13 MSTORE DUP7 MSTORE PUSH1 0xFF DUP6 DUP13 KECCAK256 SLOAD AND ISZERO PUSH2 0x1AA3 JUMPI SWAP11 DUP11 SWAP12 DUP10 DUP13 SWAP10 SWAP11 SWAP12 SWAP13 MSTORE PUSH1 0x99 DUP8 MSTORE PUSH1 0xFF DUP7 DUP6 DUP2 DUP13 KECCAK256 ADD SWAP11 PUSH1 0x24 CALLDATALOAD SWAP12 DUP13 DUP3 MSTORE DUP11 MSTORE KECCAK256 SLOAD AND ISZERO PUSH2 0x1A62 JUMPI CALLER DUP14 MSTORE PUSH1 0x9B DUP8 MSTORE DUP6 DUP14 KECCAK256 SWAP1 ISZERO PUSH2 0x19A7 JUMPI POP POP PUSH1 0x98 SLOAD DUP5 MLOAD PUSH4 0x23B872DD PUSH1 0xE0 SHL DUP2 MSTORE CALLER DUP5 DUP3 ADD SWAP1 DUP2 MSTORE ADDRESS PUSH1 0x20 DUP3 ADD MSTORE PUSH1 0x40 DUP2 ADD DUP10 SWAP1 MSTORE SWAP1 SWAP3 DUP8 SWAP3 DUP5 SWAP3 SWAP2 AND SWAP1 DUP3 SWAP1 DUP16 SWAP1 DUP3 SWAP1 PUSH1 0x60 ADD SUB SWAP3 GAS CALL SWAP1 DUP2 ISZERO PUSH2 0x199D JUMPI SWAP1 PUSH2 0x17C2 SWAP2 DUP13 SWAP2 PUSH2 0x1980 JUMPI POP PUSH2 0x23D1 JUMP JUMPDEST PUSH1 0x9C SLOAD SWAP7 PUSH2 0x17CF DUP9 PUSH2 0x222E JUMP JUMPDEST PUSH1 0x9C SSTORE DUP8 DUP12 MSTORE PUSH1 0x9A DUP6 MSTORE DUP4 DUP12 KECCAK256 SWAP3 PUSH1 0x1 PUSH1 0x1 PUSH1 0x60 SHL SUB PUSH1 0xA0 SHL CALLER DUP2 DUP7 SLOAD AND OR DUP6 SSTORE DUP11 DUP13 DUP7 ADD SWAP2 DUP3 SLOAD AND OR SWAP1 SSTORE DUP8 PUSH1 0x2 DUP6 ADD SSTORE PUSH1 0x3 DUP5 ADD SWAP2 DUP1 MLOAD SWAP2 DUP3 GT PUSH2 0x196D JUMPI SWAP1 DUP12 DUP14 DUP5 SWAP4 PUSH2 0x1827 DUP5 PUSH2 0x2B7 DUP16 SWAP13 SWAP12 SWAP11 SWAP10 SWAP9 SLOAD PUSH2 0x1E63 JUMP JUMPDEST DUP9 SWAP2 PUSH1 0x1F DUP6 GT PUSH1 0x1 EQ PUSH2 0x18C5 JUMPI SWAP4 PUSH32 0xE04E65A2F2DE9844F70A34D2EBA1E53DDADAAD516FA4D8F5E02EE00DF908EBEF SWAP11 SWAP12 SWAP6 SWAP4 DUP2 SWAP4 DUP3 SWAP4 PUSH1 0x5 SWAP11 SWAP10 SWAP8 SWAP5 PUSH2 0x18BA JUMPI JUMPDEST POP POP SHL SWAP2 PUSH1 0x0 NOT SWAP1 PUSH1 0x3 SHL SHR NOT AND OR SWAP1 SSTORE JUMPDEST DUP3 ADD SSTORE ADD DUP1 SLOAD PUSH1 0xFF NOT AND DUP10 OR SWAP1 SSTORE MLOAD SWAP4 DUP5 MSTORE CALLER SWAP4 LOG3 PUSH32 0x52476D55ECEF5CF13CAA64038F297FE6BBF865D9584A98B8722A15A6D5DB128F DUP5 DUP1 LOG3 PUSH1 0x65 SSTORE DUP1 RETURN JUMPDEST ADD MLOAD SWAP3 POP CODESIZE DUP1 PUSH2 0x1869 JUMP JUMPDEST SWAP2 SWAP1 PUSH1 0x1F SWAP12 SWAP8 SWAP12 SWAP5 SWAP4 SWAP5 NOT DUP5 AND DUP7 DUP5 MSTORE DUP11 DUP5 KECCAK256 SWAP4 JUMPDEST DUP2 DUP2 LT PUSH2 0x193D JUMPI POP SWAP2 PUSH32 0xE04E65A2F2DE9844F70A34D2EBA1E53DDADAAD516FA4D8F5E02EE00DF908EBEF SWAP12 SWAP13 SWAP8 SWAP6 SWAP4 SWAP2 DUP6 PUSH1 0x5 SWAP11 SWAP9 SWAP7 SWAP5 LT PUSH2 0x1924 JUMPI JUMPDEST POP POP POP DUP2 SHL ADD SWAP1 SSTORE PUSH2 0x187B JUMP JUMPDEST ADD MLOAD PUSH1 0x0 NOT PUSH1 0xF8 DUP5 PUSH1 0x3 SHL AND SHR NOT AND SWAP1 SSTORE CODESIZE DUP1 DUP1 PUSH2 0x1917 JUMP JUMPDEST SWAP5 SWAP7 SWAP8 SWAP9 SWAP10 SWAP12 POP SWAP2 SWAP5 SWAP10 DUP1 SWAP13 SWAP11 DUP3 SWAP5 DUP8 DUP4 SWAP5 ADD MLOAD DUP2 SSTORE ADD SWAP6 ADD SWAP4 ADD SWAP2 DUP16 SWAP5 SWAP3 SWAP2 DUP15 SWAP12 SWAP10 SWAP9 SWAP8 SWAP7 SWAP5 SWAP3 SWAP13 SWAP11 SWAP13 PUSH2 0x18DA JUMP JUMPDEST PUSH4 0x4E487B71 PUSH1 0xE0 SHL DUP14 MSTORE PUSH1 0x41 DUP5 MSTORE PUSH1 0x24 DUP14 REVERT JUMPDEST PUSH2 0x1997 SWAP2 POP DUP7 RETURNDATASIZE DUP9 GT PUSH2 0x455 JUMPI PUSH2 0x447 DUP2 DUP4 PUSH2 0x1D95 JUMP JUMPDEST DUP13 PUSH2 0x260 JUMP JUMPDEST DUP5 MLOAD RETURNDATASIZE DUP14 DUP3 RETURNDATACOPY RETURNDATASIZE SWAP1 REVERT JUMPDEST DUP11 DUP14 MSTORE PUSH1 0x2 ADD DUP1 DUP8 MSTORE DUP6 DUP14 KECCAK256 SLOAD SWAP4 SWAP8 POP SWAP1 SWAP3 SWAP1 SWAP2 POP ISZERO PUSH2 0x1A09 JUMPI DUP9 DUP12 MSTORE DUP5 MSTORE DUP1 DUP4 DUP12 KECCAK256 SLOAD GT PUSH1 0x0 EQ PUSH2 0x19FE JUMPI SWAP4 JUMPDEST DUP5 DUP4 DUP12 KECCAK256 DUP1 SLOAD SWAP2 DUP3 SUB SWAP2 DUP3 GT PUSH2 0x19EB JUMPI SSTORE PUSH2 0x17C2 JUMP JUMPDEST PUSH4 0x4E487B71 PUSH1 0xE0 SHL DUP13 MSTORE PUSH1 0x11 DUP4 MSTORE PUSH1 0x24 DUP13 REVERT JUMPDEST POP DUP2 DUP10 KECCAK256 SLOAD SWAP4 PUSH2 0x19D5 JUMP JUMPDEST DUP4 MLOAD PUSH3 0x461BCD PUSH1 0xE5 SHL DUP2 MSTORE DUP1 DUP8 ADD DUP7 SWAP1 MSTORE PUSH1 0x2E PUSH1 0x24 DUP3 ADD MSTORE PUSH32 0x4E6F207061796D656E742070726F766964656420616E64206E6F20616C6C6F77 PUSH1 0x44 DUP3 ADD MSTORE PUSH14 0x616E636520617661696C61626C65 PUSH1 0x90 SHL DUP2 DUP5 ADD MSTORE PUSH1 0x84 SWAP1 REVERT JUMPDEST POP DUP5 MLOAD PUSH3 0x461BCD PUSH1 0xE5 SHL DUP2 MSTORE DUP1 DUP5 ADD DUP8 SWAP1 MSTORE PUSH1 0x24 DUP2 ADD DUP8 SWAP1 MSTORE PUSH32 0x5461736B2074797065206E6F7420737570706F72746564206279206167656E74 PUSH1 0x44 DUP3 ADD MSTORE REVERT JUMPDEST DUP5 MLOAD PUSH3 0x461BCD PUSH1 0xE5 SHL DUP2 MSTORE DUP1 DUP5 ADD DUP8 SWAP1 MSTORE PUSH1 0x1D PUSH1 0x24 DUP3 ADD MSTORE PUSH32 0x4167656E74206E6F74207265676973746572656420666F722075736572000000 PUSH1 0x44 DUP3 ADD MSTORE DUP13 SWAP1 REVERT JUMPDEST SWAP1 POP DUP3 CALLVALUE PUSH2 0x4D8 JUMPI DUP1 PUSH1 0x3 NOT CALLDATASIZE ADD SLT PUSH2 0x4D8 JUMPI PUSH8 0xFFFFFFFFFFFFFFFF SWAP1 DUP3 CALLDATALOAD DUP3 DUP2 GT PUSH2 0x1397 JUMPI PUSH2 0x1B18 SWAP1 CALLDATASIZE SWAP1 DUP6 ADD PUSH2 0x1DD3 JUMP JUMPDEST SWAP2 PUSH1 0x24 CALLDATALOAD SWAP4 DUP2 DUP6 GT PUSH2 0x4D4 JUMPI CALLDATASIZE PUSH1 0x23 DUP7 ADD SLT ISZERO PUSH2 0x4D4 JUMPI DUP5 DUP2 ADD CALLDATALOAD SWAP1 PUSH2 0x1B3D DUP3 PUSH2 0x1E1F JUMP JUMPDEST SWAP3 PUSH2 0x1B4A DUP6 MLOAD SWAP5 DUP6 PUSH2 0x1D95 JUMP JUMPDEST DUP3 DUP5 MSTORE PUSH1 0x20 SWAP7 DUP8 DUP6 ADD PUSH1 0x24 PUSH1 0x5 SWAP6 DUP7 SHL DUP4 ADD ADD SWAP2 CALLDATASIZE DUP4 GT PUSH2 0x163B JUMPI PUSH1 0x24 DUP11 SWAP2 ADD SWAP2 JUMPDEST DUP4 DUP4 LT PUSH2 0x1D53 JUMPI POP POP POP POP CALLER DUP9 MSTORE PUSH1 0x99 DUP8 MSTORE PUSH1 0xFF PUSH1 0x2 DUP7 DUP11 KECCAK256 ADD SLOAD AND PUSH2 0x1D10 JUMPI CALLER DUP9 MSTORE PUSH1 0x99 DUP8 MSTORE DUP5 DUP9 KECCAK256 SWAP3 CALLER PUSH1 0x1 PUSH1 0x1 PUSH1 0x60 SHL SUB PUSH1 0xA0 SHL DUP6 SLOAD AND OR DUP5 SSTORE PUSH1 0x1 SWAP2 DUP3 DUP6 ADD SWAP1 DUP9 MLOAD SWAP1 DUP2 GT PUSH2 0x1CFD JUMPI SWAP1 DUP2 PUSH2 0x1BD1 DUP6 SWAP5 SWAP4 PUSH2 0x1BCB DUP5 SLOAD PUSH2 0x1E63 JUMP JUMPDEST DUP5 PUSH2 0x21E9 JUMP JUMPDEST DUP11 PUSH1 0x1F DUP3 GT PUSH1 0x1 EQ PUSH2 0x1C99 JUMPI DUP13 SWAP1 DUP3 PUSH2 0x1C8E JUMPI JUMPDEST POP PUSH1 0x0 NOT PUSH1 0x3 DUP4 SWAP1 SHL SHR NOT AND SWAP1 DUP5 SHL OR SWAP1 SSTORE SWAP1 SWAP4 JUMPDEST PUSH1 0x2 DUP2 ADD SWAP4 PUSH1 0xFF NOT SWAP5 DUP5 DUP7 DUP3 SLOAD AND OR SWAP1 SSTORE PUSH1 0x64 PUSH1 0x3 DUP4 ADD SSTORE DUP11 SWAP2 ADD SWAP3 JUMPDEST PUSH2 0x1C54 JUMPI JUMPDEST DUP7 MLOAD DUP10 DUP2 MSTORE DUP11 SWAP1 CALLER SWAP1 PUSH32 0xDA816CA2FC37B9EECEC62AE8263008EC6BE1AFB38DC28BC9C7C51D7E348DA9C2 SWAP1 DUP1 PUSH2 0xEAA DUP2 DUP16 ADD DUP15 PUSH2 0x1F43 JUMP JUMPDEST DUP6 MLOAD DUP2 LT ISZERO PUSH2 0x1C89 JUMPI SWAP1 PUSH2 0x1C81 DUP3 DUP11 DUP8 SWAP6 SWAP5 DUP5 SHL DUP10 ADD ADD MLOAD DUP13 MSTORE DUP4 DUP12 MSTORE DUP9 DUP13 KECCAK256 DUP6 DUP8 DUP3 SLOAD AND OR SWAP1 SSTORE PUSH2 0x222E JUMP JUMPDEST SWAP1 SWAP2 SWAP3 PUSH2 0x1C17 JUMP JUMPDEST PUSH2 0x1C1C JUMP JUMPDEST SWAP1 POP DUP11 ADD MLOAD DUP14 PUSH2 0x1BE5 JUMP JUMPDEST DUP3 DUP14 MSTORE DUP12 DUP14 KECCAK256 SWAP1 PUSH1 0x1F NOT DUP4 AND DUP15 DUP15 DUP15 JUMPDEST DUP4 DUP4 LT PUSH2 0x1CE6 JUMPI POP POP POP SWAP1 DUP4 DUP8 SWAP5 SWAP4 SWAP3 LT PUSH2 0x1CCD JUMPI JUMPDEST POP POP DUP2 SHL ADD SWAP1 SSTORE SWAP1 SWAP4 PUSH2 0x1BFA JUMP JUMPDEST DUP13 ADD MLOAD PUSH1 0x0 NOT PUSH1 0xF8 DUP5 PUSH1 0x3 SHL AND SHR NOT AND SWAP1 SSTORE DUP14 DUP1 PUSH2 0x1CBF JUMP JUMPDEST DUP5 ADD MLOAD DUP6 SSTORE DUP10 SWAP9 SWAP1 SWAP5 ADD SWAP4 SWAP3 DUP4 ADD SWAP3 ADD DUP15 DUP15 PUSH2 0x1CA9 JUMP JUMPDEST PUSH4 0x4E487B71 PUSH1 0xE0 SHL DUP12 MSTORE PUSH1 0x41 DUP6 MSTORE PUSH1 0x24 DUP12 REVERT JUMPDEST DUP5 MLOAD PUSH3 0x461BCD PUSH1 0xE5 SHL DUP2 MSTORE DUP1 DUP4 ADD DUP9 SWAP1 MSTORE PUSH1 0x18 PUSH1 0x24 DUP3 ADD MSTORE PUSH32 0x4167656E7420616C726561647920726567697374657265640000000000000000 PUSH1 0x44 DUP3 ADD MSTORE PUSH1 0x64 SWAP1 REVERT JUMPDEST DUP3 CALLDATALOAD DUP2 MSTORE SWAP2 DUP2 ADD SWAP2 DUP11 SWAP2 ADD PUSH2 0x1B6C JUMP JUMPDEST PUSH1 0x60 DUP2 ADD SWAP1 DUP2 LT PUSH8 0xFFFFFFFFFFFFFFFF DUP3 GT OR PUSH2 0x1D7F JUMPI PUSH1 0x40 MSTORE JUMP JUMPDEST PUSH4 0x4E487B71 PUSH1 0xE0 SHL PUSH1 0x0 MSTORE PUSH1 0x41 PUSH1 0x4 MSTORE PUSH1 0x24 PUSH1 0x0 REVERT JUMPDEST SWAP1 PUSH1 0x1F DUP1 NOT SWAP2 ADD AND DUP2 ADD SWAP1 DUP2 LT PUSH8 0xFFFFFFFFFFFFFFFF DUP3 GT OR PUSH2 0x1D7F JUMPI PUSH1 0x40 MSTORE JUMP JUMPDEST PUSH8 0xFFFFFFFFFFFFFFFF DUP2 GT PUSH2 0x1D7F JUMPI PUSH1 0x1F ADD PUSH1 0x1F NOT AND PUSH1 0x20 ADD SWAP1 JUMP JUMPDEST DUP2 PUSH1 0x1F DUP3 ADD SLT ISZERO PUSH2 0x1E1A JUMPI DUP1 CALLDATALOAD SWAP1 PUSH2 0x1DEA DUP3 PUSH2 0x1DB7 JUMP JUMPDEST SWAP3 PUSH2 0x1DF8 PUSH1 0x40 MLOAD SWAP5 DUP6 PUSH2 0x1D95 JUMP JUMPDEST DUP3 DUP5 MSTORE PUSH1 0x20 DUP4 DUP4 ADD ADD GT PUSH2 0x1E1A JUMPI DUP2 PUSH1 0x0 SWAP3 PUSH1 0x20 DUP1 SWAP4 ADD DUP4 DUP7 ADD CALLDATACOPY DUP4 ADD ADD MSTORE SWAP1 JUMP JUMPDEST PUSH1 0x0 DUP1 REVERT JUMPDEST PUSH8 0xFFFFFFFFFFFFFFFF DUP2 GT PUSH2 0x1D7F JUMPI PUSH1 0x5 SHL PUSH1 0x20 ADD SWAP1 JUMP JUMPDEST PUSH1 0x4 CALLDATALOAD SWAP1 PUSH1 0x1 PUSH1 0x1 PUSH1 0xA0 SHL SUB DUP3 AND DUP3 SUB PUSH2 0x1E1A JUMPI JUMP JUMPDEST PUSH1 0x24 CALLDATALOAD SWAP1 PUSH1 0x1 PUSH1 0x1 PUSH1 0xA0 SHL SUB DUP3 AND DUP3 SUB PUSH2 0x1E1A JUMPI JUMP JUMPDEST SWAP1 PUSH1 0x1 DUP3 DUP2 SHR SWAP3 AND DUP1 ISZERO PUSH2 0x1E93 JUMPI JUMPDEST PUSH1 0x20 DUP4 LT EQ PUSH2 0x1E7D JUMPI JUMP JUMPDEST PUSH4 0x4E487B71 PUSH1 0xE0 SHL PUSH1 0x0 MSTORE PUSH1 0x22 PUSH1 0x4 MSTORE PUSH1 0x24 PUSH1 0x0 REVERT JUMPDEST SWAP2 PUSH1 0x7F AND SWAP2 PUSH2 0x1E72 JUMP JUMPDEST SWAP1 PUSH1 0x40 MLOAD SWAP2 DUP3 PUSH1 0x0 DUP3 SLOAD SWAP3 PUSH2 0x1EB1 DUP5 PUSH2 0x1E63 JUMP JUMPDEST SWAP1 DUP2 DUP5 MSTORE PUSH1 0x1 SWAP5 DUP6 DUP2 AND SWAP1 DUP2 PUSH1 0x0 EQ PUSH2 0x1F20 JUMPI POP PUSH1 0x1 EQ PUSH2 0x1EDD JUMPI JUMPDEST POP POP PUSH2 0x1EDB SWAP3 POP SUB DUP4 PUSH2 0x1D95 JUMP JUMPDEST JUMP JUMPDEST SWAP1 SWAP4 SWAP2 POP PUSH1 0x0 MSTORE PUSH1 0x20 SWAP1 DUP2 PUSH1 0x0 KECCAK256 SWAP4 PUSH1 0x0 SWAP2 JUMPDEST DUP2 DUP4 LT PUSH2 0x1F08 JUMPI POP POP PUSH2 0x1EDB SWAP4 POP DUP3 ADD ADD CODESIZE DUP1 PUSH2 0x1ECD JUMP JUMPDEST DUP6 SLOAD DUP9 DUP5 ADD DUP6 ADD MSTORE SWAP5 DUP6 ADD SWAP5 DUP8 SWAP5 POP SWAP2 DUP4 ADD SWAP2 PUSH2 0x1EF0 JUMP JUMPDEST SWAP2 POP POP PUSH2 0x1EDB SWAP5 POP PUSH1 0x20 SWAP3 POP PUSH1 0xFF NOT AND DUP3 DUP5 ADD MSTORE ISZERO ISZERO PUSH1 0x5 SHL DUP3 ADD ADD CODESIZE DUP1 PUSH2 0x1ECD JUMP JUMPDEST SWAP2 SWAP1 DUP3 MLOAD SWAP3 DUP4 DUP3 MSTORE PUSH1 0x0 JUMPDEST DUP5 DUP2 LT PUSH2 0x1F6F JUMPI POP POP DUP3 PUSH1 0x0 PUSH1 0x20 DUP1 SWAP5 SWAP6 DUP5 ADD ADD MSTORE PUSH1 0x1F DUP1 NOT SWAP2 ADD AND ADD ADD SWAP1 JUMP JUMPDEST PUSH1 0x20 DUP2 DUP4 ADD DUP2 ADD MLOAD DUP5 DUP4 ADD DUP3 ADD MSTORE ADD PUSH2 0x1F4E JUMP JUMPDEST ISZERO PUSH2 0x1F8A JUMPI JUMP JUMPDEST PUSH1 0x40 MLOAD PUSH3 0x461BCD PUSH1 0xE5 SHL DUP2 MSTORE PUSH1 0x20 PUSH1 0x4 DUP3 ADD MSTORE PUSH1 0x2C PUSH1 0x24 DUP3 ADD MSTORE PUSH32 0x46756E6374696F6E206D7573742062652063616C6C6564207468726F75676820 PUSH1 0x44 DUP3 ADD MSTORE PUSH12 0x19195B1959D85D1958D85B1B PUSH1 0xA2 SHL PUSH1 0x64 DUP3 ADD MSTORE PUSH1 0x84 SWAP1 REVERT JUMPDEST ISZERO PUSH2 0x1FEB JUMPI JUMP JUMPDEST PUSH1 0x40 MLOAD PUSH3 0x461BCD PUSH1 0xE5 SHL DUP2 MSTORE PUSH1 0x20 PUSH1 0x4 DUP3 ADD MSTORE PUSH1 0x2C PUSH1 0x24 DUP3 ADD MSTORE PUSH32 0x46756E6374696F6E206D7573742062652063616C6C6564207468726F75676820 PUSH1 0x44 DUP3 ADD MSTORE PUSH12 0x6163746976652070726F7879 PUSH1 0xA0 SHL PUSH1 0x64 DUP3 ADD MSTORE PUSH1 0x84 SWAP1 REVERT JUMPDEST DUP1 EXTCODESIZE ISZERO PUSH2 0x207A JUMPI PUSH1 0x0 DUP1 MLOAD PUSH1 0x20 PUSH2 0x24D5 DUP4 CODECOPY DUP2 MLOAD SWAP2 MSTORE DUP1 SLOAD PUSH1 0x1 PUSH1 0x1 PUSH1 0xA0 SHL SUB NOT AND PUSH1 0x1 PUSH1 0x1 PUSH1 0xA0 SHL SUB SWAP1 SWAP3 AND SWAP2 SWAP1 SWAP2 OR SWAP1 SSTORE JUMP JUMPDEST PUSH1 0x40 MLOAD PUSH3 0x461BCD PUSH1 0xE5 SHL DUP2 MSTORE PUSH1 0x20 PUSH1 0x4 DUP3 ADD MSTORE PUSH1 0x2D PUSH1 0x24 DUP3 ADD MSTORE PUSH32 0x455243313936373A206E657720696D706C656D656E746174696F6E206973206E PUSH1 0x44 DUP3 ADD MSTORE PUSH13 0x1BDD08184818DBDB9D1C9858DD PUSH1 0x9A SHL PUSH1 0x64 DUP3 ADD MSTORE PUSH1 0x84 SWAP1 REVERT JUMPDEST SWAP2 SWAP3 SWAP1 ISZERO PUSH2 0x2137 JUMPI POP DUP2 MLOAD ISZERO PUSH2 0x20E9 JUMPI POP SWAP1 JUMP JUMPDEST EXTCODESIZE ISZERO PUSH2 0x20F2 JUMPI SWAP1 JUMP JUMPDEST PUSH1 0x40 MLOAD PUSH3 0x461BCD PUSH1 0xE5 SHL DUP2 MSTORE PUSH1 0x20 PUSH1 0x4 DUP3 ADD MSTORE PUSH1 0x1D PUSH1 0x24 DUP3 ADD MSTORE PUSH32 0x416464726573733A2063616C6C20746F206E6F6E2D636F6E7472616374000000 PUSH1 0x44 DUP3 ADD MSTORE PUSH1 0x64 SWAP1 REVERT JUMPDEST DUP3 MLOAD SWAP1 SWAP2 POP ISZERO PUSH2 0x214A JUMPI POP DUP1 MLOAD SWAP1 PUSH1 0x20 ADD REVERT JUMPDEST PUSH1 0x40 MLOAD PUSH3 0x461BCD PUSH1 0xE5 SHL DUP2 MSTORE PUSH1 0x20 PUSH1 0x4 DUP3 ADD MSTORE SWAP1 DUP2 SWAP1 PUSH2 0x216E SWAP1 PUSH1 0x24 DUP4 ADD SWAP1 PUSH2 0x1F43 JUMP JUMPDEST SUB SWAP1 REVERT JUMPDEST ISZERO PUSH2 0x2179 JUMPI JUMP JUMPDEST PUSH1 0x40 MLOAD PUSH3 0x461BCD PUSH1 0xE5 SHL DUP2 MSTORE PUSH1 0x20 PUSH1 0x4 DUP3 ADD MSTORE PUSH1 0x2B PUSH1 0x24 DUP3 ADD MSTORE PUSH32 0x496E697469616C697A61626C653A20636F6E7472616374206973206E6F742069 PUSH1 0x44 DUP3 ADD MSTORE PUSH11 0x6E697469616C697A696E67 PUSH1 0xA8 SHL PUSH1 0x64 DUP3 ADD MSTORE PUSH1 0x84 SWAP1 REVERT JUMPDEST DUP2 DUP2 LT PUSH2 0x21DD JUMPI POP POP JUMP JUMPDEST PUSH1 0x0 DUP2 SSTORE PUSH1 0x1 ADD PUSH2 0x21D2 JUMP JUMPDEST SWAP2 SWAP1 PUSH1 0x1F DUP2 GT PUSH2 0x21F8 JUMPI POP POP POP JUMP JUMPDEST PUSH2 0x1EDB SWAP3 PUSH1 0x0 MSTORE PUSH1 0x20 PUSH1 0x0 KECCAK256 SWAP1 PUSH1 0x20 PUSH1 0x1F DUP5 ADD PUSH1 0x5 SHR DUP4 ADD SWAP4 LT PUSH2 0x2224 JUMPI JUMPDEST PUSH1 0x1F ADD PUSH1 0x5 SHR ADD SWAP1 PUSH2 0x21D2 JUMP JUMPDEST SWAP1 SWAP2 POP DUP2 SWAP1 PUSH2 0x2217 JUMP JUMPDEST PUSH1 0x0 NOT DUP2 EQ PUSH2 0x223D JUMPI PUSH1 0x1 ADD SWAP1 JUMP JUMPDEST PUSH4 0x4E487B71 PUSH1 0xE0 SHL PUSH1 0x0 MSTORE PUSH1 0x11 PUSH1 0x4 MSTORE PUSH1 0x24 PUSH1 0x0 REVERT JUMPDEST ISZERO PUSH2 0x225A JUMPI JUMP JUMPDEST PUSH1 0x40 MLOAD PUSH3 0x461BCD PUSH1 0xE5 SHL DUP2 MSTORE PUSH1 0x20 PUSH1 0x4 DUP3 ADD MSTORE PUSH1 0x1E PUSH1 0x24 DUP3 ADD MSTORE PUSH32 0x4167656E74206E6F74207265676973746572656420696E2073797374656D0000 PUSH1 0x44 DUP3 ADD MSTORE PUSH1 0x64 SWAP1 REVERT JUMPDEST ISZERO PUSH2 0x22A6 JUMPI JUMP JUMPDEST PUSH1 0x40 MLOAD PUSH3 0x461BCD PUSH1 0xE5 SHL DUP2 MSTORE PUSH1 0x20 PUSH1 0x4 DUP3 ADD MSTORE PUSH1 0x21 PUSH1 0x24 DUP3 ADD MSTORE PUSH32 0x4167656E7420616C7265616479207265676973746572656420666F7220757365 PUSH1 0x44 DUP3 ADD MSTORE PUSH1 0x39 PUSH1 0xF9 SHL PUSH1 0x64 DUP3 ADD MSTORE PUSH1 0x84 SWAP1 REVERT JUMPDEST SWAP1 DUP2 PUSH1 0x20 SWAP2 SUB SLT PUSH2 0x1E1A JUMPI MLOAD DUP1 ISZERO ISZERO DUP2 SUB PUSH2 0x1E1A JUMPI SWAP1 JUMP JUMPDEST ISZERO PUSH2 0x2314 JUMPI JUMP JUMPDEST PUSH1 0x40 MLOAD PUSH3 0x461BCD PUSH1 0xE5 SHL DUP2 MSTORE PUSH1 0x20 PUSH1 0x4 DUP3 ADD MSTORE PUSH1 0x21 PUSH1 0x24 DUP3 ADD MSTORE PUSH32 0x5061796D656E7420616C6C6F77616E6365207472616E73666572206661696C65 PUSH1 0x44 DUP3 ADD MSTORE PUSH1 0x19 PUSH1 0xFA SHL PUSH1 0x64 DUP3 ADD MSTORE PUSH1 0x84 SWAP1 REVERT JUMPDEST DUP1 SLOAD DUP3 LT ISZERO PUSH2 0x237B JUMPI PUSH1 0x0 MSTORE PUSH1 0x20 PUSH1 0x0 KECCAK256 ADD SWAP1 PUSH1 0x0 SWAP1 JUMP JUMPDEST PUSH4 0x4E487B71 PUSH1 0xE0 SHL PUSH1 0x0 MSTORE PUSH1 0x32 PUSH1 0x4 MSTORE PUSH1 0x24 PUSH1 0x0 REVERT JUMPDEST DUP1 SLOAD PUSH1 0x1 PUSH1 0x40 SHL DUP2 LT ISZERO PUSH2 0x1D7F JUMPI PUSH2 0x23AE SWAP2 PUSH1 0x1 DUP3 ADD DUP2 SSTORE PUSH2 0x2363 JUMP JUMPDEST DUP2 SWAP3 SWAP2 SLOAD SWAP1 PUSH1 0x3 SHL SWAP2 PUSH1 0x1 DUP1 PUSH1 0xA0 SHL SUB SWAP3 DUP4 DUP2 SHL SWAP4 DUP5 SWAP3 AND SWAP1 SHL AND SWAP2 NOT AND OR SWAP1 SSTORE JUMP JUMPDEST ISZERO PUSH2 0x23D8 JUMPI JUMP JUMPDEST PUSH1 0x40 MLOAD PUSH3 0x461BCD PUSH1 0xE5 SHL DUP2 MSTORE PUSH1 0x20 PUSH1 0x4 DUP3 ADD MSTORE PUSH1 0x17 PUSH1 0x24 DUP3 ADD MSTORE PUSH32 0x5061796D656E74207472616E73666572206661696C6564000000000000000000 PUSH1 0x44 DUP3 ADD MSTORE PUSH1 0x64 SWAP1 REVERT JUMPDEST PUSH1 0x2 PUSH1 0x65 SLOAD EQ PUSH2 0x242E JUMPI PUSH1 0x2 PUSH1 0x65 SSTORE JUMP JUMPDEST PUSH1 0x40 MLOAD PUSH3 0x461BCD PUSH1 0xE5 SHL DUP2 MSTORE PUSH1 0x20 PUSH1 0x4 DUP3 ADD MSTORE PUSH1 0x1F PUSH1 0x24 DUP3 ADD MSTORE PUSH32 0x5265656E7472616E637947756172643A207265656E7472616E742063616C6C00 PUSH1 0x44 DUP3 ADD MSTORE PUSH1 0x64 SWAP1 REVERT JUMPDEST ISZERO PUSH2 0x247A JUMPI JUMP JUMPDEST PUSH1 0x40 MLOAD PUSH3 0x461BCD PUSH1 0xE5 SHL DUP2 MSTORE PUSH1 0x20 PUSH1 0x4 DUP3 ADD MSTORE PUSH1 0x12 PUSH1 0x24 DUP3 ADD MSTORE PUSH18 0x139BDD08185CDCDA59DB9959081859D95B9D PUSH1 0x72 SHL PUSH1 0x44 DUP3 ADD MSTORE PUSH1 0x64 SWAP1 REVERT INVALID 0xB1 0x4E 0xAF 0xE9 XOR 0xED 0x2E 0xBE COINBASE SHR 0xA6 0xD1 SHR RETURNDATACOPY CREATE2 0xC8 CALLER SIGNEXTEND CREATE SWAP8 SWAP16 LOG0 CODESIZE 0x4E CREATE CALLCODE PUSH12 0x8ED7B50FBF360894A13BA1A3 0x21 MOD PUSH8 0xC828492DB98DCA3E KECCAK256 PUSH23 0xCC3735A920A3CA505D382BBCA26469706673582212205C SLT KECCAK256 CALLCODE 0xBB EXTCODESIZE 0xA9 0xB8 0xC9 MSIZE PUSH10 0x727418D2CCFD264A4172 SWAP12 SWAP7 0xA5 0x4B ADD PUSH7 0x6B4BE81D4B6473 PUSH16 0x6C634300081100330000000000000000 "},"gasEstimates":{"creation":{"codeDepositCost":"1902800","executionCost":"infinite","totalCost":"infinite"},"external":{"agents(address)":"infinite","assignTask(uint256)":"57080","completeTask(uint256,bytes)":"infinite","createTask(bytes32,string,uint256,address[])":"infinite","executeAgentTask(address,bytes32,string,uint256)":"infinite","initialize(address)":"infinite","owner()":"2493","paymentToken()":"2339","proxiableUUID()":"infinite","registerAgent(string,bytes32[])":"infinite","registerAgentForOtherUser(address,address,uint256)":"infinite","registerAgentForUser(address,uint256)":"infinite","requestCollaboration(uint256,address)":"infinite","taskCounter()":"2406","tasks(uint256)":"infinite","upgradeTo(address)":"infinite","upgradeToAndCall(address,bytes)":"infinite"},"internal":{"_authorizeUpgrade(address)":"infinite"}},"methodIdentifiers":{"agents(address)":"fd66091e","assignTask(uint256)":"b8573185","completeTask(uint256,bytes)":"7a2ccd35","createTask(bytes32,string,uint256,address[])":"de2ddc59","executeAgentTask(address,bytes32,string,uint256)":"0cfb932f","initialize(address)":"c4d66de8","owner()":"8da5cb5b","paymentToken()":"3013ce29","proxiableUUID()":"52d1902d","registerAgent(string,bytes32[])":"01730516","registerAgentForOtherUser(address,address,uint256)":"d174c3e2","registerAgentForUser(address,uint256)":"c30c4476","requestCollaboration(uint256,address)":"b053cef3","taskCounter()":"58671730","tasks(uint256)":"8d977672","upgradeTo(address)":"3659cfe6","upgradeToAndCall(address,bytes)":"4f1ef286"}},"storageLayout":{"storage":[{"astId":371,"contract":"contracts/WWANProtocol.sol:WWANProtocol","label":"_initialized","offset":0,"slot":"0","type":"t_uint8"},{"astId":374,"contract":"contracts/WWANProtocol.sol:WWANProtocol","label":"_initializing","offset":1,"slot":"0","type":"t_bool"},{"astId":353,"contract":"contracts/WWANProtocol.sol:WWANProtocol","label":"__gap","offset":0,"slot":"1","type":"t_array(t_uint256)50_storage"},{"astId":668,"contract":"contracts/WWANProtocol.sol:WWANProtocol","label":"__gap","offset":0,"slot":"51","type":"t_array(t_uint256)50_storage"},{"astId":683,"contract":"contracts/WWANProtocol.sol:WWANProtocol","label":"_status","offset":0,"slot":"101","type":"t_uint256"},{"astId":752,"contract":"contracts/WWANProtocol.sol:WWANProtocol","label":"__gap","offset":0,"slot":"102","type":"t_array(t_uint256)49_storage"},{"astId":1412,"contract":"contracts/WWANProtocol.sol:WWANProtocol","label":"owner","offset":0,"slot":"151","type":"t_address"},{"astId":1415,"contract":"contracts/WWANProtocol.sol:WWANProtocol","label":"paymentToken","offset":0,"slot":"152","type":"t_contract(IERC20Upgradeable)831"},{"astId":1470,"contract":"contracts/WWANProtocol.sol:WWANProtocol","label":"agents","offset":0,"slot":"153","type":"t_mapping(t_address,t_struct(Agent)1428_storage)"},{"astId":1475,"contract":"contracts/WWANProtocol.sol:WWANProtocol","label":"tasks","offset":0,"slot":"154","type":"t_mapping(t_uint256,t_struct(Task)1447_storage)"},{"astId":1480,"contract":"contracts/WWANProtocol.sol:WWANProtocol","label":"userAgents","offset":0,"slot":"155","type":"t_mapping(t_address,t_struct(UserAgentRegistry)1459_storage)"},{"astId":1482,"contract":"contracts/WWANProtocol.sol:WWANProtocol","label":"taskCounter","offset":0,"slot":"156","type":"t_uint256"}],"types":{"t_address":{"encoding":"inplace","label":"address","numberOfBytes":"20"},"t_array(t_address)dyn_storage":{"base":"t_address","encoding":"dynamic_array","label":"address[]","numberOfBytes":"32"},"t_array(t_uint256)49_storage":{"base":"t_uint256","encoding":"inplace","label":"uint256[49]","numberOfBytes":"1568"},"t_array(t_uint256)50_storage":{"base":"t_uint256","encoding":"inplace","label":"uint256[50]","numberOfBytes":"1600"},"t_bool":{"encoding":"inplace","label":"bool","numberOfBytes":"1"},"t_bytes32":{"encoding":"inplace","label":"bytes32","numberOfBytes":"32"},"t_bytes_storage":{"encoding":"bytes","label":"bytes","numberOfBytes":"32"},"t_contract(IERC20Upgradeable)831":{"encoding":"inplace","label":"contract IERC20Upgradeable","numberOfBytes":"20"},"t_enum(TaskStatus)1465":{"encoding":"inplace","label":"enum WWANProtocol.TaskStatus","numberOfBytes":"1"},"t_mapping(t_address,t_bool)":{"encoding":"mapping","key":"t_address","label":"mapping(address => bool)","numberOfBytes":"32","value":"t_bool"},"t_mapping(t_address,t_struct(Agent)1428_storage)":{"encoding":"mapping","key":"t_address","label":"mapping(address => struct WWANProtocol.Agent)","numberOfBytes":"32","value":"t_struct(Agent)1428_storage"},"t_mapping(t_address,t_struct(UserAgentRegistry)1459_storage)":{"encoding":"mapping","key":"t_address","label":"mapping(address => struct WWANProtocol.UserAgentRegistry)","numberOfBytes":"32","value":"t_struct(UserAgentRegistry)1459_storage"},"t_mapping(t_address,t_uint256)":{"encoding":"mapping","key":"t_address","label":"mapping(address => uint256)","numberOfBytes":"32","value":"t_uint256"},"t_mapping(t_bytes32,t_bool)":{"encoding":"mapping","key":"t_bytes32","label":"mapping(bytes32 => bool)","numberOfBytes":"32","value":"t_bool"},"t_mapping(t_uint256,t_struct(Task)1447_storage)":{"encoding":"mapping","key":"t_uint256","label":"mapping(uint256 => struct WWANProtocol.Task)","numberOfBytes":"32","value":"t_struct(Task)1447_storage"},"t_string_storage":{"encoding":"bytes","label":"string","numberOfBytes":"32"},"t_struct(Agent)1428_storage":{"encoding":"inplace","label":"struct WWANProtocol.Agent","members":[{"astId":1417,"contract":"contracts/WWANProtocol.sol:WWANProtocol","label":"agentAddress","offset":0,"slot":"0","type":"t_address"},{"astId":1419,"contract":"contracts/WWANProtocol.sol:WWANProtocol","label":"metadata","offset":0,"slot":"1","type":"t_string_storage"},{"astId":1421,"contract":"contracts/WWANProtocol.sol:WWANProtocol","label":"isActive","offset":0,"slot":"2","type":"t_bool"},{"astId":1423,"contract":"contracts/WWANProtocol.sol:WWANProtocol","label":"reputation","offset":0,"slot":"3","type":"t_uint256"},{"astId":1427,"contract":"contracts/WWANProtocol.sol:WWANProtocol","label":"supportedTaskTypes","offset":0,"slot":"4","type":"t_mapping(t_bytes32,t_bool)"}],"numberOfBytes":"160"},"t_struct(Task)1447_storage":{"encoding":"inplace","label":"struct WWANProtocol.Task","members":[{"astId":1430,"contract":"contracts/WWANProtocol.sol:WWANProtocol","label":"creator","offset":0,"slot":"0","type":"t_address"},{"astId":1432,"contract":"contracts/WWANProtocol.sol:WWANProtocol","label":"assignedAgent","offset":0,"slot":"1","type":"t_address"},{"astId":1434,"contract":"contracts/WWANProtocol.sol:WWANProtocol","label":"taskType","offset":0,"slot":"2","type":"t_bytes32"},{"astId":1436,"contract":"contracts/WWANProtocol.sol:WWANProtocol","label":"taskData","offset":0,"slot":"3","type":"t_string_storage"},{"astId":1438,"contract":"contracts/WWANProtocol.sol:WWANProtocol","label":"payment","offset":0,"slot":"4","type":"t_uint256"},{"astId":1441,"contract":"contracts/WWANProtocol.sol:WWANProtocol","label":"status","offset":0,"slot":"5","type":"t_enum(TaskStatus)1465"},{"astId":1443,"contract":"contracts/WWANProtocol.sol:WWANProtocol","label":"signature","offset":0,"slot":"6","type":"t_bytes_storage"},{"astId":1446,"contract":"contracts/WWANProtocol.sol:WWANProtocol","label":"collaboratingAgents","offset":0,"slot":"7","type":"t_array(t_address)dyn_storage"}],"numberOfBytes":"256"},"t_struct(UserAgentRegistry)1459_storage":{"encoding":"inplace","label":"struct WWANProtocol.UserAgentRegistry","members":[{"astId":1450,"contract":"contracts/WWANProtocol.sol:WWANProtocol","label":"activeAgents","offset":0,"slot":"0","type":"t_array(t_address)dyn_storage"},{"astId":1454,"contract":"contracts/WWANProtocol.sol:WWANProtocol","label":"isRegistered","offset":0,"slot":"1","type":"t_mapping(t_address,t_bool)"},{"astId":1458,"contract":"contracts/WWANProtocol.sol:WWANProtocol","label":"paymentAllowance","offset":0,"slot":"2","type":"t_mapping(t_address,t_uint256)"}],"numberOfBytes":"96"},"t_uint256":{"encoding":"inplace","label":"uint256","numberOfBytes":"32"},"t_uint8":{"encoding":"inplace","label":"uint8","numberOfBytes":"1"}}},"userdoc":{"kind":"user","methods":{},"version":1}}}}