{"contracts/TestContract.sol":{"TestContract":{"abi":[{"inputs":[{"internalType":"uint256","name":"_param1","type":"uint256"},{"internalType":"string","name":"_param2","type":"string"}],"stateMutability":"nonpayable","type":"constructor"},{"inputs":[],"name":"param1","outputs":[{"internalType":"uint256","name":"","type":"uint256"}],"stateMutability":"view","type":"function"},{"inputs":[],"name":"param2","outputs":[{"internalType":"string","name":"","type":"string"}],"stateMutability":"view","type":"function"},{"inputs":[{"internalType":"uint256","name":"_newParam1","type":"uint256"},{"internalType":"string","name":"_newParam2","type":"string"}],"name":"updateParams","outputs":[],"stateMutability":"nonpayable","type":"function"}],"devdoc":{"kind":"dev","methods":{},"version":1},"evm":{"bytecode":{"linkReferences":{},"object":"6080604052346101f75761061080380380610019816101fc565b9283398101906040818303126101f757805160208083015190926001600160401b039291908382116101f7570192601f918583860112156101f75784518481116101cd57601f1995610070828601881685016101fc565b978289528483830101116101f757839060005b8381106101e35750506000918801015260005584519283116101cd5760019384548581811c911680156101c3575b838210146101ad57838111610167575b50819284116001146101085750508192936000926100fd575b5050600019600383901b1c191690821b1790555b6040516103ee90816102228239f35b0151905038806100da565b6000858152828120918516969193925b87821061015057505083859610610137575b505050811b0190556100ee565b015160001960f88460031b161c1916905538808061012a565b808785968294968601518155019501930190610118565b85600052826000208480870160051c8201928588106101a4575b0160051c019086905b8281106101985750506100c1565b6000815501869061018a565b92508192610181565b634e487b7160e01b600052602260045260246000fd5b90607f16906100b1565b634e487b7160e01b600052604160045260246000fd5b8181018301518a8201840152859201610083565b600080fd5b6040519190601f01601f191682016001600160401b038111838210176101cd5760405256fe6080604090808252600436101561001557600080fd5b600090813560e01c90816302d915181461032c575080631f049b6814610216576382c0a3401461004457600080fd5b346102135781600319360112610213576024359167ffffffffffffffff80841161020f573660238501121561020f578360040135918183116101f7575193602092601f199161009a601f83018416860188610380565b818752366024838301011161020b578186926024879301838a013787010152600435845584519182116101f7576001926100d48454610346565b601f8111610193575b508091601f841160011461011957505083948293949261010e575b5050600019600383901b1c191690821b17905580f35b0151905038806100f8565b8486528316957fb10e2d527612073b26eecdfd717e6a320cf44b4afac2b0732d9fcbe2b7fa0cf6929186905b88821061017c5750508385969710610163575b505050811b01905580f35b015160001960f88460031b161c19169055388080610158565b808785968294968601518155019501930190610145565b8486527fb10e2d527612073b26eecdfd717e6a320cf44b4afac2b0732d9fcbe2b7fa0cf6601f850160051c8101918386106101ed575b601f0160051c019085905b8281106101e25750506100dd565b8781550185906101d4565b90915081906101c9565b634e487b7160e01b84526041600452602484fd5b8580fd5b8280fd5b80fd5b5090346103285781600319360112610328578051828160019182549261023b84610346565b8084529381811690811561030657506001146102aa575b5061026292509492940384610380565b815192839160208084528251928382860152825b84811061029457505050828201840152601f01601f19168101030190f35b8181018301518882018801528795508201610276565b8087528691507fb10e2d527612073b26eecdfd717e6a320cf44b4afac2b0732d9fcbe2b7fa0cf65b8483106102eb5750610262935050810160200138610252565b819350908160209254838589010152019101909184926102d2565b90506020925061026294915060ff191682840152151560051b82010138610252565b5080fd5b905034610328578160031936011261032857602091548152f35b90600182811c92168015610376575b602083101461036057565b634e487b7160e01b600052602260045260246000fd5b91607f1691610355565b90601f8019910116810190811067ffffffffffffffff8211176103a257604052565b634e487b7160e01b600052604160045260246000fdfea2646970667358221220461b2ac808425dd944acd7c8d69dc35c8f63caaafadd4c62df502e268ffc8ce664736f6c63430008110033","opcodes":"PUSH1 0x80 PUSH1 0x40 MSTORE CALLVALUE PUSH2 0x1F7 JUMPI PUSH2 0x610 DUP1 CODESIZE SUB DUP1 PUSH2 0x19 DUP2 PUSH2 0x1FC JUMP JUMPDEST SWAP3 DUP4 CODECOPY DUP2 ADD SWAP1 PUSH1 0x40 DUP2 DUP4 SUB SLT PUSH2 0x1F7 JUMPI DUP1 MLOAD PUSH1 0x20 DUP1 DUP4 ADD MLOAD SWAP1 SWAP3 PUSH1 0x1 PUSH1 0x1 PUSH1 0x40 SHL SUB SWAP3 SWAP2 SWAP1 DUP4 DUP3 GT PUSH2 0x1F7 JUMPI ADD SWAP3 PUSH1 0x1F SWAP2 DUP6 DUP4 DUP7 ADD SLT ISZERO PUSH2 0x1F7 JUMPI DUP5 MLOAD DUP5 DUP2 GT PUSH2 0x1CD JUMPI PUSH1 0x1F NOT SWAP6 PUSH2 0x70 DUP3 DUP7 ADD DUP9 AND DUP6 ADD PUSH2 0x1FC JUMP JUMPDEST SWAP8 DUP3 DUP10 MSTORE DUP5 DUP4 DUP4 ADD ADD GT PUSH2 0x1F7 JUMPI DUP4 SWAP1 PUSH1 0x0 JUMPDEST DUP4 DUP2 LT PUSH2 0x1E3 JUMPI POP POP PUSH1 0x0 SWAP2 DUP9 ADD ADD MSTORE PUSH1 0x0 SSTORE DUP5 MLOAD SWAP3 DUP4 GT PUSH2 0x1CD JUMPI PUSH1 0x1 SWAP4 DUP5 SLOAD DUP6 DUP2 DUP2 SHR SWAP2 AND DUP1 ISZERO PUSH2 0x1C3 JUMPI JUMPDEST DUP4 DUP3 LT EQ PUSH2 0x1AD JUMPI DUP4 DUP2 GT PUSH2 0x167 JUMPI JUMPDEST POP DUP2 SWAP3 DUP5 GT PUSH1 0x1 EQ PUSH2 0x108 JUMPI POP POP DUP2 SWAP3 SWAP4 PUSH1 0x0 SWAP3 PUSH2 0xFD JUMPI JUMPDEST POP POP PUSH1 0x0 NOT PUSH1 0x3 DUP4 SWAP1 SHL SHR NOT AND SWAP1 DUP3 SHL OR SWAP1 SSTORE JUMPDEST PUSH1 0x40 MLOAD PUSH2 0x3EE SWAP1 DUP2 PUSH2 0x222 DUP3 CODECOPY RETURN JUMPDEST ADD MLOAD SWAP1 POP CODESIZE DUP1 PUSH2 0xDA JUMP JUMPDEST PUSH1 0x0 DUP6 DUP2 MSTORE DUP3 DUP2 KECCAK256 SWAP2 DUP6 AND SWAP7 SWAP2 SWAP4 SWAP3 JUMPDEST DUP8 DUP3 LT PUSH2 0x150 JUMPI POP POP DUP4 DUP6 SWAP7 LT PUSH2 0x137 JUMPI JUMPDEST POP POP POP DUP2 SHL ADD SWAP1 SSTORE PUSH2 0xEE JUMP JUMPDEST ADD MLOAD PUSH1 0x0 NOT PUSH1 0xF8 DUP5 PUSH1 0x3 SHL AND SHR NOT AND SWAP1 SSTORE CODESIZE DUP1 DUP1 PUSH2 0x12A JUMP JUMPDEST DUP1 DUP8 DUP6 SWAP7 DUP3 SWAP5 SWAP7 DUP7 ADD MLOAD DUP2 SSTORE ADD SWAP6 ADD SWAP4 ADD SWAP1 PUSH2 0x118 JUMP JUMPDEST DUP6 PUSH1 0x0 MSTORE DUP3 PUSH1 0x0 KECCAK256 DUP5 DUP1 DUP8 ADD PUSH1 0x5 SHR DUP3 ADD SWAP3 DUP6 DUP9 LT PUSH2 0x1A4 JUMPI JUMPDEST ADD PUSH1 0x5 SHR ADD SWAP1 DUP7 SWAP1 JUMPDEST DUP3 DUP2 LT PUSH2 0x198 JUMPI POP POP PUSH2 0xC1 JUMP JUMPDEST PUSH1 0x0 DUP2 SSTORE ADD DUP7 SWAP1 PUSH2 0x18A JUMP JUMPDEST SWAP3 POP DUP2 SWAP3 PUSH2 0x181 JUMP JUMPDEST PUSH4 0x4E487B71 PUSH1 0xE0 SHL PUSH1 0x0 MSTORE PUSH1 0x22 PUSH1 0x4 MSTORE PUSH1 0x24 PUSH1 0x0 REVERT JUMPDEST SWAP1 PUSH1 0x7F AND SWAP1 PUSH2 0xB1 JUMP JUMPDEST PUSH4 0x4E487B71 PUSH1 0xE0 SHL PUSH1 0x0 MSTORE PUSH1 0x41 PUSH1 0x4 MSTORE PUSH1 0x24 PUSH1 0x0 REVERT JUMPDEST DUP2 DUP2 ADD DUP4 ADD MLOAD DUP11 DUP3 ADD DUP5 ADD MSTORE DUP6 SWAP3 ADD PUSH2 0x83 JUMP JUMPDEST PUSH1 0x0 DUP1 REVERT JUMPDEST PUSH1 0x40 MLOAD SWAP2 SWAP1 PUSH1 0x1F ADD PUSH1 0x1F NOT AND DUP3 ADD PUSH1 0x1 PUSH1 0x1 PUSH1 0x40 SHL SUB DUP2 GT DUP4 DUP3 LT OR PUSH2 0x1CD JUMPI PUSH1 0x40 MSTORE JUMP INVALID PUSH1 0x80 PUSH1 0x40 SWAP1 DUP1 DUP3 MSTORE PUSH1 0x4 CALLDATASIZE LT ISZERO PUSH2 0x15 JUMPI PUSH1 0x0 DUP1 REVERT JUMPDEST PUSH1 0x0 SWAP1 DUP2 CALLDATALOAD PUSH1 0xE0 SHR SWAP1 DUP2 PUSH4 0x2D91518 EQ PUSH2 0x32C JUMPI POP DUP1 PUSH4 0x1F049B68 EQ PUSH2 0x216 JUMPI PUSH4 0x82C0A340 EQ PUSH2 0x44 JUMPI PUSH1 0x0 DUP1 REVERT JUMPDEST CALLVALUE PUSH2 0x213 JUMPI DUP2 PUSH1 0x3 NOT CALLDATASIZE ADD SLT PUSH2 0x213 JUMPI PUSH1 0x24 CALLDATALOAD SWAP2 PUSH8 0xFFFFFFFFFFFFFFFF DUP1 DUP5 GT PUSH2 0x20F JUMPI CALLDATASIZE PUSH1 0x23 DUP6 ADD SLT ISZERO PUSH2 0x20F JUMPI DUP4 PUSH1 0x4 ADD CALLDATALOAD SWAP2 DUP2 DUP4 GT PUSH2 0x1F7 JUMPI MLOAD SWAP4 PUSH1 0x20 SWAP3 PUSH1 0x1F NOT SWAP2 PUSH2 0x9A PUSH1 0x1F DUP4 ADD DUP5 AND DUP7 ADD DUP9 PUSH2 0x380 JUMP JUMPDEST DUP2 DUP8 MSTORE CALLDATASIZE PUSH1 0x24 DUP4 DUP4 ADD ADD GT PUSH2 0x20B JUMPI DUP2 DUP7 SWAP3 PUSH1 0x24 DUP8 SWAP4 ADD DUP4 DUP11 ADD CALLDATACOPY DUP8 ADD ADD MSTORE PUSH1 0x4 CALLDATALOAD DUP5 SSTORE DUP5 MLOAD SWAP2 DUP3 GT PUSH2 0x1F7 JUMPI PUSH1 0x1 SWAP3 PUSH2 0xD4 DUP5 SLOAD PUSH2 0x346 JUMP JUMPDEST PUSH1 0x1F DUP2 GT PUSH2 0x193 JUMPI JUMPDEST POP DUP1 SWAP2 PUSH1 0x1F DUP5 GT PUSH1 0x1 EQ PUSH2 0x119 JUMPI POP POP DUP4 SWAP5 DUP3 SWAP4 SWAP5 SWAP3 PUSH2 0x10E JUMPI JUMPDEST POP POP PUSH1 0x0 NOT PUSH1 0x3 DUP4 SWAP1 SHL SHR NOT AND SWAP1 DUP3 SHL OR SWAP1 SSTORE DUP1 RETURN JUMPDEST ADD MLOAD SWAP1 POP CODESIZE DUP1 PUSH2 0xF8 JUMP JUMPDEST DUP5 DUP7 MSTORE DUP4 AND SWAP6 PUSH32 0xB10E2D527612073B26EECDFD717E6A320CF44B4AFAC2B0732D9FCBE2B7FA0CF6 SWAP3 SWAP2 DUP7 SWAP1 JUMPDEST DUP9 DUP3 LT PUSH2 0x17C JUMPI POP POP DUP4 DUP6 SWAP7 SWAP8 LT PUSH2 0x163 JUMPI JUMPDEST POP POP POP DUP2 SHL ADD SWAP1 SSTORE DUP1 RETURN JUMPDEST ADD MLOAD PUSH1 0x0 NOT PUSH1 0xF8 DUP5 PUSH1 0x3 SHL AND SHR NOT AND SWAP1 SSTORE CODESIZE DUP1 DUP1 PUSH2 0x158 JUMP JUMPDEST DUP1 DUP8 DUP6 SWAP7 DUP3 SWAP5 SWAP7 DUP7 ADD MLOAD DUP2 SSTORE ADD SWAP6 ADD SWAP4 ADD SWAP1 PUSH2 0x145 JUMP JUMPDEST DUP5 DUP7 MSTORE PUSH32 0xB10E2D527612073B26EECDFD717E6A320CF44B4AFAC2B0732D9FCBE2B7FA0CF6 PUSH1 0x1F DUP6 ADD PUSH1 0x5 SHR DUP2 ADD SWAP2 DUP4 DUP7 LT PUSH2 0x1ED JUMPI JUMPDEST PUSH1 0x1F ADD PUSH1 0x5 SHR ADD SWAP1 DUP6 SWAP1 JUMPDEST DUP3 DUP2 LT PUSH2 0x1E2 JUMPI POP POP PUSH2 0xDD JUMP JUMPDEST DUP8 DUP2 SSTORE ADD DUP6 SWAP1 PUSH2 0x1D4 JUMP JUMPDEST SWAP1 SWAP2 POP DUP2 SWAP1 PUSH2 0x1C9 JUMP JUMPDEST PUSH4 0x4E487B71 PUSH1 0xE0 SHL DUP5 MSTORE PUSH1 0x41 PUSH1 0x4 MSTORE PUSH1 0x24 DUP5 REVERT JUMPDEST DUP6 DUP1 REVERT JUMPDEST DUP3 DUP1 REVERT JUMPDEST DUP1 REVERT JUMPDEST POP SWAP1 CALLVALUE PUSH2 0x328 JUMPI DUP2 PUSH1 0x3 NOT CALLDATASIZE ADD SLT PUSH2 0x328 JUMPI DUP1 MLOAD DUP3 DUP2 PUSH1 0x1 SWAP2 DUP3 SLOAD SWAP3 PUSH2 0x23B DUP5 PUSH2 0x346 JUMP JUMPDEST DUP1 DUP5 MSTORE SWAP4 DUP2 DUP2 AND SWAP1 DUP2 ISZERO PUSH2 0x306 JUMPI POP PUSH1 0x1 EQ PUSH2 0x2AA JUMPI JUMPDEST POP PUSH2 0x262 SWAP3 POP SWAP5 SWAP3 SWAP5 SUB DUP5 PUSH2 0x380 JUMP JUMPDEST DUP2 MLOAD SWAP3 DUP4 SWAP2 PUSH1 0x20 DUP1 DUP5 MSTORE DUP3 MLOAD SWAP3 DUP4 DUP3 DUP7 ADD MSTORE DUP3 JUMPDEST DUP5 DUP2 LT PUSH2 0x294 JUMPI POP POP POP DUP3 DUP3 ADD DUP5 ADD MSTORE PUSH1 0x1F ADD PUSH1 0x1F NOT AND DUP2 ADD SUB ADD SWAP1 RETURN JUMPDEST DUP2 DUP2 ADD DUP4 ADD MLOAD DUP9 DUP3 ADD DUP9 ADD MSTORE DUP8 SWAP6 POP DUP3 ADD PUSH2 0x276 JUMP JUMPDEST DUP1 DUP8 MSTORE DUP7 SWAP2 POP PUSH32 0xB10E2D527612073B26EECDFD717E6A320CF44B4AFAC2B0732D9FCBE2B7FA0CF6 JUMPDEST DUP5 DUP4 LT PUSH2 0x2EB JUMPI POP PUSH2 0x262 SWAP4 POP POP DUP2 ADD PUSH1 0x20 ADD CODESIZE PUSH2 0x252 JUMP JUMPDEST DUP2 SWAP4 POP SWAP1 DUP2 PUSH1 0x20 SWAP3 SLOAD DUP4 DUP6 DUP10 ADD ADD MSTORE ADD SWAP2 ADD SWAP1 SWAP2 DUP5 SWAP3 PUSH2 0x2D2 JUMP JUMPDEST SWAP1 POP PUSH1 0x20 SWAP3 POP PUSH2 0x262 SWAP5 SWAP2 POP PUSH1 0xFF NOT AND DUP3 DUP5 ADD MSTORE ISZERO ISZERO PUSH1 0x5 SHL DUP3 ADD ADD CODESIZE PUSH2 0x252 JUMP JUMPDEST POP DUP1 REVERT JUMPDEST SWAP1 POP CALLVALUE PUSH2 0x328 JUMPI DUP2 PUSH1 0x3 NOT CALLDATASIZE ADD SLT PUSH2 0x328 JUMPI PUSH1 0x20 SWAP2 SLOAD DUP2 MSTORE RETURN JUMPDEST SWAP1 PUSH1 0x1 DUP3 DUP2 SHR SWAP3 AND DUP1 ISZERO PUSH2 0x376 JUMPI JUMPDEST PUSH1 0x20 DUP4 LT EQ PUSH2 0x360 JUMPI JUMP JUMPDEST PUSH4 0x4E487B71 PUSH1 0xE0 SHL PUSH1 0x0 MSTORE PUSH1 0x22 PUSH1 0x4 MSTORE PUSH1 0x24 PUSH1 0x0 REVERT JUMPDEST SWAP2 PUSH1 0x7F AND SWAP2 PUSH2 0x355 JUMP JUMPDEST SWAP1 PUSH1 0x1F DUP1 NOT SWAP2 ADD AND DUP2 ADD SWAP1 DUP2 LT PUSH8 0xFFFFFFFFFFFFFFFF DUP3 GT OR PUSH2 0x3A2 JUMPI PUSH1 0x40 MSTORE JUMP JUMPDEST PUSH4 0x4E487B71 PUSH1 0xE0 SHL PUSH1 0x0 MSTORE PUSH1 0x41 PUSH1 0x4 MSTORE PUSH1 0x24 PUSH1 0x0 REVERT INVALID LOG2 PUSH5 0x6970667358 0x22 SLT KECCAK256 CHAINID SHL 0x2A 0xC8 ADDMOD TIMESTAMP 0x5D 0xD9 DIFFICULTY 0xAC 0xD7 0xC8 0xD6 SWAP14 0xC3 0x5C DUP16 PUSH4 0xCAAAFADD 0x4C PUSH3 0xDF502E 0x26 DUP16 0xFC DUP13 0xE6 PUSH5 0x736F6C6343 STOP ADDMOD GT STOP CALLER "},"gasEstimates":{"creation":{"codeDepositCost":"201200","executionCost":"infinite","totalCost":"infinite"},"external":{"param1()":"2264","param2()":"infinite","updateParams(uint256,string)":"infinite"}},"methodIdentifiers":{"param1()":"02d91518","param2()":"1f049b68","updateParams(uint256,string)":"82c0a340"}},"storageLayout":{"storage":[{"astId":1275,"contract":"contracts/TestContract.sol:TestContract","label":"param1","offset":0,"slot":"0","type":"t_uint256"},{"astId":1277,"contract":"contracts/TestContract.sol:TestContract","label":"param2","offset":0,"slot":"1","type":"t_string_storage"}],"types":{"t_string_storage":{"encoding":"bytes","label":"string","numberOfBytes":"32"},"t_uint256":{"encoding":"inplace","label":"uint256","numberOfBytes":"32"}}},"userdoc":{"kind":"user","methods":{},"version":1}}}}