{
  "_format": "hh-sol-artifact-1",
  "contractName": "WWANProtocol",
  "sourceName": "contracts/WWANProtocol.sol",
  "abi": [
    {
      "inputs": [],
      "stateMutability": "nonpayable",
      "type": "constructor"
    },
    {
      "anonymous": false,
      "inputs": [
        {
          "indexed": false,
          "internalType": "address",
          "name": "previousAdmin",
          "type": "address"
        },
        {
          "indexed": false,
          "internalType": "address",
          "name": "newAdmin",
          "type": "address"
        }
      ],
      "name": "AdminChanged",
      "type": "event"
    },
    {
      "anonymous": false,
      "inputs": [
        {
          "indexed": true,
          "internalType": "address",
          "name": "agentAddress",
          "type": "address"
        },
        {
          "indexed": false,
          "internalType": "string",
          "name": "metadata",
          "type": "string"
        }
      ],
      "name": "AgentRegistered",
      "type": "event"
    },
    {
      "anonymous": false,
      "inputs": [
        {
          "indexed": true,
          "internalType": "address",
          "name": "user",
          "type": "address"
        },
        {
          "indexed": true,
          "internalType": "address",
          "name": "agent",
          "type": "address"
        },
        {
          "indexed": false,
          "internalType": "uint256",
          "name": "allowance",
          "type": "uint256"
        }
      ],
      "name": "AgentRegisteredForUser",
      "type": "event"
    },
    {
      "anonymous": false,
      "inputs": [
        {
          "indexed": true,
          "internalType": "address",
          "name": "beacon",
          "type": "address"
        }
      ],
      "name": "BeaconUpgraded",
      "type": "event"
    },
    {
      "anonymous": false,
      "inputs": [
        {
          "indexed": true,
          "internalType": "uint256",
          "name": "taskId",
          "type": "uint256"
        },
        {
          "indexed": true,
          "internalType": "address",
          "name": "requestingAgent",
          "type": "address"
        },
        {
          "indexed": true,
          "internalType": "address",
          "name": "targetAgent",
          "type": "address"
        }
      ],
      "name": "CollaborationRequested",
      "type": "event"
    },
    {
      "anonymous": false,
      "inputs": [
        {
          "indexed": false,
          "internalType": "uint8",
          "name": "version",
          "type": "uint8"
        }
      ],
      "name": "Initialized",
      "type": "event"
    },
    {
      "anonymous": false,
      "inputs": [
        {
          "indexed": true,
          "internalType": "uint256",
          "name": "taskId",
          "type": "uint256"
        },
        {
          "indexed": true,
          "internalType": "address",
          "name": "agent",
          "type": "address"
        }
      ],
      "name": "TaskAssigned",
      "type": "event"
    },
    {
      "anonymous": false,
      "inputs": [
        {
          "indexed": true,
          "internalType": "uint256",
          "name": "taskId",
          "type": "uint256"
        },
        {
          "indexed": false,
          "internalType": "bytes",
          "name": "signature",
          "type": "bytes"
        }
      ],
      "name": "TaskCompleted",
      "type": "event"
    },
    {
      "anonymous": false,
      "inputs": [
        {
          "indexed": true,
          "internalType": "uint256",
          "name": "taskId",
          "type": "uint256"
        },
        {
          "indexed": true,
          "internalType": "address",
          "name": "creator",
          "type": "address"
        },
        {
          "indexed": false,
          "internalType": "bytes32",
          "name": "taskType",
          "type": "bytes32"
        }
      ],
      "name": "TaskCreated",
      "type": "event"
    },
    {
      "anonymous": false,
      "inputs": [
        {
          "indexed": true,
          "internalType": "address",
          "name": "implementation",
          "type": "address"
        }
      ],
      "name": "Upgraded",
      "type": "event"
    },
    {
      "inputs": [
        {
          "internalType": "address",
          "name": "",
          "type": "address"
        }
      ],
      "name": "agents",
      "outputs": [
        {
          "internalType": "address",
          "name": "agentAddress",
          "type": "address"
        },
        {
          "internalType": "string",
          "name": "metadata",
          "type": "string"
        },
        {
          "internalType": "bool",
          "name": "isActive",
          "type": "bool"
        },
        {
          "internalType": "uint256",
          "name": "reputation",
          "type": "uint256"
        }
      ],
      "stateMutability": "view",
      "type": "function"
    },
    {
      "inputs": [
        {
          "internalType": "uint256",
          "name": "_taskId",
          "type": "uint256"
        }
      ],
      "name": "assignTask",
      "outputs": [],
      "stateMutability": "nonpayable",
      "type": "function"
    },
    {
      "inputs": [
        {
          "internalType": "uint256",
          "name": "_taskId",
          "type": "uint256"
        },
        {
          "internalType": "bytes",
          "name": "_signature",
          "type": "bytes"
        }
      ],
      "name": "completeTask",
      "outputs": [],
      "stateMutability": "nonpayable",
      "type": "function"
    },
    {
      "inputs": [
        {
          "internalType": "bytes32",
          "name": "_taskType",
          "type": "bytes32"
        },
        {
          "internalType": "string",
          "name": "_taskData",
          "type": "string"
        },
        {
          "internalType": "uint256",
          "name": "_payment",
          "type": "uint256"
        },
        {
          "internalType": "address[]",
          "name": "_collaboratingAgents",
          "type": "address[]"
        }
      ],
      "name": "createTask",
      "outputs": [],
      "stateMutability": "nonpayable",
      "type": "function"
    },
    {
      "inputs": [
        {
          "internalType": "address",
          "name": "_agentAddress",
          "type": "address"
        },
        {
          "internalType": "bytes32",
          "name": "_taskType",
          "type": "bytes32"
        },
        {
          "internalType": "string",
          "name": "_taskData",
          "type": "string"
        },
        {
          "internalType": "uint256",
          "name": "_payment",
          "type": "uint256"
        }
      ],
      "name": "executeAgentTask",
      "outputs": [],
      "stateMutability": "nonpayable",
      "type": "function"
    },
    {
      "inputs": [
        {
          "internalType": "address",
          "name": "_paymentToken",
          "type": "address"
        }
      ],
      "name": "initialize",
      "outputs": [],
      "stateMutability": "nonpayable",
      "type": "function"
    },
    {
      "inputs": [],
      "name": "owner",
      "outputs": [
        {
          "internalType": "address",
          "name": "",
          "type": "address"
        }
      ],
      "stateMutability": "view",
      "type": "function"
    },
    {
      "inputs": [],
      "name": "paymentToken",
      "outputs": [
        {
          "internalType": "contract IERC20Upgradeable",
          "name": "",
          "type": "address"
        }
      ],
      "stateMutability": "view",
      "type": "function"
    },
    {
      "inputs": [],
      "name": "proxiableUUID",
      "outputs": [
        {
          "internalType": "bytes32",
          "name": "",
          "type": "bytes32"
        }
      ],
      "stateMutability": "view",
      "type": "function"
    },
    {
      "inputs": [
        {
          "internalType": "address",
          "name": "_agentAddress",
          "type": "address"
        },
        {
          "internalType": "string",
          "name": "_metadata",
          "type": "string"
        }
      ],
      "name": "registerAgent",
      "outputs": [],
      "stateMutability": "nonpayable",
      "type": "function"
    },
    {
      "inputs": [
        {
          "internalType": "address",
          "name": "_user",
          "type": "address"
        },
        {
          "internalType": "address",
          "name": "_agentAddress",
          "type": "address"
        },
        {
          "internalType": "uint256",
          "name": "_paymentAllowance",
          "type": "uint256"
        }
      ],
      "name": "registerAgentForOtherUser",
      "outputs": [],
      "stateMutability": "nonpayable",
      "type": "function"
    },
    {
      "inputs": [
        {
          "internalType": "address",
          "name": "_agentAddress",
          "type": "address"
        },
        {
          "internalType": "uint256",
          "name": "_paymentAllowance",
          "type": "uint256"
        }
      ],
      "name": "registerAgentForUser",
      "outputs": [],
      "stateMutability": "nonpayable",
      "type": "function"
    },
    {
      "inputs": [
        {
          "internalType": "uint256",
          "name": "_taskId",
          "type": "uint256"
        },
        {
          "internalType": "address",
          "name": "_collaboratorAgent",
          "type": "address"
        }
      ],
      "name": "requestCollaboration",
      "outputs": [],
      "stateMutability": "nonpayable",
      "type": "function"
    },
    {
      "inputs": [],
      "name": "taskCounter",
      "outputs": [
        {
          "internalType": "uint256",
          "name": "",
          "type": "uint256"
        }
      ],
      "stateMutability": "view",
      "type": "function"
    },
    {
      "inputs": [
        {
          "internalType": "uint256",
          "name": "",
          "type": "uint256"
        }
      ],
      "name": "tasks",
      "outputs": [
        {
          "internalType": "address",
          "name": "creator",
          "type": "address"
        },
        {
          "internalType": "address",
          "name": "assignedAgent",
          "type": "address"
        },
        {
          "internalType": "bytes32",
          "name": "taskType",
          "type": "bytes32"
        },
        {
          "internalType": "string",
          "name": "taskData",
          "type": "string"
        },
        {
          "internalType": "uint256",
          "name": "payment",
          "type": "uint256"
        },
        {
          "internalType": "enum WWANProtocol.TaskStatus",
          "name": "status",
          "type": "uint8"
        },
        {
          "internalType": "bytes",
          "name": "signature",
          "type": "bytes"
        }
      ],
      "stateMutability": "view",
      "type": "function"
    },
    {
      "inputs": [
        {
          "internalType": "address",
          "name": "newImplementation",
          "type": "address"
        }
      ],
      "name": "upgradeTo",
      "outputs": [],
      "stateMutability": "nonpayable",
      "type": "function"
    },
    {
      "inputs": [
        {
          "internalType": "address",
          "name": "newImplementation",
          "type": "address"
        },
        {
          "internalType": "bytes",
          "name": "data",
          "type": "bytes"
        }
      ],
      "name": "upgradeToAndCall",
      "outputs": [],
      "stateMutability": "payable",
      "type": "function"
    }
  ],
  "bytecode": "0x60a080604052346100dc57306080526000549060ff8260081c1661008a575060ff8082160361004f575b60405161243590816100e28239608051818181610f980152818161108501526113730152f35b60ff90811916176000557f7f26b83ff96e1f2b6a682f133852f6798a09c465da95921460cefb3847402498602060405160ff8152a138610029565b62461bcd60e51b815260206004820152602760248201527f496e697469616c697a61626c653a20636f6e747261637420697320696e697469604482015266616c697a696e6760c81b6064820152608490fd5b600080fdfe60406080815260048036101561001457600080fd5b600090813560e01c9081630cfb932f1461185c57816322b833d81461166f5781633013ce29146116465781633659cfe61461134b5781634f1ef2861461104557816352d1902d14610f825781635867173014610f635781637a2ccd3514610cff5781638d97767214610bac5781638da5cb5b14610b7f578163b053cef314610a46578163b857318514610925578163c30c4476146107cd578163c4d66de814610660578163d174c3e2146104f0578163de2ddc5914610159575063fd66091e146100dd57600080fd5b34610156576020366003190112610156576001600160a01b0390829082610102611c86565b168152609960205220908154169061011c60018201611da8565b92600360ff6002840154169201549061014681519586958652608060208701526080860190611e4e565b9215159084015260608301520390f35b80fd5b839150346104ec5760803660031901126104ec5780359167ffffffffffffffff906024358281116104e8576101919036908501611d27565b606435928084116104e457366023850112156104e45783850135938185116104d1578460051b8451916020966101c988840185611ce9565b835286830160248193830101913683116104cd57602401905b8282106104aa575050506101f4612328565b6044359687156104675760018060a01b03928a8861024a86609854168c8b519485809481936323b872dd60e01b835230338c850160409194939294606082019560018060a01b0380921683521660208201520152565b03925af190811561045d5790610267918d91610430575b506122b7565b609c54986102748a612303565b609c55898c52609a8952878c2096336001600160601b0360a01b8954161788558b6002890155805187811161041d57808e60038b01936102be836102b88754611d6e565b876120f4565b8d91601f84116001146103b957926103ae575b50508160011b916000199060031b1c19161790555b8683015560058601805460ff19169055519485610333575b8a8a8a7fe04e65a2f2de9844f70a34d2eba1e53ddadaad516fa4d8f5e02ee00df908ebef8b8b519384523393a3600160655580f35b60070193851161039b57600160401b851161039b57508254848455808510610381575b5091885284882090885b84811061036d57806102fe565b835182168382015592860192600101610360565b838a52868a206103959181019086016120dd565b89610356565b634e487b7160e01b8a5260419052602489fd5b015190508f806102d1565b8581528e81209350601f198516908f5b8282106104065750509084600195949392106103ed575b505050811b0190556102e6565b015160001960f88460031b161c191690558f80806103e0565b60018596829396860151815501950193018f6103c9565b634e487b7160e01b8e526041855260248efd5b61045091508a3d8c11610456575b6104488183611ce9565b8101906121db565b8d610261565b503d61043e565b88513d8e823e3d90fd5b855162461bcd60e51b8152908101879052601860248201527f5061796d656e74206d75737420626520706f73697469766500000000000000006044820152606490fd5b81356001600160a01b03811681036104c95781529088019088016101e2565b8c80fd5b8b80fd5b634e487b7160e01b885260418652602488fd5b8680fd5b8580fd5b8280fd5b839150346104ec5760603660031901126104ec5761050c611c86565b90610515611ca1565b9060443560018060a01b0392838116948588526020936099855261054160ff60028a8c20015416612139565b8886831696878252609b875260018a832001898352875261056860ff8b8420541615612185565b856105c1575b5087876000805160206123c083398151915288888d60028a868952609b855261059a838a209182612277565b878952600181018552828920600160ff19825416179055018352818188205551908152a380f35b6098548a516323b872dd60e01b81526001600160a01b0395909516938501938452306020850152604084018790528793859390849003606001928492165af1908115610656579161062e6002926000805160206123c0833981519152979899948b91610639575b506121f3565b91969594888a61056e565b6106509150873d8911610456576104488183611ce9565b8b610628565b87513d8a823e3d90fd5b839150346104ec5760203660031901126104ec5761067c611c86565b90835460ff8160081c1615918280936107c0575b80156107a9575b1561074f575060ff19811660011785558161073e575b508354916106d260ff8460081c166106c48161207d565b6106cd8161207d565b61207d565b60016065556001600160601b0360a01b903382609754161760975560018060a01b0316906098541617609855610706578280f35b61ff001916825551600181527f7f26b83ff96e1f2b6a682f133852f6798a09c465da95921460cefb384740249890602090a181808280f35b61ffff1916610101178455846106ad565b608490602086519162461bcd60e51b8352820152602e60248201527f496e697469616c697a61626c653a20636f6e747261637420697320616c72656160448201526d191e481a5b9a5d1a585b1a5e995960921b6064820152fd5b50303b1580156106975750600160ff831614610697565b50600160ff831610610690565b905082346104ec57806003193601126104ec576107e8611c86565b6024359160018060a01b039183838216958688526020946099865261081560ff6002878c20015416612139565b338952609b86526001858a2001888a52865261083760ff868b20541615612185565b82610891575b5050509060026000805160206123c08339815191529392338852609b84526108688389209182612277565b868852600181018452828820600160ff198254161790550182528381872055519283523392a380f35b60985485516323b872dd60e01b815233938101938452306020850152604084019490945286928492908390036060019183918c91165af190811561091b57916108f46002926000805160206123c08339815191529695948a916108fe57506121f3565b919293859161083d565b6109159150863d8811610456576104488183611ce9565b8a610628565b83513d89823e3d90fd5b839150346104ec5760203660031901126104ec57803591338452609960205260ff600282862001541615610a0c57828452609a602052808420600581019283549260ff841660058110156109f9576109c1575050906001809201336001600160601b0360a01b82541617905560ff191617905533907f52476d55ecef5cf13caa64038f297fe6bbf865d9584a98b8722a15a6d5db128f8380a380f35b906020606492519162461bcd60e51b835282015260126024820152715461736b206e6f7420617661696c61626c6560701b6044820152fd5b634e487b7160e01b885260218352602488fd5b906020606492519162461bcd60e51b835282015260146024820152731059d95b9d081b9bdd081c9959da5cdd195c995960621b6044820152fd5b905082346104ec57806003193601126104ec578135610a63611ca1565b818552609a6020528285209060018060a01b0391600195610a8a848884015416331461237e565b83831695868952609960205260ff6002828b2001541615610b3c57505086956007889201938454925b838110610b04575b505050509091929315610af4575b505033907fe3864154f13bb56610560553d549cb6947e9fd199379eefefbeb0f082c6c7ca88480a480f35b610afd91612277565b8380610ac9565b8782610b108389612249565b90549060031b1c1614610b2b57610b2690612303565b610ab3565b509096508891508190508080610abb565b906020606492519162461bcd60e51b8352820152601b60248201527f436f6c6c61626f7261746f72206e6f74207265676973746572656400000000006044820152fd5b828434610ba85781600319360112610ba85760975490516001600160a01b039091168152602090f35b5080fd5b83833461015657602090816003193601126101565783358152609a825282812060018060a01b03918282541694600193848401541690600284015490610bf460038601611da8565b928986015497600660ff600589015416970183519889918891815491610c1983611d6e565b80865292828116908115610cdd5750600114610ca2575b505050610c63969594939291610c4791038a611ce9565b82519a8b528a015288015260e0606088015260e0870190611e4e565b9360808601526005821015610c8f575060a084015282820360c08401528291610c8b91611e4e565b0390f35b634e487b7160e01b815260218652602490fd5b8a52848a208a93505b828410610cc5575050508101820181610c47610c63610c30565b80549484018601949094528b93928501928101610cab565b60ff191686880152505050151560051b82018301905081610c47610c63610c30565b839150346104ec57816003193601126104ec5780359067ffffffffffffffff906024358281116104e857610d369036908301611d27565b91838652602091609a83528587209160018060a01b03906001610d5f838287015416331461237e565b600585019160ff8354166005811015610f5057828114908115610f45575b5015610f0c5760068601918851918211610ef957908291610dac82610da68b9998979654611d6e565b856120f4565b868d601f8411600114610e92579280604497959381938a989693610e87575b501b916000199060031b1c19161790555b600360ff198254161790556098541694015491898951958694859363a9059cbb60e01b8552339085015260248401525af1908115610e7d5794610e4b610e5a927f04576aed55ed132dfaa5e03bbc10500227270d0b188aec79a7bee1202b29396e96978991610e6057506122b7565b51928284938452830190611e4e565b0390a280f35b610e779150853d8711610456576104488183611ce9565b89610261565b85513d88823e3d90fd5b8e0151925038610dcb565b90601f939293198316858352898320925b8d828210610ee457505091839160449896948a98969410610ecb575b5050811b019055610ddc565b8d015160001960f88460031b161c191690558f80610ebf565b83015184558c9a938601939283019201610ea3565b634e487b7160e01b8c526041865260248cfd5b895162461bcd60e51b81528086018890526013602482015272496e76616c6964207461736b2073746174757360681b6044820152606490fd5b60029150148c610d7d565b634e487b7160e01b8c526021865260248cfd5b828434610ba85781600319360112610ba857602090609c549051908152f35b91905034610156578060031936011261015657507f00000000000000000000000000000000000000000000000000000000000000006001600160a01b03163003610fdd57602082516000805160206123e08339815191528152f35b6020608492519162461bcd60e51b8352820152603860248201527f555550535570677261646561626c653a206d757374206e6f742062652063616c60448201527f6c6564207468726f7567682064656c656761746563616c6c00000000000000006064820152fd5b905082806003193601126104ec5761105b611c86565b9060243567ffffffffffffffff81116113475761107b9036908501611d27565b6001600160a01b037f000000000000000000000000000000000000000000000000000000000000000081169291906110b530851415611e8e565b6110d26000805160206123e0833981519152948286541614611eef565b8060975416330361130e577f4910fdfa16fed3260ed0e7147f7cc6da11a60208b5b9406d12a635614ffd91435460ff161561111857505050506111159150611f50565b80f35b82516352d1902d60e01b81526020959394918416919086818981865afa8991816112db575b5061119c57855162461bcd60e51b8152808901889052602e60248201527f45524331393637557067726164653a206e657720696d706c656d656e7461746960448201526d6f6e206973206e6f74205555505360901b6064820152608490fd5b969192959493960361128657506111b285611f50565b7fbc7cd75a20ee27fd9adebab32041f755214dbc6bffa90cc0225b39da2e5c2d3b8680a282511580159061127e575b6111ed575b5050505080f35b61126a9385808351956111ff87611cb7565b602787527f416464726573733a206c6f772d6c6576656c2064656c65676174652063616c6c86880152660819985a5b195960ca1b858801528581519101845af4913d15611274573d61125c61125382611d0b565b92519283611ce9565b81528681943d92013e611fe0565b50818080806111e6565b5060609250611fe0565b5060016111e1565b825162461bcd60e51b8152908101849052602960248201527f45524331393637557067726164653a20756e737570706f727465642070726f786044820152681a58589b195555525160ba1b6064820152608490fd5b9091508781813d8311611307575b6112f38183611ce9565b810103126113035751908a61113d565b8980fd5b503d6112e9565b825162461bcd60e51b81526020818801526013602482015272556e617574686f72697a65642041636365737360681b6044820152606490fd5b8480fd5b905082346104ec5760208060031936011261164257611368611c86565b916001600160a01b037f000000000000000000000000000000000000000000000000000000000000000081166113a030821415611e8e565b6113bd6000805160206123e0833981519152918383541614611eef565b81609754163303611609578251908482019282841067ffffffffffffffff8511176115f6578385528883527f4910fdfa16fed3260ed0e7147f7cc6da11a60208b5b9406d12a635614ffd91435460ff1615611422575050505050506111159150611f50565b869293949596169085516352d1902d60e01b815287818a81865afa8a91816115c3575b506114a457865162461bcd60e51b8152808a01899052602e60248201527f45524331393637557067726164653a206e657720696d706c656d656e7461746960448201526d6f6e206973206e6f74205555505360901b6064820152608490fd5b97919293969594970361156e57506114bb82611f50565b7fbc7cd75a20ee27fd9adebab32041f755214dbc6bffa90cc0225b39da2e5c2d3b8780a285845115801590611567575b6114f9575b50505050505080f35b8061155b9684519661150a88611cb7565b602788527f416464726573733a206c6f772d6c6576656c2064656c65676174652063616c6c87890152660819985a5b195960ca1b868901525190845af4913d15611274573d61125c61125382611d0b565b508180808080856114f0565b50806114eb565b835162461bcd60e51b8152908101859052602960248201527f45524331393637557067726164653a20756e737570706f727465642070726f786044820152681a58589b195555525160ba1b6064820152608490fd5b9091508881813d83116115ef575b6115db8183611ce9565b810103126115eb5751908b611445565b8a80fd5b503d6115d1565b634e487b7160e01b895260418852602489fd5b825162461bcd60e51b81528087018590526013602482015272556e617574686f72697a65642041636365737360681b6044820152606490fd5b8380fd5b828434610ba85781600319360112610ba85760985490516001600160a01b039091168152602090f35b905082346104ec57806003193601126104ec5761168a611c86565b9067ffffffffffffffff906024358281116104e8576116ac9036908601611d27565b9260018060a01b0316938486526020926099845260ff600284892001541661181a578587526099845282872091866001600160601b0360a01b84541617835560019182840191875191821161039b57506117108161170a8454611d6e565b846120f4565b8589601f8311600114611790579360649383600394610e5a98947fda816ca2fc37b9eecec62ae8263008ec6be1afb38dc28bc9c7c51d7e348da9c29c9b9a9891611785575b5060001982871b1c191690831b1790555b600282019060ff19825416179055015551928284938452830190611e4e565b90508a01518e611755565b50828a52868a2090601f1983168b5b8181106118055750938584610e5a98947fda816ca2fc37b9eecec62ae8263008ec6be1afb38dc28bc9c7c51d7e348da9c29c9b9a9894600397606499106117ed575b5050811b019055611766565b8c015160001983891b60f8161c191690558e806117e1565b8a83015184559286019291890191890161179f565b5082606492519162461bcd60e51b8352820152601860248201527f4167656e7420616c7265616479207265676973746572656400000000000000006044820152fd5b828434610ba8576080366003190112610ba857611877611c86565b9067ffffffffffffffff604435818111611347576118989036908701611d27565b906064958635936118a7612328565b8492338852602092609b845260019788848b20019760018060a01b0380921698898c52865260ff858c20541615611c44579a8a9b898c999a9b9c526099875260ff8685818c20019a6024359b8c82528a5220541615611c0357338d52609b8752858d209015611b4857505060985484516323b872dd60e01b8152338482019081523060208201526040810189905290928792849291169082908f90829060600103925af1908115611b3e5790611963918c91611b2157506122b7565b609c549661197088612303565b609c55878b52609a8552838b20926001600160601b0360a01b33818654161785558a8c86019182541617905587600285015560038401918051918211611b0e57908b8d84936119c8846102b88f9c9b9a999854611d6e565b8891601f8511600114611a6657937fe04e65a2f2de9844f70a34d2eba1e53ddadaad516fa4d8f5e02ee00df908ebef9a9b95938193829360059a999794611a5b575b50501b916000199060031b1c19161790555b82015501805460ff191689179055519384523393a37f52476d55ecef5cf13caa64038f297fe6bbf865d9584a98b8722a15a6d5db128f8480a360655580f35b015192503880611a0a565b9190601f9b979b9493941984168684528a8420935b818110611ade5750917fe04e65a2f2de9844f70a34d2eba1e53ddadaad516fa4d8f5e02ee00df908ebef9b9c979593918560059a98969410611ac5575b505050811b019055611a1c565b015160001960f88460031b161c19169055388080611ab8565b94969798999b50919499809c9a8294878394015181550195019301918f9492918e9b9998979694929c9a9c611a7b565b634e487b7160e01b8d526041845260248dfd5b611b389150863d8811610456576104488183611ce9565b8c610261565b84513d8d823e3d90fd5b8a8d52600201808752858d2054939750909290915015611baa57888b52845280838b205411600014611b9f57935b84838b208054918203918211611b8c5755611963565b634e487b7160e01b8c526011835260248cfd5b508189205493611b76565b835162461bcd60e51b8152808701869052602e60248201527f4e6f207061796d656e742070726f766964656420616e64206e6f20616c6c6f7760448201526d616e636520617661696c61626c6560901b81840152608490fd5b50845162461bcd60e51b8152808401879052602481018790527f5461736b2074797065206e6f7420737570706f72746564206279206167656e746044820152fd5b845162461bcd60e51b8152808401879052601d60248201527f4167656e74206e6f74207265676973746572656420666f72207573657200000060448201528c90fd5b600435906001600160a01b0382168203611c9c57565b600080fd5b602435906001600160a01b0382168203611c9c57565b6060810190811067ffffffffffffffff821117611cd357604052565b634e487b7160e01b600052604160045260246000fd5b90601f8019910116810190811067ffffffffffffffff821117611cd357604052565b67ffffffffffffffff8111611cd357601f01601f191660200190565b81601f82011215611c9c57803590611d3e82611d0b565b92611d4c6040519485611ce9565b82845260208383010111611c9c57816000926020809301838601378301015290565b90600182811c92168015611d9e575b6020831014611d8857565b634e487b7160e01b600052602260045260246000fd5b91607f1691611d7d565b9060405191826000825492611dbc84611d6e565b908184526001948581169081600014611e2b5750600114611de8575b5050611de692500383611ce9565b565b9093915060005260209081600020936000915b818310611e13575050611de693508201013880611dd8565b85548884018501529485019487945091830191611dfb565b915050611de694506020925060ff191682840152151560051b8201013880611dd8565b919082519283825260005b848110611e7a575050826000602080949584010152601f8019910116010190565b602081830181015184830182015201611e59565b15611e9557565b60405162461bcd60e51b815260206004820152602c60248201527f46756e6374696f6e206d7573742062652063616c6c6564207468726f7567682060448201526b19195b1959d85d1958d85b1b60a21b6064820152608490fd5b15611ef657565b60405162461bcd60e51b815260206004820152602c60248201527f46756e6374696f6e206d7573742062652063616c6c6564207468726f7567682060448201526b6163746976652070726f787960a01b6064820152608490fd5b803b15611f85576000805160206123e083398151915280546001600160a01b0319166001600160a01b03909216919091179055565b60405162461bcd60e51b815260206004820152602d60248201527f455243313936373a206e657720696d706c656d656e746174696f6e206973206e60448201526c1bdd08184818dbdb9d1c9858dd609a1b6064820152608490fd5b919290156120425750815115611ff4575090565b3b15611ffd5790565b60405162461bcd60e51b815260206004820152601d60248201527f416464726573733a2063616c6c20746f206e6f6e2d636f6e74726163740000006044820152606490fd5b8251909150156120555750805190602001fd5b60405162461bcd60e51b815260206004820152908190612079906024830190611e4e565b0390fd5b1561208457565b60405162461bcd60e51b815260206004820152602b60248201527f496e697469616c697a61626c653a20636f6e7472616374206973206e6f74206960448201526a6e697469616c697a696e6760a81b6064820152608490fd5b8181106120e8575050565b600081556001016120dd565b9190601f811161210357505050565b611de6926000526020600020906020601f840160051c8301931061212f575b601f0160051c01906120dd565b9091508190612122565b1561214057565b60405162461bcd60e51b815260206004820152601e60248201527f4167656e74206e6f74207265676973746572656420696e2073797374656d00006044820152606490fd5b1561218c57565b60405162461bcd60e51b815260206004820152602160248201527f4167656e7420616c7265616479207265676973746572656420666f72207573656044820152603960f91b6064820152608490fd5b90816020910312611c9c57518015158103611c9c5790565b156121fa57565b60405162461bcd60e51b815260206004820152602160248201527f5061796d656e7420616c6c6f77616e6365207472616e73666572206661696c656044820152601960fa1b6064820152608490fd5b80548210156122615760005260206000200190600090565b634e487b7160e01b600052603260045260246000fd5b8054600160401b811015611cd35761229491600182018155612249565b819291549060031b9160018060a01b039283811b93849216901b16911916179055565b156122be57565b60405162461bcd60e51b815260206004820152601760248201527f5061796d656e74207472616e73666572206661696c65640000000000000000006044820152606490fd5b60001981146123125760010190565b634e487b7160e01b600052601160045260246000fd5b600260655414612339576002606555565b60405162461bcd60e51b815260206004820152601f60248201527f5265656e7472616e637947756172643a207265656e7472616e742063616c6c006044820152606490fd5b1561238557565b60405162461bcd60e51b8152602060048201526012602482015271139bdd08185cdcda59db9959081859d95b9d60721b6044820152606490fdfeb14eafe918ed2ebe411ca6d11c3ef5c8330bf0979fa0384ef0f26b8ed7b50fbf360894a13ba1a3210667c828492db98dca3e2076cc3735a920a3ca505d382bbca2646970667358221220db7dd659b07e0826fa00f417ae5d75236e6b6f4ea991c0841285e3aa9953090664736f6c63430008110033",
  "linkReferences": {},
  "deployedLinkReferences": {}
}