{
  "_format": "hh-sol-artifact-1",
  "contractName": "WWANProtocol",
  "sourceName": "contracts/WWANProtocol.sol",
  "abi": [
    {
      "inputs": [],
      "stateMutability": "nonpayable",
      "type": "constructor"
    },
    {
      "anonymous": false,
      "inputs": [
        {
          "indexed": false,
          "internalType": "address",
          "name": "previousAdmin",
          "type": "address"
        },
        {
          "indexed": false,
          "internalType": "address",
          "name": "newAdmin",
          "type": "address"
        }
      ],
      "name": "AdminChanged",
      "type": "event"
    },
    {
      "anonymous": false,
      "inputs": [
        {
          "indexed": true,
          "internalType": "address",
          "name": "agentAddress",
          "type": "address"
        },
        {
          "indexed": false,
          "internalType": "string",
          "name": "metadata",
          "type": "string"
        }
      ],
      "name": "AgentRegistered",
      "type": "event"
    },
    {
      "anonymous": false,
      "inputs": [
        {
          "indexed": true,
          "internalType": "address",
          "name": "user",
          "type": "address"
        },
        {
          "indexed": true,
          "internalType": "address",
          "name": "agent",
          "type": "address"
        },
        {
          "indexed": false,
          "internalType": "uint256",
          "name": "allowance",
          "type": "uint256"
        }
      ],
      "name": "AgentRegisteredForUser",
      "type": "event"
    },
    {
      "anonymous": false,
      "inputs": [
        {
          "indexed": true,
          "internalType": "address",
          "name": "beacon",
          "type": "address"
        }
      ],
      "name": "BeaconUpgraded",
      "type": "event"
    },
    {
      "anonymous": false,
      "inputs": [
        {
          "indexed": true,
          "internalType": "uint256",
          "name": "taskId",
          "type": "uint256"
        },
        {
          "indexed": true,
          "internalType": "address",
          "name": "requestingAgent",
          "type": "address"
        },
        {
          "indexed": true,
          "internalType": "address",
          "name": "targetAgent",
          "type": "address"
        }
      ],
      "name": "CollaborationRequested",
      "type": "event"
    },
    {
      "anonymous": false,
      "inputs": [
        {
          "indexed": false,
          "internalType": "uint8",
          "name": "version",
          "type": "uint8"
        }
      ],
      "name": "Initialized",
      "type": "event"
    },
    {
      "anonymous": false,
      "inputs": [
        {
          "indexed": true,
          "internalType": "uint256",
          "name": "taskId",
          "type": "uint256"
        },
        {
          "indexed": true,
          "internalType": "address",
          "name": "agent",
          "type": "address"
        }
      ],
      "name": "TaskAssigned",
      "type": "event"
    },
    {
      "anonymous": false,
      "inputs": [
        {
          "indexed": true,
          "internalType": "uint256",
          "name": "taskId",
          "type": "uint256"
        },
        {
          "indexed": false,
          "internalType": "bytes",
          "name": "signature",
          "type": "bytes"
        }
      ],
      "name": "TaskCompleted",
      "type": "event"
    },
    {
      "anonymous": false,
      "inputs": [
        {
          "indexed": true,
          "internalType": "uint256",
          "name": "taskId",
          "type": "uint256"
        },
        {
          "indexed": true,
          "internalType": "address",
          "name": "creator",
          "type": "address"
        },
        {
          "indexed": false,
          "internalType": "bytes32",
          "name": "taskType",
          "type": "bytes32"
        }
      ],
      "name": "TaskCreated",
      "type": "event"
    },
    {
      "anonymous": false,
      "inputs": [
        {
          "indexed": true,
          "internalType": "address",
          "name": "implementation",
          "type": "address"
        }
      ],
      "name": "Upgraded",
      "type": "event"
    },
    {
      "inputs": [
        {
          "internalType": "address",
          "name": "",
          "type": "address"
        }
      ],
      "name": "agents",
      "outputs": [
        {
          "internalType": "address",
          "name": "agentAddress",
          "type": "address"
        },
        {
          "internalType": "string",
          "name": "metadata",
          "type": "string"
        },
        {
          "internalType": "bool",
          "name": "isActive",
          "type": "bool"
        },
        {
          "internalType": "uint256",
          "name": "reputation",
          "type": "uint256"
        }
      ],
      "stateMutability": "view",
      "type": "function"
    },
    {
      "inputs": [
        {
          "internalType": "uint256",
          "name": "_taskId",
          "type": "uint256"
        }
      ],
      "name": "assignTask",
      "outputs": [],
      "stateMutability": "nonpayable",
      "type": "function"
    },
    {
      "inputs": [
        {
          "internalType": "uint256",
          "name": "_taskId",
          "type": "uint256"
        },
        {
          "internalType": "bytes",
          "name": "_signature",
          "type": "bytes"
        }
      ],
      "name": "completeTask",
      "outputs": [],
      "stateMutability": "nonpayable",
      "type": "function"
    },
    {
      "inputs": [
        {
          "internalType": "bytes32",
          "name": "_taskType",
          "type": "bytes32"
        },
        {
          "internalType": "string",
          "name": "_taskData",
          "type": "string"
        },
        {
          "internalType": "uint256",
          "name": "_payment",
          "type": "uint256"
        },
        {
          "internalType": "address[]",
          "name": "_collaboratingAgents",
          "type": "address[]"
        }
      ],
      "name": "createTask",
      "outputs": [],
      "stateMutability": "nonpayable",
      "type": "function"
    },
    {
      "inputs": [
        {
          "internalType": "address",
          "name": "_agentAddress",
          "type": "address"
        },
        {
          "internalType": "bytes32",
          "name": "_taskType",
          "type": "bytes32"
        },
        {
          "internalType": "string",
          "name": "_taskData",
          "type": "string"
        },
        {
          "internalType": "uint256",
          "name": "_payment",
          "type": "uint256"
        }
      ],
      "name": "executeAgentTask",
      "outputs": [],
      "stateMutability": "nonpayable",
      "type": "function"
    },
    {
      "inputs": [
        {
          "internalType": "address",
          "name": "_paymentToken",
          "type": "address"
        }
      ],
      "name": "initialize",
      "outputs": [],
      "stateMutability": "nonpayable",
      "type": "function"
    },
    {
      "inputs": [],
      "name": "owner",
      "outputs": [
        {
          "internalType": "address",
          "name": "",
          "type": "address"
        }
      ],
      "stateMutability": "view",
      "type": "function"
    },
    {
      "inputs": [],
      "name": "paymentToken",
      "outputs": [
        {
          "internalType": "contract IERC20Upgradeable",
          "name": "",
          "type": "address"
        }
      ],
      "stateMutability": "view",
      "type": "function"
    },
    {
      "inputs": [],
      "name": "proxiableUUID",
      "outputs": [
        {
          "internalType": "bytes32",
          "name": "",
          "type": "bytes32"
        }
      ],
      "stateMutability": "view",
      "type": "function"
    },
    {
      "inputs": [
        {
          "internalType": "string",
          "name": "_metadata",
          "type": "string"
        },
        {
          "internalType": "bytes32[]",
          "name": "_supportedTaskTypes",
          "type": "bytes32[]"
        }
      ],
      "name": "registerAgent",
      "outputs": [],
      "stateMutability": "nonpayable",
      "type": "function"
    },
    {
      "inputs": [
        {
          "internalType": "address",
          "name": "_user",
          "type": "address"
        },
        {
          "internalType": "address",
          "name": "_agentAddress",
          "type": "address"
        },
        {
          "internalType": "uint256",
          "name": "_paymentAllowance",
          "type": "uint256"
        }
      ],
      "name": "registerAgentForOtherUser",
      "outputs": [],
      "stateMutability": "nonpayable",
      "type": "function"
    },
    {
      "inputs": [
        {
          "internalType": "address",
          "name": "_agentAddress",
          "type": "address"
        },
        {
          "internalType": "uint256",
          "name": "_paymentAllowance",
          "type": "uint256"
        }
      ],
      "name": "registerAgentForUser",
      "outputs": [],
      "stateMutability": "nonpayable",
      "type": "function"
    },
    {
      "inputs": [
        {
          "internalType": "uint256",
          "name": "_taskId",
          "type": "uint256"
        },
        {
          "internalType": "address",
          "name": "_collaboratorAgent",
          "type": "address"
        }
      ],
      "name": "requestCollaboration",
      "outputs": [],
      "stateMutability": "nonpayable",
      "type": "function"
    },
    {
      "inputs": [],
      "name": "taskCounter",
      "outputs": [
        {
          "internalType": "uint256",
          "name": "",
          "type": "uint256"
        }
      ],
      "stateMutability": "view",
      "type": "function"
    },
    {
      "inputs": [
        {
          "internalType": "uint256",
          "name": "",
          "type": "uint256"
        }
      ],
      "name": "tasks",
      "outputs": [
        {
          "internalType": "address",
          "name": "creator",
          "type": "address"
        },
        {
          "internalType": "address",
          "name": "assignedAgent",
          "type": "address"
        },
        {
          "internalType": "bytes32",
          "name": "taskType",
          "type": "bytes32"
        },
        {
          "internalType": "string",
          "name": "taskData",
          "type": "string"
        },
        {
          "internalType": "uint256",
          "name": "payment",
          "type": "uint256"
        },
        {
          "internalType": "enum WWANProtocol.TaskStatus",
          "name": "status",
          "type": "uint8"
        },
        {
          "internalType": "bytes",
          "name": "signature",
          "type": "bytes"
        }
      ],
      "stateMutability": "view",
      "type": "function"
    },
    {
      "inputs": [
        {
          "internalType": "address",
          "name": "newImplementation",
          "type": "address"
        }
      ],
      "name": "upgradeTo",
      "outputs": [],
      "stateMutability": "nonpayable",
      "type": "function"
    },
    {
      "inputs": [
        {
          "internalType": "address",
          "name": "newImplementation",
          "type": "address"
        },
        {
          "internalType": "bytes",
          "name": "data",
          "type": "bytes"
        }
      ],
      "name": "upgradeToAndCall",
      "outputs": [],
      "stateMutability": "payable",
      "type": "function"
    }
  ],
  "bytecode": "0x60a080604052346100dc57306080526000549060ff8260081c1661008a575060ff8082160361004f575b60405161252a90816100e28239608051818181610fe8015281816110d501526113c30152f35b60ff90811916176000557f7f26b83ff96e1f2b6a682f133852f6798a09c465da95921460cefb3847402498602060405160ff8152a138610029565b62461bcd60e51b815260206004820152602760248201527f496e697469616c697a61626c653a20636f6e747261637420697320696e697469604482015266616c697a696e6760c81b6064820152608490fd5b600080fdfe60406080815260048036101561001457600080fd5b600090813560e01c9081630173051614611ae55781630cfb932f146116bb5781633013ce29146116925781633659cfe61461139b5781634f1ef2861461109557816352d1902d14610fd25781635867173014610fb35781637a2ccd3514610d4f5781638d97767214610bfc5781638da5cb5b14610bcf578163b053cef314610a96578163b857318514610911578163c30c4476146107b9578163c4d66de81461064c578163d174c3e2146104dc578163de2ddc5914610159575063fd66091e146100dd57600080fd5b34610156576020366003190112610156576001600160a01b0390829082610102611e37565b168152609960205220908154169061011c60018201611e9d565b92600360ff6002840154169201549061014681519586958652608060208701526080860190611f43565b9215159084015260608301520390f35b80fd5b839150346104d85760803660031901126104d85780359167ffffffffffffffff906024358281116104d4576101919036908501611dd3565b606435928084116104d057366023850112156104d057838501356101b481611e1f565b906101c185519283611d95565b8082526020958683016024819360051b830101913683116104cc57602401905b8282106104a9575050506101f361241d565b6044359687156104665760018060a01b03928a8861024986609854168c8b519485809481936323b872dd60e01b835230338c850160409194939294606082019560018060a01b0380921683521660208201520152565b03925af190811561045c5790610266918d9161042f575b506123d1565b609c54986102738a61222e565b609c55898c52609a8952878c2096336001600160601b0360a01b8954161788558b6002890155805187811161041c57808e60038b01936102bd836102b78754611e63565b876121e9565b8d91601f84116001146103b857926103ad575b50508160011b916000199060031b1c19161790555b8683015560058601805460ff19169055519485610332575b8a8a8a7fe04e65a2f2de9844f70a34d2eba1e53ddadaad516fa4d8f5e02ee00df908ebef8b8b519384523393a3600160655580f35b60070193851161039a57600160401b851161039a57508254848455808510610380575b5091885284882090885b84811061036c57806102fd565b83518216838201559286019260010161035f565b838a52868a206103949181019086016121d2565b89610355565b634e487b7160e01b8a5260419052602489fd5b015190508f806102d0565b8581528e81209350601f198516908f5b8282106104055750509084600195949392106103ec575b505050811b0190556102e5565b015160001960f88460031b161c191690558f80806103df565b60018596829396860151815501950193018f6103c8565b634e487b7160e01b8e526041855260248efd5b61044f91508a3d8c11610455575b6104478183611d95565b8101906122f5565b8d610260565b503d61043d565b88513d8e823e3d90fd5b855162461bcd60e51b8152908101879052601860248201527f5061796d656e74206d75737420626520706f73697469766500000000000000006044820152606490fd5b81356001600160a01b03811681036104c85781529088019088016101e1565b8c80fd5b8b80fd5b8680fd5b8580fd5b8280fd5b839150346104d85760603660031901126104d8576104f8611e37565b90610501611e4d565b9060443560018060a01b0392838116948588526020936099855261052d60ff60028a8c20015416612253565b8886831696878252609b875260018a832001898352875261055460ff8b842054161561229f565b856105ad575b5087876000805160206124b583398151915288888d60028a868952609b8552610586838a209182612391565b878952600181018552828920600160ff19825416179055018352818188205551908152a380f35b6098548a516323b872dd60e01b81526001600160a01b0395909516938501938452306020850152604084018790528793859390849003606001928492165af1908115610642579161061a6002926000805160206124b5833981519152979899948b91610625575b5061230d565b91969594888a61055a565b61063c9150873d8911610455576104478183611d95565b8b610614565b87513d8a823e3d90fd5b839150346104d85760203660031901126104d857610668611e37565b90835460ff8160081c1615918280936107ac575b8015610795575b1561073b575060ff19811660011785558161072a575b508354916106be60ff8460081c166106b081612172565b6106b981612172565b612172565b60016065556001600160601b0360a01b903382609754161760975560018060a01b03169060985416176098556106f2578280f35b61ff001916825551600181527f7f26b83ff96e1f2b6a682f133852f6798a09c465da95921460cefb384740249890602090a181808280f35b61ffff191661010117845584610699565b608490602086519162461bcd60e51b8352820152602e60248201527f496e697469616c697a61626c653a20636f6e747261637420697320616c72656160448201526d191e481a5b9a5d1a585b1a5e995960921b6064820152fd5b50303b1580156106835750600160ff831614610683565b50600160ff83161061067c565b905082346104d857806003193601126104d8576107d4611e37565b6024359160018060a01b039183838216958688526020946099865261080160ff6002878c20015416612253565b338952609b86526001858a2001888a52865261082360ff868b2054161561229f565b8261087d575b5050509060026000805160206124b58339815191529392338852609b84526108548389209182612391565b868852600181018452828820600160ff198254161790550182528381872055519283523392a380f35b60985485516323b872dd60e01b815233938101938452306020850152604084019490945286928492908390036060019183918c91165af190811561090757916108e06002926000805160206124b58339815191529695948a916108ea575061230d565b9192938591610829565b6109019150863d8811610455576104478183611d95565b8a610614565b83513d89823e3d90fd5b905082346104d85760209081600319360112610a92578235923385526099835260ff600283872001541615610a5a57838552609a835281852090600582019384549360ff85166005811015610a4757610a115733885260998252828189200160028501548952825260ff8189205416156109d057505050906001809201336001600160601b0360a01b82541617905560ff191617905533907f52476d55ecef5cf13caa64038f297fe6bbf865d9584a98b8722a15a6d5db128f8380a380f35b5162461bcd60e51b815291820152601760248201527f5461736b2074797065206e6f7420737570706f72746564000000000000000000604482015260649150fd5b5162461bcd60e51b81529182015260126024820152715461736b206e6f7420617661696c61626c6560701b604482015260649150fd5b634e487b7160e01b895260218452602489fd5b82606492519162461bcd60e51b835282015260146024820152731059d95b9d081b9bdd081c9959da5cdd195c995960621b6044820152fd5b8380fd5b905082346104d857806003193601126104d8578135610ab3611e4d565b818552609a6020528285209060018060a01b0391600195610ada8488840154163314612473565b83831695868952609960205260ff6002828b2001541615610b8c57505086956007889201938454925b838110610b54575b505050509091929315610b44575b505033907fe3864154f13bb56610560553d549cb6947e9fd199379eefefbeb0f082c6c7ca88480a480f35b610b4d91612391565b8380610b19565b8782610b608389612363565b90549060031b1c1614610b7b57610b769061222e565b610b03565b509096508891508190508080610b0b565b906020606492519162461bcd60e51b8352820152601b60248201527f436f6c6c61626f7261746f72206e6f74207265676973746572656400000000006044820152fd5b828434610bf85781600319360112610bf85760975490516001600160a01b039091168152602090f35b5080fd5b83833461015657602090816003193601126101565783358152609a825282812060018060a01b03918282541694600193848401541690600284015490610c4460038601611e9d565b928986015497600660ff600589015416970183519889918891815491610c6983611e63565b80865292828116908115610d2d5750600114610cf2575b505050610cb3969594939291610c9791038a611d95565b82519a8b528a015288015260e0606088015260e0870190611f43565b9360808601526005821015610cdf575060a084015282820360c08401528291610cdb91611f43565b0390f35b634e487b7160e01b815260218652602490fd5b8a52848a208a93505b828410610d15575050508101820181610c97610cb3610c80565b80549484018601949094528b93928501928101610cfb565b60ff191686880152505050151560051b82018301905081610c97610cb3610c80565b839150346104d857816003193601126104d85780359067ffffffffffffffff906024358281116104d457610d869036908301611dd3565b91838652602091609a83528587209160018060a01b03906001610daf8382870154163314612473565b600585019160ff8354166005811015610fa057828114908115610f95575b5015610f5c5760068601918851918211610f4957908291610dfc82610df68b9998979654611e63565b856121e9565b868d601f8411600114610ee2579280604497959381938a989693610ed7575b501b916000199060031b1c19161790555b600360ff198254161790556098541694015491898951958694859363a9059cbb60e01b8552339085015260248401525af1908115610ecd5794610e9b610eaa927f04576aed55ed132dfaa5e03bbc10500227270d0b188aec79a7bee1202b29396e96978991610eb057506123d1565b51928284938452830190611f43565b0390a280f35b610ec79150853d8711610455576104478183611d95565b89610260565b85513d88823e3d90fd5b8e0151925038610e1b565b90601f939293198316858352898320925b8d828210610f3457505091839160449896948a98969410610f1b575b5050811b019055610e2c565b8d015160001960f88460031b161c191690558f80610f0f565b83015184558c9a938601939283019201610ef3565b634e487b7160e01b8c526041865260248cfd5b895162461bcd60e51b81528086018890526013602482015272496e76616c6964207461736b2073746174757360681b6044820152606490fd5b60029150148c610dcd565b634e487b7160e01b8c526021865260248cfd5b828434610bf85781600319360112610bf857602090609c549051908152f35b91905034610156578060031936011261015657507f00000000000000000000000000000000000000000000000000000000000000006001600160a01b0316300361102d57602082516000805160206124d58339815191528152f35b6020608492519162461bcd60e51b8352820152603860248201527f555550535570677261646561626c653a206d757374206e6f742062652063616c60448201527f6c6564207468726f7567682064656c656761746563616c6c00000000000000006064820152fd5b905082806003193601126104d8576110ab611e37565b9060243567ffffffffffffffff8111611397576110cb9036908501611dd3565b6001600160a01b037f0000000000000000000000000000000000000000000000000000000000000000811692919061110530851415611f83565b6111226000805160206124d5833981519152948286541614611fe4565b8060975416330361135e577f4910fdfa16fed3260ed0e7147f7cc6da11a60208b5b9406d12a635614ffd91435460ff161561116857505050506111659150612045565b80f35b82516352d1902d60e01b81526020959394918416919086818981865afa89918161132b575b506111ec57855162461bcd60e51b8152808901889052602e60248201527f45524331393637557067726164653a206e657720696d706c656d656e7461746960448201526d6f6e206973206e6f74205555505360901b6064820152608490fd5b96919295949396036112d6575061120285612045565b7fbc7cd75a20ee27fd9adebab32041f755214dbc6bffa90cc0225b39da2e5c2d3b8680a28251158015906112ce575b61123d575b5050505080f35b6112ba93858083519561124f87611d63565b602787527f416464726573733a206c6f772d6c6576656c2064656c65676174652063616c6c86880152660819985a5b195960ca1b858801528581519101845af4913d156112c4573d6112ac6112a382611db7565b92519283611d95565b81528681943d92013e6120d5565b5081808080611236565b50606092506120d5565b506001611231565b825162461bcd60e51b8152908101849052602960248201527f45524331393637557067726164653a20756e737570706f727465642070726f786044820152681a58589b195555525160ba1b6064820152608490fd5b9091508781813d8311611357575b6113438183611d95565b810103126113535751908a61118d565b8980fd5b503d611339565b825162461bcd60e51b81526020818801526013602482015272556e617574686f72697a65642041636365737360681b6044820152606490fd5b8480fd5b905082346104d857602080600319360112610a92576113b8611e37565b916001600160a01b037f000000000000000000000000000000000000000000000000000000000000000081166113f030821415611f83565b61140d6000805160206124d5833981519152918383541614611fe4565b81609754163303611659578251908482019282841067ffffffffffffffff851117611646578385528883527f4910fdfa16fed3260ed0e7147f7cc6da11a60208b5b9406d12a635614ffd91435460ff1615611472575050505050506111659150612045565b869293949596169085516352d1902d60e01b815287818a81865afa8a9181611613575b506114f457865162461bcd60e51b8152808a01899052602e60248201527f45524331393637557067726164653a206e657720696d706c656d656e7461746960448201526d6f6e206973206e6f74205555505360901b6064820152608490fd5b9791929396959497036115be575061150b82612045565b7fbc7cd75a20ee27fd9adebab32041f755214dbc6bffa90cc0225b39da2e5c2d3b8780a2858451158015906115b7575b611549575b50505050505080f35b806115ab9684519661155a88611d63565b602788527f416464726573733a206c6f772d6c6576656c2064656c65676174652063616c6c87890152660819985a5b195960ca1b868901525190845af4913d156112c4573d6112ac6112a382611db7565b50818080808085611540565b508061153b565b835162461bcd60e51b8152908101859052602960248201527f45524331393637557067726164653a20756e737570706f727465642070726f786044820152681a58589b195555525160ba1b6064820152608490fd5b9091508881813d831161163f575b61162b8183611d95565b8101031261163b5751908b611495565b8a80fd5b503d611621565b634e487b7160e01b895260418852602489fd5b825162461bcd60e51b81528087018590526013602482015272556e617574686f72697a65642041636365737360681b6044820152606490fd5b828434610bf85781600319360112610bf85760985490516001600160a01b039091168152602090f35b828434610bf8576080366003190112610bf8576116d6611e37565b9067ffffffffffffffff604435818111611397576116f79036908701611dd3565b9060649586359361170661241d565b8492338852602092609b845260019788848b20019760018060a01b0380921698898c52865260ff858c20541615611aa3579a8a9b898c999a9b9c526099875260ff8685818c20019a6024359b8c82528a5220541615611a6257338d52609b8752858d2090156119a757505060985484516323b872dd60e01b8152338482019081523060208201526040810189905290928792849291169082908f90829060600103925af190811561199d57906117c2918c9161198057506123d1565b609c54966117cf8861222e565b609c55878b52609a8552838b20926001600160601b0360a01b33818654161785558a8c8601918254161790558760028501556003840191805191821161196d57908b8d8493611827846102b78f9c9b9a999854611e63565b8891601f85116001146118c557937fe04e65a2f2de9844f70a34d2eba1e53ddadaad516fa4d8f5e02ee00df908ebef9a9b95938193829360059a9997946118ba575b50501b916000199060031b1c19161790555b82015501805460ff191689179055519384523393a37f52476d55ecef5cf13caa64038f297fe6bbf865d9584a98b8722a15a6d5db128f8480a360655580f35b015192503880611869565b9190601f9b979b9493941984168684528a8420935b81811061193d5750917fe04e65a2f2de9844f70a34d2eba1e53ddadaad516fa4d8f5e02ee00df908ebef9b9c979593918560059a98969410611924575b505050811b01905561187b565b015160001960f88460031b161c19169055388080611917565b94969798999b50919499809c9a8294878394015181550195019301918f9492918e9b9998979694929c9a9c6118da565b634e487b7160e01b8d526041845260248dfd5b6119979150863d8811610455576104478183611d95565b8c610260565b84513d8d823e3d90fd5b8a8d52600201808752858d2054939750909290915015611a0957888b52845280838b2054116000146119fe57935b84838b2080549182039182116119eb57556117c2565b634e487b7160e01b8c526011835260248cfd5b5081892054936119d5565b835162461bcd60e51b8152808701869052602e60248201527f4e6f207061796d656e742070726f766964656420616e64206e6f20616c6c6f7760448201526d616e636520617661696c61626c6560901b81840152608490fd5b50845162461bcd60e51b8152808401879052602481018790527f5461736b2074797065206e6f7420737570706f72746564206279206167656e746044820152fd5b845162461bcd60e51b8152808401879052601d60248201527f4167656e74206e6f74207265676973746572656420666f72207573657200000060448201528c90fd5b905082346104d857806003193601126104d85767ffffffffffffffff90823582811161139757611b189036908501611dd3565b91602435938185116104d457366023860112156104d4578481013590611b3d82611e1f565b92611b4a85519485611d95565b8284526020968785016024600595861b8301019136831161163b5760248a9101915b838310611d5357505050503388526099875260ff6002868a20015416611d10573388526099875284882092336001600160601b0360a01b855416178455600191828501908851908111611cfd579081611bd1859493611bcb8454611e63565b846121e9565b8a601f8211600114611c99578c9082611c8e575b50600019600383901b1c191690841b17905590935b600281019360ff19948486825416179055606460038301558a9101925b611c54575b86518981528a9033907fda816ca2fc37b9eecec62ae8263008ec6be1afb38dc28bc9c7c51d7e348da9c29080610eaa818f018e611f43565b8551811015611c895790611c81828a879594841b890101518c52838b52888c20858782541617905561222e565b909192611c17565b611c1c565b90508a01518d611be5565b828d528b8d2090601f1983168e8e8e5b838310611ce65750505090838794939210611ccd575b5050811b0190559093611bfa565b8c015160001960f88460031b161c191690558d80611cbf565b840151855589989094019392830192018e8e611ca9565b634e487b7160e01b8b526041855260248bfd5b845162461bcd60e51b8152808301889052601860248201527f4167656e7420616c7265616479207265676973746572656400000000000000006044820152606490fd5b82358152918101918a9101611b6c565b6060810190811067ffffffffffffffff821117611d7f57604052565b634e487b7160e01b600052604160045260246000fd5b90601f8019910116810190811067ffffffffffffffff821117611d7f57604052565b67ffffffffffffffff8111611d7f57601f01601f191660200190565b81601f82011215611e1a57803590611dea82611db7565b92611df86040519485611d95565b82845260208383010111611e1a57816000926020809301838601378301015290565b600080fd5b67ffffffffffffffff8111611d7f5760051b60200190565b600435906001600160a01b0382168203611e1a57565b602435906001600160a01b0382168203611e1a57565b90600182811c92168015611e93575b6020831014611e7d57565b634e487b7160e01b600052602260045260246000fd5b91607f1691611e72565b9060405191826000825492611eb184611e63565b908184526001948581169081600014611f205750600114611edd575b5050611edb92500383611d95565b565b9093915060005260209081600020936000915b818310611f08575050611edb93508201013880611ecd565b85548884018501529485019487945091830191611ef0565b915050611edb94506020925060ff191682840152151560051b8201013880611ecd565b919082519283825260005b848110611f6f575050826000602080949584010152601f8019910116010190565b602081830181015184830182015201611f4e565b15611f8a57565b60405162461bcd60e51b815260206004820152602c60248201527f46756e6374696f6e206d7573742062652063616c6c6564207468726f7567682060448201526b19195b1959d85d1958d85b1b60a21b6064820152608490fd5b15611feb57565b60405162461bcd60e51b815260206004820152602c60248201527f46756e6374696f6e206d7573742062652063616c6c6564207468726f7567682060448201526b6163746976652070726f787960a01b6064820152608490fd5b803b1561207a576000805160206124d583398151915280546001600160a01b0319166001600160a01b03909216919091179055565b60405162461bcd60e51b815260206004820152602d60248201527f455243313936373a206e657720696d706c656d656e746174696f6e206973206e60448201526c1bdd08184818dbdb9d1c9858dd609a1b6064820152608490fd5b9192901561213757508151156120e9575090565b3b156120f25790565b60405162461bcd60e51b815260206004820152601d60248201527f416464726573733a2063616c6c20746f206e6f6e2d636f6e74726163740000006044820152606490fd5b82519091501561214a5750805190602001fd5b60405162461bcd60e51b81526020600482015290819061216e906024830190611f43565b0390fd5b1561217957565b60405162461bcd60e51b815260206004820152602b60248201527f496e697469616c697a61626c653a20636f6e7472616374206973206e6f74206960448201526a6e697469616c697a696e6760a81b6064820152608490fd5b8181106121dd575050565b600081556001016121d2565b9190601f81116121f857505050565b611edb926000526020600020906020601f840160051c83019310612224575b601f0160051c01906121d2565b9091508190612217565b600019811461223d5760010190565b634e487b7160e01b600052601160045260246000fd5b1561225a57565b60405162461bcd60e51b815260206004820152601e60248201527f4167656e74206e6f74207265676973746572656420696e2073797374656d00006044820152606490fd5b156122a657565b60405162461bcd60e51b815260206004820152602160248201527f4167656e7420616c7265616479207265676973746572656420666f72207573656044820152603960f91b6064820152608490fd5b90816020910312611e1a57518015158103611e1a5790565b1561231457565b60405162461bcd60e51b815260206004820152602160248201527f5061796d656e7420616c6c6f77616e6365207472616e73666572206661696c656044820152601960fa1b6064820152608490fd5b805482101561237b5760005260206000200190600090565b634e487b7160e01b600052603260045260246000fd5b8054600160401b811015611d7f576123ae91600182018155612363565b819291549060031b9160018060a01b039283811b93849216901b16911916179055565b156123d857565b60405162461bcd60e51b815260206004820152601760248201527f5061796d656e74207472616e73666572206661696c65640000000000000000006044820152606490fd5b60026065541461242e576002606555565b60405162461bcd60e51b815260206004820152601f60248201527f5265656e7472616e637947756172643a207265656e7472616e742063616c6c006044820152606490fd5b1561247a57565b60405162461bcd60e51b8152602060048201526012602482015271139bdd08185cdcda59db9959081859d95b9d60721b6044820152606490fdfeb14eafe918ed2ebe411ca6d11c3ef5c8330bf0979fa0384ef0f26b8ed7b50fbf360894a13ba1a3210667c828492db98dca3e2076cc3735a920a3ca505d382bbca26469706673582212205c1220f2bb3ba9b8c95969727418d2ccfd264a41729b96a54b01666b4be81d4b64736f6c63430008110033",
  "linkReferences": {},
  "deployedLinkReferences": {}
}